{
	"SolidityFromYT/05_MySecret.sol": {
		"MySecret": {
			"abi": [
				{
					"inputs": [
						{
							"internalType": "string",
							"name": "_secret",
							"type": "string"
						}
					],
					"stateMutability": "nonpayable",
					"type": "constructor"
				},
				{
					"inputs": [],
					"name": "getSecret",
					"outputs": [
						{
							"internalType": "string",
							"name": "",
							"type": "string"
						}
					],
					"stateMutability": "view",
					"type": "function"
				}
			],
			"devdoc": {
				"kind": "dev",
				"methods": {},
				"version": 1
			},
			"evm": {
				"assembly": "    /* \"SolidityFromYT/05_MySecret.sol\":480:774  contract MySecret is Ownable {... */\n  mstore(0x40, 0x80)\n    /* \"SolidityFromYT/05_MySecret.sol\":533:671  constructor(string memory _secret) {... */\n  callvalue\n  dup1\n  iszero\n  tag_1\n  jumpi\n  0x00\n  dup1\n  revert\ntag_1:\n  pop\n  mload(0x40)\n  sub(codesize, bytecodeSize)\n  dup1\n  bytecodeSize\n  dup4\n  codecopy\n  dup2\n  dup2\n  add\n  0x40\n  mstore\n  dup2\n  add\n  swap1\n  tag_2\n  swap2\n  swap1\n  tag_3\n  jump\t// in\ntag_2:\n    /* \"SolidityFromYT/05_MySecret.sol\":235:245  msg.sender */\n  caller\n    /* \"SolidityFromYT/05_MySecret.sol\":229:234  owner */\n  0x00\n  dup1\n    /* \"SolidityFromYT/05_MySecret.sol\":229:245  owner=msg.sender */\n  0x0100\n  exp\n  dup2\n  sload\n  dup2\n  0xffffffffffffffffffffffffffffffffffffffff\n  mul\n  not\n  and\n  swap1\n  dup4\n  0xffffffffffffffffffffffffffffffffffffffff\n  and\n  mul\n  or\n  swap1\n  sstore\n  pop\n    /* \"SolidityFromYT/05_MySecret.sol\":579:594  SecretVault obj */\n  0x00\n    /* \"SolidityFromYT/05_MySecret.sol\":611:618  _secret */\n  dup2\n    /* \"SolidityFromYT/05_MySecret.sol\":595:619  new SecretVault(_secret) */\n  mload(0x40)\n  tag_8\n  swap1\n  tag_9\n  jump\t// in\ntag_8:\n  tag_10\n  swap2\n  swap1\n  tag_11\n  jump\t// in\ntag_10:\n  mload(0x40)\n  dup1\n  swap2\n  sub\n  swap1\n  0x00\n  create\n  dup1\n  iszero\n  dup1\n  iszero\n  tag_12\n  jumpi\n  returndatasize\n  0x00\n  dup1\n  returndatacopy\n  revert(0x00, returndatasize)\ntag_12:\n  pop\n    /* \"SolidityFromYT/05_MySecret.sol\":579:619  SecretVault obj=new SecretVault(_secret) */\n  swap1\n  pop\n    /* \"SolidityFromYT/05_MySecret.sol\":632:635  obj */\n  dup1\n    /* \"SolidityFromYT/05_MySecret.sol\":632:645  obj.getSecret */\n  0xffffffffffffffffffffffffffffffffffffffff\n  and\n  0x5b9fdc30\n    /* \"SolidityFromYT/05_MySecret.sol\":632:647  obj.getSecret() */\n  mload(0x40)\n  dup2\n  0xffffffff\n  and\n  0xe0\n  shl\n  dup2\n  mstore\n  0x04\n  add\n  0x00\n  mload(0x40)\n  dup1\n  dup4\n  sub\n  dup2\n  dup7\n  gas\n  staticcall\n  iszero\n  dup1\n  iszero\n  tag_14\n  jumpi\n  returndatasize\n  0x00\n  dup1\n  returndatacopy\n  revert(0x00, returndatasize)\ntag_14:\n  pop\n  pop\n  pop\n  pop\n  mload(0x40)\n  returndatasize\n  0x00\n  dup3\n  returndatacopy\n  returndatasize\n  not(0x1f)\n  0x1f\n  dup3\n  add\n  and\n  dup3\n  add\n  dup1\n  0x40\n  mstore\n  pop\n  dup2\n  add\n  swap1\n  tag_15\n  swap2\n  swap1\n  tag_3\n  jump\t// in\ntag_15:\n    /* \"SolidityFromYT/05_MySecret.sol\":630:631  s */\n  0x01\n    /* \"SolidityFromYT/05_MySecret.sol\":630:647  s=obj.getSecret() */\n  swap1\n  dup2\n  tag_16\n  swap2\n  swap1\n  tag_17\n  jump\t// in\ntag_16:\n  pop\n    /* \"SolidityFromYT/05_MySecret.sol\":568:671  {... */\n  pop\n    /* \"SolidityFromYT/05_MySecret.sol\":533:671  constructor(string memory _secret) {... */\n  pop\n    /* \"SolidityFromYT/05_MySecret.sol\":480:774  contract MySecret is Ownable {... */\n  jump(tag_18)\ntag_9:\n  dataSize(sub_1)\n  dup1\n  dataOffset(sub_1)\n  dup4\n  codecopy\n  add\n  swap1\n  jump\t// out\n    /* \"#utility.yul\":7:82   */\ntag_19:\n    /* \"#utility.yul\":40:46   */\n  0x00\n    /* \"#utility.yul\":73:75   */\n  0x40\n    /* \"#utility.yul\":67:76   */\n  mload\n    /* \"#utility.yul\":57:76   */\n  swap1\n  pop\n    /* \"#utility.yul\":7:82   */\n  swap1\n  jump\t// out\n    /* \"#utility.yul\":88:205   */\ntag_20:\n    /* \"#utility.yul\":197:198   */\n  0x00\n    /* \"#utility.yul\":194:195   */\n  dup1\n    /* \"#utility.yul\":187:199   */\n  revert\n    /* \"#utility.yul\":211:328   */\ntag_21:\n    /* \"#utility.yul\":320:321   */\n  0x00\n    /* \"#utility.yul\":317:318   */\n  dup1\n    /* \"#utility.yul\":310:322   */\n  revert\n    /* \"#utility.yul\":334:451   */\ntag_22:\n    /* \"#utility.yul\":443:444   */\n  0x00\n    /* \"#utility.yul\":440:441   */\n  dup1\n    /* \"#utility.yul\":433:445   */\n  revert\n    /* \"#utility.yul\":457:574   */\ntag_23:\n    /* \"#utility.yul\":566:567   */\n  0x00\n    /* \"#utility.yul\":563:564   */\n  dup1\n    /* \"#utility.yul\":556:568   */\n  revert\n    /* \"#utility.yul\":580:682   */\ntag_24:\n    /* \"#utility.yul\":621:627   */\n  0x00\n    /* \"#utility.yul\":672:674   */\n  0x1f\n    /* \"#utility.yul\":668:675   */\n  not\n    /* \"#utility.yul\":663:665   */\n  0x1f\n    /* \"#utility.yul\":656:661   */\n  dup4\n    /* \"#utility.yul\":652:666   */\n  add\n    /* \"#utility.yul\":648:676   */\n  and\n    /* \"#utility.yul\":638:676   */\n  swap1\n  pop\n    /* \"#utility.yul\":580:682   */\n  swap2\n  swap1\n  pop\n  jump\t// out\n    /* \"#utility.yul\":688:868   */\ntag_25:\n    /* \"#utility.yul\":736:813   */\n  0x4e487b7100000000000000000000000000000000000000000000000000000000\n    /* \"#utility.yul\":733:734   */\n  0x00\n    /* \"#utility.yul\":726:814   */\n  mstore\n    /* \"#utility.yul\":833:837   */\n  0x41\n    /* \"#utility.yul\":830:831   */\n  0x04\n    /* \"#utility.yul\":823:838   */\n  mstore\n    /* \"#utility.yul\":857:861   */\n  0x24\n    /* \"#utility.yul\":854:855   */\n  0x00\n    /* \"#utility.yul\":847:862   */\n  revert\n    /* \"#utility.yul\":874:1155   */\ntag_26:\n    /* \"#utility.yul\":957:984   */\n  tag_62\n    /* \"#utility.yul\":979:983   */\n  dup3\n    /* \"#utility.yul\":957:984   */\n  tag_24\n  jump\t// in\ntag_62:\n    /* \"#utility.yul\":949:955   */\n  dup2\n    /* \"#utility.yul\":945:985   */\n  add\n    /* \"#utility.yul\":1087:1093   */\n  dup2\n    /* \"#utility.yul\":1075:1085   */\n  dup2\n    /* \"#utility.yul\":1072:1094   */\n  lt\n    /* \"#utility.yul\":1051:1069   */\n  0xffffffffffffffff\n    /* \"#utility.yul\":1039:1049   */\n  dup3\n    /* \"#utility.yul\":1036:1070   */\n  gt\n    /* \"#utility.yul\":1033:1095   */\n  or\n    /* \"#utility.yul\":1030:1118   */\n  iszero\n  tag_63\n  jumpi\n    /* \"#utility.yul\":1098:1116   */\n  tag_64\n  tag_25\n  jump\t// in\ntag_64:\n    /* \"#utility.yul\":1030:1118   */\ntag_63:\n    /* \"#utility.yul\":1138:1148   */\n  dup1\n    /* \"#utility.yul\":1134:1136   */\n  0x40\n    /* \"#utility.yul\":1127:1149   */\n  mstore\n    /* \"#utility.yul\":917:1155   */\n  pop\n    /* \"#utility.yul\":874:1155   */\n  pop\n  pop\n  jump\t// out\n    /* \"#utility.yul\":1161:1290   */\ntag_27:\n    /* \"#utility.yul\":1195:1201   */\n  0x00\n    /* \"#utility.yul\":1222:1242   */\n  tag_66\n  tag_19\n  jump\t// in\ntag_66:\n    /* \"#utility.yul\":1212:1242   */\n  swap1\n  pop\n    /* \"#utility.yul\":1251:1284   */\n  tag_67\n    /* \"#utility.yul\":1279:1283   */\n  dup3\n    /* \"#utility.yul\":1271:1277   */\n  dup3\n    /* \"#utility.yul\":1251:1284   */\n  tag_26\n  jump\t// in\ntag_67:\n    /* \"#utility.yul\":1161:1290   */\n  swap2\n  swap1\n  pop\n  jump\t// out\n    /* \"#utility.yul\":1296:1604   */\ntag_28:\n    /* \"#utility.yul\":1358:1362   */\n  0x00\n    /* \"#utility.yul\":1448:1466   */\n  0xffffffffffffffff\n    /* \"#utility.yul\":1440:1446   */\n  dup3\n    /* \"#utility.yul\":1437:1467   */\n  gt\n    /* \"#utility.yul\":1434:1490   */\n  iszero\n  tag_69\n  jumpi\n    /* \"#utility.yul\":1470:1488   */\n  tag_70\n  tag_25\n  jump\t// in\ntag_70:\n    /* \"#utility.yul\":1434:1490   */\ntag_69:\n    /* \"#utility.yul\":1508:1537   */\n  tag_71\n    /* \"#utility.yul\":1530:1536   */\n  dup3\n    /* \"#utility.yul\":1508:1537   */\n  tag_24\n  jump\t// in\ntag_71:\n    /* \"#utility.yul\":1500:1537   */\n  swap1\n  pop\n    /* \"#utility.yul\":1592:1596   */\n  0x20\n    /* \"#utility.yul\":1586:1590   */\n  dup2\n    /* \"#utility.yul\":1582:1597   */\n  add\n    /* \"#utility.yul\":1574:1597   */\n  swap1\n  pop\n    /* \"#utility.yul\":1296:1604   */\n  swap2\n  swap1\n  pop\n  jump\t// out\n    /* \"#utility.yul\":1610:1749   */\ntag_29:\n    /* \"#utility.yul\":1699:1705   */\n  dup3\n    /* \"#utility.yul\":1694:1697   */\n  dup2\n    /* \"#utility.yul\":1689:1692   */\n  dup4\n    /* \"#utility.yul\":1683:1706   */\n  mcopy\n    /* \"#utility.yul\":1740:1741   */\n  0x00\n    /* \"#utility.yul\":1731:1737   */\n  dup4\n    /* \"#utility.yul\":1726:1729   */\n  dup4\n    /* \"#utility.yul\":1722:1738   */\n  add\n    /* \"#utility.yul\":1715:1742   */\n  mstore\n    /* \"#utility.yul\":1610:1749   */\n  pop\n  pop\n  pop\n  jump\t// out\n    /* \"#utility.yul\":1755:2189   */\ntag_30:\n    /* \"#utility.yul\":1844:1849   */\n  0x00\n    /* \"#utility.yul\":1869:1935   */\n  tag_74\n    /* \"#utility.yul\":1885:1934   */\n  tag_75\n    /* \"#utility.yul\":1927:1933   */\n  dup5\n    /* \"#utility.yul\":1885:1934   */\n  tag_28\n  jump\t// in\ntag_75:\n    /* \"#utility.yul\":1869:1935   */\n  tag_27\n  jump\t// in\ntag_74:\n    /* \"#utility.yul\":1860:1935   */\n  swap1\n  pop\n    /* \"#utility.yul\":1958:1964   */\n  dup3\n    /* \"#utility.yul\":1951:1956   */\n  dup2\n    /* \"#utility.yul\":1944:1965   */\n  mstore\n    /* \"#utility.yul\":1996:2000   */\n  0x20\n    /* \"#utility.yul\":1989:1994   */\n  dup2\n    /* \"#utility.yul\":1985:2001   */\n  add\n    /* \"#utility.yul\":2034:2037   */\n  dup5\n    /* \"#utility.yul\":2025:2031   */\n  dup5\n    /* \"#utility.yul\":2020:2023   */\n  dup5\n    /* \"#utility.yul\":2016:2032   */\n  add\n    /* \"#utility.yul\":2013:2038   */\n  gt\n    /* \"#utility.yul\":2010:2122   */\n  iszero\n  tag_76\n  jumpi\n    /* \"#utility.yul\":2041:2120   */\n  tag_77\n  tag_23\n  jump\t// in\ntag_77:\n    /* \"#utility.yul\":2010:2122   */\ntag_76:\n    /* \"#utility.yul\":2131:2183   */\n  tag_78\n    /* \"#utility.yul\":2176:2182   */\n  dup5\n    /* \"#utility.yul\":2171:2174   */\n  dup3\n    /* \"#utility.yul\":2166:2169   */\n  dup6\n    /* \"#utility.yul\":2131:2183   */\n  tag_29\n  jump\t// in\ntag_78:\n    /* \"#utility.yul\":1850:2189   */\n  pop\n    /* \"#utility.yul\":1755:2189   */\n  swap4\n  swap3\n  pop\n  pop\n  pop\n  jump\t// out\n    /* \"#utility.yul\":2209:2564   */\ntag_31:\n    /* \"#utility.yul\":2276:2281   */\n  0x00\n    /* \"#utility.yul\":2325:2328   */\n  dup3\n    /* \"#utility.yul\":2318:2322   */\n  0x1f\n    /* \"#utility.yul\":2310:2316   */\n  dup4\n    /* \"#utility.yul\":2306:2323   */\n  add\n    /* \"#utility.yul\":2302:2329   */\n  slt\n    /* \"#utility.yul\":2292:2414   */\n  tag_80\n  jumpi\n    /* \"#utility.yul\":2333:2412   */\n  tag_81\n  tag_22\n  jump\t// in\ntag_81:\n    /* \"#utility.yul\":2292:2414   */\ntag_80:\n    /* \"#utility.yul\":2443:2449   */\n  dup2\n    /* \"#utility.yul\":2437:2450   */\n  mload\n    /* \"#utility.yul\":2468:2558   */\n  tag_82\n    /* \"#utility.yul\":2554:2557   */\n  dup5\n    /* \"#utility.yul\":2546:2552   */\n  dup3\n    /* \"#utility.yul\":2539:2543   */\n  0x20\n    /* \"#utility.yul\":2531:2537   */\n  dup7\n    /* \"#utility.yul\":2527:2544   */\n  add\n    /* \"#utility.yul\":2468:2558   */\n  tag_30\n  jump\t// in\ntag_82:\n    /* \"#utility.yul\":2459:2558   */\n  swap2\n  pop\n    /* \"#utility.yul\":2282:2564   */\n  pop\n    /* \"#utility.yul\":2209:2564   */\n  swap3\n  swap2\n  pop\n  pop\n  jump\t// out\n    /* \"#utility.yul\":2570:3094   */\ntag_3:\n    /* \"#utility.yul\":2650:2656   */\n  0x00\n    /* \"#utility.yul\":2699:2701   */\n  0x20\n    /* \"#utility.yul\":2687:2696   */\n  dup3\n    /* \"#utility.yul\":2678:2685   */\n  dup5\n    /* \"#utility.yul\":2674:2697   */\n  sub\n    /* \"#utility.yul\":2670:2702   */\n  slt\n    /* \"#utility.yul\":2667:2786   */\n  iszero\n  tag_84\n  jumpi\n    /* \"#utility.yul\":2705:2784   */\n  tag_85\n  tag_20\n  jump\t// in\ntag_85:\n    /* \"#utility.yul\":2667:2786   */\ntag_84:\n    /* \"#utility.yul\":2846:2847   */\n  0x00\n    /* \"#utility.yul\":2835:2844   */\n  dup3\n    /* \"#utility.yul\":2831:2848   */\n  add\n    /* \"#utility.yul\":2825:2849   */\n  mload\n    /* \"#utility.yul\":2876:2894   */\n  0xffffffffffffffff\n    /* \"#utility.yul\":2868:2874   */\n  dup2\n    /* \"#utility.yul\":2865:2895   */\n  gt\n    /* \"#utility.yul\":2862:2979   */\n  iszero\n  tag_86\n  jumpi\n    /* \"#utility.yul\":2898:2977   */\n  tag_87\n  tag_21\n  jump\t// in\ntag_87:\n    /* \"#utility.yul\":2862:2979   */\ntag_86:\n    /* \"#utility.yul\":3003:3077   */\n  tag_88\n    /* \"#utility.yul\":3069:3076   */\n  dup5\n    /* \"#utility.yul\":3060:3066   */\n  dup3\n    /* \"#utility.yul\":3049:3058   */\n  dup6\n    /* \"#utility.yul\":3045:3067   */\n  add\n    /* \"#utility.yul\":3003:3077   */\n  tag_31\n  jump\t// in\ntag_88:\n    /* \"#utility.yul\":2993:3077   */\n  swap2\n  pop\n    /* \"#utility.yul\":2796:3087   */\n  pop\n    /* \"#utility.yul\":2570:3094   */\n  swap3\n  swap2\n  pop\n  pop\n  jump\t// out\n    /* \"#utility.yul\":3100:3199   */\ntag_32:\n    /* \"#utility.yul\":3152:3158   */\n  0x00\n    /* \"#utility.yul\":3186:3191   */\n  dup2\n    /* \"#utility.yul\":3180:3192   */\n  mload\n    /* \"#utility.yul\":3170:3192   */\n  swap1\n  pop\n    /* \"#utility.yul\":3100:3199   */\n  swap2\n  swap1\n  pop\n  jump\t// out\n    /* \"#utility.yul\":3205:3374   */\ntag_33:\n    /* \"#utility.yul\":3289:3300   */\n  0x00\n    /* \"#utility.yul\":3323:3329   */\n  dup3\n    /* \"#utility.yul\":3318:3321   */\n  dup3\n    /* \"#utility.yul\":3311:3330   */\n  mstore\n    /* \"#utility.yul\":3363:3367   */\n  0x20\n    /* \"#utility.yul\":3358:3361   */\n  dup3\n    /* \"#utility.yul\":3354:3368   */\n  add\n    /* \"#utility.yul\":3339:3368   */\n  swap1\n  pop\n    /* \"#utility.yul\":3205:3374   */\n  swap3\n  swap2\n  pop\n  pop\n  jump\t// out\n    /* \"#utility.yul\":3380:3757   */\ntag_34:\n    /* \"#utility.yul\":3468:3471   */\n  0x00\n    /* \"#utility.yul\":3496:3535   */\n  tag_92\n    /* \"#utility.yul\":3529:3534   */\n  dup3\n    /* \"#utility.yul\":3496:3535   */\n  tag_32\n  jump\t// in\ntag_92:\n    /* \"#utility.yul\":3551:3622   */\n  tag_93\n    /* \"#utility.yul\":3615:3621   */\n  dup2\n    /* \"#utility.yul\":3610:3613   */\n  dup6\n    /* \"#utility.yul\":3551:3622   */\n  tag_33\n  jump\t// in\ntag_93:\n    /* \"#utility.yul\":3544:3622   */\n  swap4\n  pop\n    /* \"#utility.yul\":3631:3696   */\n  tag_94\n    /* \"#utility.yul\":3689:3695   */\n  dup2\n    /* \"#utility.yul\":3684:3687   */\n  dup6\n    /* \"#utility.yul\":3677:3681   */\n  0x20\n    /* \"#utility.yul\":3670:3675   */\n  dup7\n    /* \"#utility.yul\":3666:3682   */\n  add\n    /* \"#utility.yul\":3631:3696   */\n  tag_29\n  jump\t// in\ntag_94:\n    /* \"#utility.yul\":3721:3750   */\n  tag_95\n    /* \"#utility.yul\":3743:3749   */\n  dup2\n    /* \"#utility.yul\":3721:3750   */\n  tag_24\n  jump\t// in\ntag_95:\n    /* \"#utility.yul\":3716:3719   */\n  dup5\n    /* \"#utility.yul\":3712:3751   */\n  add\n    /* \"#utility.yul\":3705:3751   */\n  swap2\n  pop\n    /* \"#utility.yul\":3472:3757   */\n  pop\n    /* \"#utility.yul\":3380:3757   */\n  swap3\n  swap2\n  pop\n  pop\n  jump\t// out\n    /* \"#utility.yul\":3763:4076   */\ntag_11:\n    /* \"#utility.yul\":3876:3880   */\n  0x00\n    /* \"#utility.yul\":3914:3916   */\n  0x20\n    /* \"#utility.yul\":3903:3912   */\n  dup3\n    /* \"#utility.yul\":3899:3917   */\n  add\n    /* \"#utility.yul\":3891:3917   */\n  swap1\n  pop\n    /* \"#utility.yul\":3963:3972   */\n  dup2\n    /* \"#utility.yul\":3957:3961   */\n  dup2\n    /* \"#utility.yul\":3953:3973   */\n  sub\n    /* \"#utility.yul\":3949:3950   */\n  0x00\n    /* \"#utility.yul\":3938:3947   */\n  dup4\n    /* \"#utility.yul\":3934:3951   */\n  add\n    /* \"#utility.yul\":3927:3974   */\n  mstore\n    /* \"#utility.yul\":3991:4069   */\n  tag_97\n    /* \"#utility.yul\":4064:4068   */\n  dup2\n    /* \"#utility.yul\":4055:4061   */\n  dup5\n    /* \"#utility.yul\":3991:4069   */\n  tag_34\n  jump\t// in\ntag_97:\n    /* \"#utility.yul\":3983:4069   */\n  swap1\n  pop\n    /* \"#utility.yul\":3763:4076   */\n  swap3\n  swap2\n  pop\n  pop\n  jump\t// out\n    /* \"#utility.yul\":4082:4262   */\ntag_35:\n    /* \"#utility.yul\":4130:4207   */\n  0x4e487b7100000000000000000000000000000000000000000000000000000000\n    /* \"#utility.yul\":4127:4128   */\n  0x00\n    /* \"#utility.yul\":4120:4208   */\n  mstore\n    /* \"#utility.yul\":4227:4231   */\n  0x22\n    /* \"#utility.yul\":4224:4225   */\n  0x04\n    /* \"#utility.yul\":4217:4232   */\n  mstore\n    /* \"#utility.yul\":4251:4255   */\n  0x24\n    /* \"#utility.yul\":4248:4249   */\n  0x00\n    /* \"#utility.yul\":4241:4256   */\n  revert\n    /* \"#utility.yul\":4268:4588   */\ntag_36:\n    /* \"#utility.yul\":4312:4318   */\n  0x00\n    /* \"#utility.yul\":4349:4350   */\n  0x02\n    /* \"#utility.yul\":4343:4347   */\n  dup3\n    /* \"#utility.yul\":4339:4351   */\n  div\n    /* \"#utility.yul\":4329:4351   */\n  swap1\n  pop\n    /* \"#utility.yul\":4396:4397   */\n  0x01\n    /* \"#utility.yul\":4390:4394   */\n  dup3\n    /* \"#utility.yul\":4386:4398   */\n  and\n    /* \"#utility.yul\":4417:4435   */\n  dup1\n    /* \"#utility.yul\":4407:4488   */\n  tag_100\n  jumpi\n    /* \"#utility.yul\":4473:4477   */\n  0x7f\n    /* \"#utility.yul\":4465:4471   */\n  dup3\n    /* \"#utility.yul\":4461:4478   */\n  and\n    /* \"#utility.yul\":4451:4478   */\n  swap2\n  pop\n    /* \"#utility.yul\":4407:4488   */\ntag_100:\n    /* \"#utility.yul\":4535:4537   */\n  0x20\n    /* \"#utility.yul\":4527:4533   */\n  dup3\n    /* \"#utility.yul\":4524:4538   */\n  lt\n    /* \"#utility.yul\":4504:4522   */\n  dup2\n    /* \"#utility.yul\":4501:4539   */\n  sub\n    /* \"#utility.yul\":4498:4582   */\n  tag_101\n  jumpi\n    /* \"#utility.yul\":4554:4572   */\n  tag_102\n  tag_35\n  jump\t// in\ntag_102:\n    /* \"#utility.yul\":4498:4582   */\ntag_101:\n    /* \"#utility.yul\":4319:4588   */\n  pop\n    /* \"#utility.yul\":4268:4588   */\n  swap2\n  swap1\n  pop\n  jump\t// out\n    /* \"#utility.yul\":4594:4735   */\ntag_37:\n    /* \"#utility.yul\":4643:4647   */\n  0x00\n    /* \"#utility.yul\":4666:4669   */\n  dup2\n    /* \"#utility.yul\":4658:4669   */\n  swap1\n  pop\n    /* \"#utility.yul\":4689:4692   */\n  dup2\n    /* \"#utility.yul\":4686:4687   */\n  0x00\n    /* \"#utility.yul\":4679:4693   */\n  mstore\n    /* \"#utility.yul\":4723:4727   */\n  0x20\n    /* \"#utility.yul\":4720:4721   */\n  0x00\n    /* \"#utility.yul\":4710:4728   */\n  keccak256\n    /* \"#utility.yul\":4702:4728   */\n  swap1\n  pop\n    /* \"#utility.yul\":4594:4735   */\n  swap2\n  swap1\n  pop\n  jump\t// out\n    /* \"#utility.yul\":4741:4834   */\ntag_38:\n    /* \"#utility.yul\":4778:4784   */\n  0x00\n    /* \"#utility.yul\":4825:4827   */\n  0x20\n    /* \"#utility.yul\":4820:4822   */\n  0x1f\n    /* \"#utility.yul\":4813:4818   */\n  dup4\n    /* \"#utility.yul\":4809:4823   */\n  add\n    /* \"#utility.yul\":4805:4828   */\n  div\n    /* \"#utility.yul\":4795:4828   */\n  swap1\n  pop\n    /* \"#utility.yul\":4741:4834   */\n  swap2\n  swap1\n  pop\n  jump\t// out\n    /* \"#utility.yul\":4840:4947   */\ntag_39:\n    /* \"#utility.yul\":4884:4892   */\n  0x00\n    /* \"#utility.yul\":4934:4939   */\n  dup3\n    /* \"#utility.yul\":4928:4932   */\n  dup3\n    /* \"#utility.yul\":4924:4940   */\n  shl\n    /* \"#utility.yul\":4903:4940   */\n  swap1\n  pop\n    /* \"#utility.yul\":4840:4947   */\n  swap3\n  swap2\n  pop\n  pop\n  jump\t// out\n    /* \"#utility.yul\":4953:5346   */\ntag_40:\n    /* \"#utility.yul\":5022:5028   */\n  0x00\n    /* \"#utility.yul\":5072:5073   */\n  0x08\n    /* \"#utility.yul\":5060:5070   */\n  dup4\n    /* \"#utility.yul\":5056:5074   */\n  mul\n    /* \"#utility.yul\":5095:5192   */\n  tag_107\n    /* \"#utility.yul\":5125:5191   */\n  0xffffffffffffffffffffffffffffffffffffffffffffffffffffffffffffffff\n    /* \"#utility.yul\":5114:5123   */\n  dup3\n    /* \"#utility.yul\":5095:5192   */\n  tag_39\n  jump\t// in\ntag_107:\n    /* \"#utility.yul\":5213:5252   */\n  tag_108\n    /* \"#utility.yul\":5243:5251   */\n  dup7\n    /* \"#utility.yul\":5232:5241   */\n  dup4\n    /* \"#utility.yul\":5213:5252   */\n  tag_39\n  jump\t// in\ntag_108:\n    /* \"#utility.yul\":5201:5252   */\n  swap6\n  pop\n    /* \"#utility.yul\":5285:5289   */\n  dup1\n    /* \"#utility.yul\":5281:5290   */\n  not\n    /* \"#utility.yul\":5274:5279   */\n  dup5\n    /* \"#utility.yul\":5270:5291   */\n  and\n    /* \"#utility.yul\":5261:5291   */\n  swap4\n  pop\n    /* \"#utility.yul\":5334:5338   */\n  dup1\n    /* \"#utility.yul\":5324:5332   */\n  dup7\n    /* \"#utility.yul\":5320:5339   */\n  and\n    /* \"#utility.yul\":5313:5318   */\n  dup5\n    /* \"#utility.yul\":5310:5340   */\n  or\n    /* \"#utility.yul\":5300:5340   */\n  swap3\n  pop\n    /* \"#utility.yul\":5029:5346   */\n  pop\n  pop\n    /* \"#utility.yul\":4953:5346   */\n  swap4\n  swap3\n  pop\n  pop\n  pop\n  jump\t// out\n    /* \"#utility.yul\":5352:5429   */\ntag_41:\n    /* \"#utility.yul\":5389:5396   */\n  0x00\n    /* \"#utility.yul\":5418:5423   */\n  dup2\n    /* \"#utility.yul\":5407:5423   */\n  swap1\n  pop\n    /* \"#utility.yul\":5352:5429   */\n  swap2\n  swap1\n  pop\n  jump\t// out\n    /* \"#utility.yul\":5435:5495   */\ntag_42:\n    /* \"#utility.yul\":5463:5466   */\n  0x00\n    /* \"#utility.yul\":5484:5489   */\n  dup2\n    /* \"#utility.yul\":5477:5489   */\n  swap1\n  pop\n    /* \"#utility.yul\":5435:5495   */\n  swap2\n  swap1\n  pop\n  jump\t// out\n    /* \"#utility.yul\":5501:5643   */\ntag_43:\n    /* \"#utility.yul\":5551:5560   */\n  0x00\n    /* \"#utility.yul\":5584:5637   */\n  tag_112\n    /* \"#utility.yul\":5602:5636   */\n  tag_113\n    /* \"#utility.yul\":5611:5635   */\n  tag_114\n    /* \"#utility.yul\":5629:5634   */\n  dup5\n    /* \"#utility.yul\":5611:5635   */\n  tag_41\n  jump\t// in\ntag_114:\n    /* \"#utility.yul\":5602:5636   */\n  tag_42\n  jump\t// in\ntag_113:\n    /* \"#utility.yul\":5584:5637   */\n  tag_41\n  jump\t// in\ntag_112:\n    /* \"#utility.yul\":5571:5637   */\n  swap1\n  pop\n    /* \"#utility.yul\":5501:5643   */\n  swap2\n  swap1\n  pop\n  jump\t// out\n    /* \"#utility.yul\":5649:5724   */\ntag_44:\n    /* \"#utility.yul\":5692:5695   */\n  0x00\n    /* \"#utility.yul\":5713:5718   */\n  dup2\n    /* \"#utility.yul\":5706:5718   */\n  swap1\n  pop\n    /* \"#utility.yul\":5649:5724   */\n  swap2\n  swap1\n  pop\n  jump\t// out\n    /* \"#utility.yul\":5730:5999   */\ntag_45:\n    /* \"#utility.yul\":5840:5879   */\n  tag_117\n    /* \"#utility.yul\":5871:5878   */\n  dup4\n    /* \"#utility.yul\":5840:5879   */\n  tag_43\n  jump\t// in\ntag_117:\n    /* \"#utility.yul\":5901:5992   */\n  tag_118\n    /* \"#utility.yul\":5950:5991   */\n  tag_119\n    /* \"#utility.yul\":5974:5990   */\n  dup3\n    /* \"#utility.yul\":5950:5991   */\n  tag_44\n  jump\t// in\ntag_119:\n    /* \"#utility.yul\":5942:5948   */\n  dup5\n    /* \"#utility.yul\":5935:5939   */\n  dup5\n    /* \"#utility.yul\":5929:5940   */\n  sload\n    /* \"#utility.yul\":5901:5992   */\n  tag_40\n  jump\t// in\ntag_118:\n    /* \"#utility.yul\":5895:5899   */\n  dup3\n    /* \"#utility.yul\":5888:5993   */\n  sstore\n    /* \"#utility.yul\":5806:5999   */\n  pop\n    /* \"#utility.yul\":5730:5999   */\n  pop\n  pop\n  pop\n  jump\t// out\n    /* \"#utility.yul\":6005:6078   */\ntag_46:\n    /* \"#utility.yul\":6050:6053   */\n  0x00\n    /* \"#utility.yul\":6005:6078   */\n  swap1\n  jump\t// out\n    /* \"#utility.yul\":6084:6273   */\ntag_47:\n    /* \"#utility.yul\":6161:6193   */\n  tag_122\n  tag_46\n  jump\t// in\ntag_122:\n    /* \"#utility.yul\":6202:6267   */\n  tag_123\n    /* \"#utility.yul\":6260:6266   */\n  dup2\n    /* \"#utility.yul\":6252:6258   */\n  dup5\n    /* \"#utility.yul\":6246:6250   */\n  dup5\n    /* \"#utility.yul\":6202:6267   */\n  tag_45\n  jump\t// in\ntag_123:\n    /* \"#utility.yul\":6137:6273   */\n  pop\n    /* \"#utility.yul\":6084:6273   */\n  pop\n  pop\n  jump\t// out\n    /* \"#utility.yul\":6279:6465   */\ntag_48:\n    /* \"#utility.yul\":6339:6459   */\ntag_125:\n    /* \"#utility.yul\":6356:6359   */\n  dup2\n    /* \"#utility.yul\":6349:6354   */\n  dup2\n    /* \"#utility.yul\":6346:6360   */\n  lt\n    /* \"#utility.yul\":6339:6459   */\n  iszero\n  tag_127\n  jumpi\n    /* \"#utility.yul\":6410:6449   */\n  tag_128\n    /* \"#utility.yul\":6447:6448   */\n  0x00\n    /* \"#utility.yul\":6440:6445   */\n  dup3\n    /* \"#utility.yul\":6410:6449   */\n  tag_47\n  jump\t// in\ntag_128:\n    /* \"#utility.yul\":6383:6384   */\n  0x01\n    /* \"#utility.yul\":6376:6381   */\n  dup2\n    /* \"#utility.yul\":6372:6385   */\n  add\n    /* \"#utility.yul\":6363:6385   */\n  swap1\n  pop\n    /* \"#utility.yul\":6339:6459   */\n  jump(tag_125)\ntag_127:\n    /* \"#utility.yul\":6279:6465   */\n  pop\n  pop\n  jump\t// out\n    /* \"#utility.yul\":6471:7014   */\ntag_49:\n    /* \"#utility.yul\":6572:6574   */\n  0x1f\n    /* \"#utility.yul\":6567:6570   */\n  dup3\n    /* \"#utility.yul\":6564:6575   */\n  gt\n    /* \"#utility.yul\":6561:7007   */\n  iszero\n  tag_130\n  jumpi\n    /* \"#utility.yul\":6606:6644   */\n  tag_131\n    /* \"#utility.yul\":6638:6643   */\n  dup2\n    /* \"#utility.yul\":6606:6644   */\n  tag_37\n  jump\t// in\ntag_131:\n    /* \"#utility.yul\":6690:6719   */\n  tag_132\n    /* \"#utility.yul\":6708:6718   */\n  dup5\n    /* \"#utility.yul\":6690:6719   */\n  tag_38\n  jump\t// in\ntag_132:\n    /* \"#utility.yul\":6680:6688   */\n  dup2\n    /* \"#utility.yul\":6676:6720   */\n  add\n    /* \"#utility.yul\":6873:6875   */\n  0x20\n    /* \"#utility.yul\":6861:6871   */\n  dup6\n    /* \"#utility.yul\":6858:6876   */\n  lt\n    /* \"#utility.yul\":6855:6904   */\n  iszero\n  tag_133\n  jumpi\n    /* \"#utility.yul\":6894:6902   */\n  dup2\n    /* \"#utility.yul\":6879:6902   */\n  swap1\n  pop\n    /* \"#utility.yul\":6855:6904   */\ntag_133:\n    /* \"#utility.yul\":6917:6997   */\n  tag_134\n    /* \"#utility.yul\":6973:6995   */\n  tag_135\n    /* \"#utility.yul\":6991:6994   */\n  dup6\n    /* \"#utility.yul\":6973:6995   */\n  tag_38\n  jump\t// in\ntag_135:\n    /* \"#utility.yul\":6963:6971   */\n  dup4\n    /* \"#utility.yul\":6959:6996   */\n  add\n    /* \"#utility.yul\":6946:6957   */\n  dup3\n    /* \"#utility.yul\":6917:6997   */\n  tag_48\n  jump\t// in\ntag_134:\n    /* \"#utility.yul\":6576:7007   */\n  pop\n  pop\n    /* \"#utility.yul\":6561:7007   */\ntag_130:\n    /* \"#utility.yul\":6471:7014   */\n  pop\n  pop\n  pop\n  jump\t// out\n    /* \"#utility.yul\":7020:7137   */\ntag_50:\n    /* \"#utility.yul\":7074:7082   */\n  0x00\n    /* \"#utility.yul\":7124:7129   */\n  dup3\n    /* \"#utility.yul\":7118:7122   */\n  dup3\n    /* \"#utility.yul\":7114:7130   */\n  shr\n    /* \"#utility.yul\":7093:7130   */\n  swap1\n  pop\n    /* \"#utility.yul\":7020:7137   */\n  swap3\n  swap2\n  pop\n  pop\n  jump\t// out\n    /* \"#utility.yul\":7143:7312   */\ntag_51:\n    /* \"#utility.yul\":7187:7193   */\n  0x00\n    /* \"#utility.yul\":7220:7271   */\n  tag_138\n    /* \"#utility.yul\":7268:7269   */\n  0x00\n    /* \"#utility.yul\":7264:7270   */\n  not\n    /* \"#utility.yul\":7256:7261   */\n  dup5\n    /* \"#utility.yul\":7253:7254   */\n  0x08\n    /* \"#utility.yul\":7249:7262   */\n  mul\n    /* \"#utility.yul\":7220:7271   */\n  tag_50\n  jump\t// in\ntag_138:\n    /* \"#utility.yul\":7216:7272   */\n  not\n    /* \"#utility.yul\":7301:7305   */\n  dup1\n    /* \"#utility.yul\":7295:7299   */\n  dup4\n    /* \"#utility.yul\":7291:7306   */\n  and\n    /* \"#utility.yul\":7281:7306   */\n  swap2\n  pop\n    /* \"#utility.yul\":7194:7312   */\n  pop\n    /* \"#utility.yul\":7143:7312   */\n  swap3\n  swap2\n  pop\n  pop\n  jump\t// out\n    /* \"#utility.yul\":7317:7612   */\ntag_52:\n    /* \"#utility.yul\":7393:7397   */\n  0x00\n    /* \"#utility.yul\":7539:7568   */\n  tag_140\n    /* \"#utility.yul\":7564:7567   */\n  dup4\n    /* \"#utility.yul\":7558:7562   */\n  dup4\n    /* \"#utility.yul\":7539:7568   */\n  tag_51\n  jump\t// in\ntag_140:\n    /* \"#utility.yul\":7531:7568   */\n  swap2\n  pop\n    /* \"#utility.yul\":7601:7604   */\n  dup3\n    /* \"#utility.yul\":7598:7599   */\n  0x02\n    /* \"#utility.yul\":7594:7605   */\n  mul\n    /* \"#utility.yul\":7588:7592   */\n  dup3\n    /* \"#utility.yul\":7585:7606   */\n  or\n    /* \"#utility.yul\":7577:7606   */\n  swap1\n  pop\n    /* \"#utility.yul\":7317:7612   */\n  swap3\n  swap2\n  pop\n  pop\n  jump\t// out\n    /* \"#utility.yul\":7617:9012   */\ntag_17:\n    /* \"#utility.yul\":7734:7771   */\n  tag_142\n    /* \"#utility.yul\":7767:7770   */\n  dup3\n    /* \"#utility.yul\":7734:7771   */\n  tag_32\n  jump\t// in\ntag_142:\n    /* \"#utility.yul\":7836:7854   */\n  0xffffffffffffffff\n    /* \"#utility.yul\":7828:7834   */\n  dup2\n    /* \"#utility.yul\":7825:7855   */\n  gt\n    /* \"#utility.yul\":7822:7878   */\n  iszero\n  tag_143\n  jumpi\n    /* \"#utility.yul\":7858:7876   */\n  tag_144\n  tag_25\n  jump\t// in\ntag_144:\n    /* \"#utility.yul\":7822:7878   */\ntag_143:\n    /* \"#utility.yul\":7902:7940   */\n  tag_145\n    /* \"#utility.yul\":7934:7938   */\n  dup3\n    /* \"#utility.yul\":7928:7939   */\n  sload\n    /* \"#utility.yul\":7902:7940   */\n  tag_36\n  jump\t// in\ntag_145:\n    /* \"#utility.yul\":7987:8054   */\n  tag_146\n    /* \"#utility.yul\":8047:8053   */\n  dup3\n    /* \"#utility.yul\":8039:8045   */\n  dup3\n    /* \"#utility.yul\":8033:8037   */\n  dup6\n    /* \"#utility.yul\":7987:8054   */\n  tag_49\n  jump\t// in\ntag_146:\n    /* \"#utility.yul\":8081:8082   */\n  0x00\n    /* \"#utility.yul\":8105:8109   */\n  0x20\n    /* \"#utility.yul\":8092:8109   */\n  swap1\n  pop\n    /* \"#utility.yul\":8137:8139   */\n  0x1f\n    /* \"#utility.yul\":8129:8135   */\n  dup4\n    /* \"#utility.yul\":8126:8140   */\n  gt\n    /* \"#utility.yul\":8154:8155   */\n  0x01\n    /* \"#utility.yul\":8149:8767   */\n  dup2\n  eq\n  tag_148\n  jumpi\n    /* \"#utility.yul\":8811:8812   */\n  0x00\n    /* \"#utility.yul\":8828:8834   */\n  dup5\n    /* \"#utility.yul\":8825:8902   */\n  iszero\n  tag_149\n  jumpi\n    /* \"#utility.yul\":8877:8886   */\n  dup3\n    /* \"#utility.yul\":8872:8875   */\n  dup8\n    /* \"#utility.yul\":8868:8887   */\n  add\n    /* \"#utility.yul\":8862:8888   */\n  mload\n    /* \"#utility.yul\":8853:8888   */\n  swap1\n  pop\n    /* \"#utility.yul\":8825:8902   */\ntag_149:\n    /* \"#utility.yul\":8928:8995   */\n  tag_150\n    /* \"#utility.yul\":8988:8994   */\n  dup6\n    /* \"#utility.yul\":8981:8986   */\n  dup3\n    /* \"#utility.yul\":8928:8995   */\n  tag_52\n  jump\t// in\ntag_150:\n    /* \"#utility.yul\":8922:8926   */\n  dup7\n    /* \"#utility.yul\":8915:8996   */\n  sstore\n    /* \"#utility.yul\":8784:9006   */\n  pop\n    /* \"#utility.yul\":8119:9006   */\n  jump(tag_147)\n    /* \"#utility.yul\":8149:8767   */\ntag_148:\n    /* \"#utility.yul\":8201:8205   */\n  0x1f\n    /* \"#utility.yul\":8197:8206   */\n  not\n    /* \"#utility.yul\":8189:8195   */\n  dup5\n    /* \"#utility.yul\":8185:8207   */\n  and\n    /* \"#utility.yul\":8235:8272   */\n  tag_151\n    /* \"#utility.yul\":8267:8271   */\n  dup7\n    /* \"#utility.yul\":8235:8272   */\n  tag_37\n  jump\t// in\ntag_151:\n    /* \"#utility.yul\":8294:8295   */\n  0x00\n    /* \"#utility.yul\":8308:8516   */\ntag_152:\n    /* \"#utility.yul\":8322:8329   */\n  dup3\n    /* \"#utility.yul\":8319:8320   */\n  dup2\n    /* \"#utility.yul\":8316:8330   */\n  lt\n    /* \"#utility.yul\":8308:8516   */\n  iszero\n  tag_154\n  jumpi\n    /* \"#utility.yul\":8401:8410   */\n  dup5\n    /* \"#utility.yul\":8396:8399   */\n  dup10\n    /* \"#utility.yul\":8392:8411   */\n  add\n    /* \"#utility.yul\":8386:8412   */\n  mload\n    /* \"#utility.yul\":8378:8384   */\n  dup3\n    /* \"#utility.yul\":8371:8413   */\n  sstore\n    /* \"#utility.yul\":8452:8453   */\n  0x01\n    /* \"#utility.yul\":8444:8450   */\n  dup3\n    /* \"#utility.yul\":8440:8454   */\n  add\n    /* \"#utility.yul\":8430:8454   */\n  swap2\n  pop\n    /* \"#utility.yul\":8499:8501   */\n  0x20\n    /* \"#utility.yul\":8488:8497   */\n  dup6\n    /* \"#utility.yul\":8484:8502   */\n  add\n    /* \"#utility.yul\":8471:8502   */\n  swap5\n  pop\n    /* \"#utility.yul\":8345:8349   */\n  0x20\n    /* \"#utility.yul\":8342:8343   */\n  dup2\n    /* \"#utility.yul\":8338:8350   */\n  add\n    /* \"#utility.yul\":8333:8350   */\n  swap1\n  pop\n    /* \"#utility.yul\":8308:8516   */\n  jump(tag_152)\ntag_154:\n    /* \"#utility.yul\":8544:8550   */\n  dup7\n    /* \"#utility.yul\":8535:8542   */\n  dup4\n    /* \"#utility.yul\":8532:8551   */\n  lt\n    /* \"#utility.yul\":8529:8708   */\n  iszero\n  tag_155\n  jumpi\n    /* \"#utility.yul\":8602:8611   */\n  dup5\n    /* \"#utility.yul\":8597:8600   */\n  dup10\n    /* \"#utility.yul\":8593:8612   */\n  add\n    /* \"#utility.yul\":8587:8613   */\n  mload\n    /* \"#utility.yul\":8645:8693   */\n  tag_156\n    /* \"#utility.yul\":8687:8691   */\n  0x1f\n    /* \"#utility.yul\":8679:8685   */\n  dup10\n    /* \"#utility.yul\":8675:8692   */\n  and\n    /* \"#utility.yul\":8664:8673   */\n  dup3\n    /* \"#utility.yul\":8645:8693   */\n  tag_51\n  jump\t// in\ntag_156:\n    /* \"#utility.yul\":8637:8643   */\n  dup4\n    /* \"#utility.yul\":8630:8694   */\n  sstore\n    /* \"#utility.yul\":8552:8708   */\n  pop\n    /* \"#utility.yul\":8529:8708   */\ntag_155:\n    /* \"#utility.yul\":8754:8755   */\n  0x01\n    /* \"#utility.yul\":8750:8751   */\n  0x02\n    /* \"#utility.yul\":8742:8748   */\n  dup9\n    /* \"#utility.yul\":8738:8752   */\n  mul\n    /* \"#utility.yul\":8734:8756   */\n  add\n    /* \"#utility.yul\":8728:8732   */\n  dup9\n    /* \"#utility.yul\":8721:8757   */\n  sstore\n    /* \"#utility.yul\":8156:8767   */\n  pop\n  pop\n  pop\n    /* \"#utility.yul\":8119:9006   */\ntag_147:\n  pop\n    /* \"#utility.yul\":7709:9012   */\n  pop\n  pop\n  pop\n    /* \"#utility.yul\":7617:9012   */\n  pop\n  pop\n  jump\t// out\n    /* \"SolidityFromYT/05_MySecret.sol\":480:774  contract MySecret is Ownable {... */\ntag_18:\n  dataSize(sub_0)\n  dup1\n  dataOffset(sub_0)\n  0x00\n  codecopy\n  0x00\n  return\nstop\n\nsub_0: assembly {\n        /* \"SolidityFromYT/05_MySecret.sol\":480:774  contract MySecret is Ownable {... */\n      mstore(0x40, 0x80)\n      callvalue\n      dup1\n      iszero\n      tag_1\n      jumpi\n      0x00\n      dup1\n      revert\n    tag_1:\n      pop\n      jumpi(tag_2, lt(calldatasize, 0x04))\n      shr(0xe0, calldataload(0x00))\n      dup1\n      0x5b9fdc30\n      eq\n      tag_3\n      jumpi\n    tag_2:\n      0x00\n      dup1\n      revert\n        /* \"SolidityFromYT/05_MySecret.sol\":679:771  function getSecret() public view Onlyowner returns(string memory){... */\n    tag_3:\n      tag_4\n      tag_5\n      jump\t// in\n    tag_4:\n      mload(0x40)\n      tag_6\n      swap2\n      swap1\n      tag_7\n      jump\t// in\n    tag_6:\n      mload(0x40)\n      dup1\n      swap2\n      sub\n      swap1\n      return\n    tag_5:\n        /* \"SolidityFromYT/05_MySecret.sol\":730:743  string memory */\n      0x60\n        /* \"SolidityFromYT/05_MySecret.sol\":150:160  msg.sender */\n      caller\n        /* \"SolidityFromYT/05_MySecret.sol\":143:160  owner==msg.sender */\n      0xffffffffffffffffffffffffffffffffffffffff\n      and\n        /* \"SolidityFromYT/05_MySecret.sol\":143:148  owner */\n      0x00\n      dup1\n      sload\n      swap1\n      0x0100\n      exp\n      swap1\n      div\n      0xffffffffffffffffffffffffffffffffffffffff\n      and\n        /* \"SolidityFromYT/05_MySecret.sol\":143:160  owner==msg.sender */\n      0xffffffffffffffffffffffffffffffffffffffff\n      and\n      eq\n        /* \"SolidityFromYT/05_MySecret.sol\":135:177  require(owner==msg.sender,\"must be onwer\") */\n      tag_9\n      jumpi\n      mload(0x40)\n      0x08c379a000000000000000000000000000000000000000000000000000000000\n      dup2\n      mstore\n      0x04\n      add\n      tag_10\n      swap1\n      tag_11\n      jump\t// in\n    tag_10:\n      mload(0x40)\n      dup1\n      swap2\n      sub\n      swap1\n      revert\n    tag_9:\n        /* \"SolidityFromYT/05_MySecret.sol\":762:763  s */\n      0x01\n        /* \"SolidityFromYT/05_MySecret.sol\":755:763  return s */\n      dup1\n      sload\n      tag_13\n      swap1\n      tag_14\n      jump\t// in\n    tag_13:\n      dup1\n      0x1f\n      add\n      0x20\n      dup1\n      swap2\n      div\n      mul\n      0x20\n      add\n      mload(0x40)\n      swap1\n      dup2\n      add\n      0x40\n      mstore\n      dup1\n      swap3\n      swap2\n      swap1\n      dup2\n      dup2\n      mstore\n      0x20\n      add\n      dup3\n      dup1\n      sload\n      tag_15\n      swap1\n      tag_14\n      jump\t// in\n    tag_15:\n      dup1\n      iszero\n      tag_16\n      jumpi\n      dup1\n      0x1f\n      lt\n      tag_17\n      jumpi\n      0x0100\n      dup1\n      dup4\n      sload\n      div\n      mul\n      dup4\n      mstore\n      swap2\n      0x20\n      add\n      swap2\n      jump(tag_16)\n    tag_17:\n      dup3\n      add\n      swap2\n      swap1\n      0x00\n      mstore\n      keccak256(0x00, 0x20)\n      swap1\n    tag_18:\n      dup2\n      sload\n      dup2\n      mstore\n      swap1\n      0x01\n      add\n      swap1\n      0x20\n      add\n      dup1\n      dup4\n      gt\n      tag_18\n      jumpi\n      dup3\n      swap1\n      sub\n      0x1f\n      and\n      dup3\n      add\n      swap2\n    tag_16:\n      pop\n      pop\n      pop\n      pop\n      pop\n      swap1\n      pop\n        /* \"SolidityFromYT/05_MySecret.sol\":679:771  function getSecret() public view Onlyowner returns(string memory){... */\n      swap1\n      jump\t// out\n        /* \"#utility.yul\":7:106   */\n    tag_19:\n        /* \"#utility.yul\":59:65   */\n      0x00\n        /* \"#utility.yul\":93:98   */\n      dup2\n        /* \"#utility.yul\":87:99   */\n      mload\n        /* \"#utility.yul\":77:99   */\n      swap1\n      pop\n        /* \"#utility.yul\":7:106   */\n      swap2\n      swap1\n      pop\n      jump\t// out\n        /* \"#utility.yul\":112:281   */\n    tag_20:\n        /* \"#utility.yul\":196:207   */\n      0x00\n        /* \"#utility.yul\":230:236   */\n      dup3\n        /* \"#utility.yul\":225:228   */\n      dup3\n        /* \"#utility.yul\":218:237   */\n      mstore\n        /* \"#utility.yul\":270:274   */\n      0x20\n        /* \"#utility.yul\":265:268   */\n      dup3\n        /* \"#utility.yul\":261:275   */\n      add\n        /* \"#utility.yul\":246:275   */\n      swap1\n      pop\n        /* \"#utility.yul\":112:281   */\n      swap3\n      swap2\n      pop\n      pop\n      jump\t// out\n        /* \"#utility.yul\":287:426   */\n    tag_21:\n        /* \"#utility.yul\":376:382   */\n      dup3\n        /* \"#utility.yul\":371:374   */\n      dup2\n        /* \"#utility.yul\":366:369   */\n      dup4\n        /* \"#utility.yul\":360:383   */\n      mcopy\n        /* \"#utility.yul\":417:418   */\n      0x00\n        /* \"#utility.yul\":408:414   */\n      dup4\n        /* \"#utility.yul\":403:406   */\n      dup4\n        /* \"#utility.yul\":399:415   */\n      add\n        /* \"#utility.yul\":392:419   */\n      mstore\n        /* \"#utility.yul\":287:426   */\n      pop\n      pop\n      pop\n      jump\t// out\n        /* \"#utility.yul\":432:534   */\n    tag_22:\n        /* \"#utility.yul\":473:479   */\n      0x00\n        /* \"#utility.yul\":524:526   */\n      0x1f\n        /* \"#utility.yul\":520:527   */\n      not\n        /* \"#utility.yul\":515:517   */\n      0x1f\n        /* \"#utility.yul\":508:513   */\n      dup4\n        /* \"#utility.yul\":504:518   */\n      add\n        /* \"#utility.yul\":500:528   */\n      and\n        /* \"#utility.yul\":490:528   */\n      swap1\n      pop\n        /* \"#utility.yul\":432:534   */\n      swap2\n      swap1\n      pop\n      jump\t// out\n        /* \"#utility.yul\":540:917   */\n    tag_23:\n        /* \"#utility.yul\":628:631   */\n      0x00\n        /* \"#utility.yul\":656:695   */\n      tag_33\n        /* \"#utility.yul\":689:694   */\n      dup3\n        /* \"#utility.yul\":656:695   */\n      tag_19\n      jump\t// in\n    tag_33:\n        /* \"#utility.yul\":711:782   */\n      tag_34\n        /* \"#utility.yul\":775:781   */\n      dup2\n        /* \"#utility.yul\":770:773   */\n      dup6\n        /* \"#utility.yul\":711:782   */\n      tag_20\n      jump\t// in\n    tag_34:\n        /* \"#utility.yul\":704:782   */\n      swap4\n      pop\n        /* \"#utility.yul\":791:856   */\n      tag_35\n        /* \"#utility.yul\":849:855   */\n      dup2\n        /* \"#utility.yul\":844:847   */\n      dup6\n        /* \"#utility.yul\":837:841   */\n      0x20\n        /* \"#utility.yul\":830:835   */\n      dup7\n        /* \"#utility.yul\":826:842   */\n      add\n        /* \"#utility.yul\":791:856   */\n      tag_21\n      jump\t// in\n    tag_35:\n        /* \"#utility.yul\":881:910   */\n      tag_36\n        /* \"#utility.yul\":903:909   */\n      dup2\n        /* \"#utility.yul\":881:910   */\n      tag_22\n      jump\t// in\n    tag_36:\n        /* \"#utility.yul\":876:879   */\n      dup5\n        /* \"#utility.yul\":872:911   */\n      add\n        /* \"#utility.yul\":865:911   */\n      swap2\n      pop\n        /* \"#utility.yul\":632:917   */\n      pop\n        /* \"#utility.yul\":540:917   */\n      swap3\n      swap2\n      pop\n      pop\n      jump\t// out\n        /* \"#utility.yul\":923:1236   */\n    tag_7:\n        /* \"#utility.yul\":1036:1040   */\n      0x00\n        /* \"#utility.yul\":1074:1076   */\n      0x20\n        /* \"#utility.yul\":1063:1072   */\n      dup3\n        /* \"#utility.yul\":1059:1077   */\n      add\n        /* \"#utility.yul\":1051:1077   */\n      swap1\n      pop\n        /* \"#utility.yul\":1123:1132   */\n      dup2\n        /* \"#utility.yul\":1117:1121   */\n      dup2\n        /* \"#utility.yul\":1113:1133   */\n      sub\n        /* \"#utility.yul\":1109:1110   */\n      0x00\n        /* \"#utility.yul\":1098:1107   */\n      dup4\n        /* \"#utility.yul\":1094:1111   */\n      add\n        /* \"#utility.yul\":1087:1134   */\n      mstore\n        /* \"#utility.yul\":1151:1229   */\n      tag_38\n        /* \"#utility.yul\":1224:1228   */\n      dup2\n        /* \"#utility.yul\":1215:1221   */\n      dup5\n        /* \"#utility.yul\":1151:1229   */\n      tag_23\n      jump\t// in\n    tag_38:\n        /* \"#utility.yul\":1143:1229   */\n      swap1\n      pop\n        /* \"#utility.yul\":923:1236   */\n      swap3\n      swap2\n      pop\n      pop\n      jump\t// out\n        /* \"#utility.yul\":1242:1405   */\n    tag_24:\n        /* \"#utility.yul\":1382:1397   */\n      0x6d757374206265206f6e77657200000000000000000000000000000000000000\n        /* \"#utility.yul\":1378:1379   */\n      0x00\n        /* \"#utility.yul\":1370:1376   */\n      dup3\n        /* \"#utility.yul\":1366:1380   */\n      add\n        /* \"#utility.yul\":1359:1398   */\n      mstore\n        /* \"#utility.yul\":1242:1405   */\n      pop\n      jump\t// out\n        /* \"#utility.yul\":1411:1777   */\n    tag_25:\n        /* \"#utility.yul\":1553:1556   */\n      0x00\n        /* \"#utility.yul\":1574:1641   */\n      tag_41\n        /* \"#utility.yul\":1638:1640   */\n      0x0d\n        /* \"#utility.yul\":1633:1636   */\n      dup4\n        /* \"#utility.yul\":1574:1641   */\n      tag_20\n      jump\t// in\n    tag_41:\n        /* \"#utility.yul\":1567:1641   */\n      swap2\n      pop\n        /* \"#utility.yul\":1650:1743   */\n      tag_42\n        /* \"#utility.yul\":1739:1742   */\n      dup3\n        /* \"#utility.yul\":1650:1743   */\n      tag_24\n      jump\t// in\n    tag_42:\n        /* \"#utility.yul\":1768:1770   */\n      0x20\n        /* \"#utility.yul\":1763:1766   */\n      dup3\n        /* \"#utility.yul\":1759:1771   */\n      add\n        /* \"#utility.yul\":1752:1771   */\n      swap1\n      pop\n        /* \"#utility.yul\":1411:1777   */\n      swap2\n      swap1\n      pop\n      jump\t// out\n        /* \"#utility.yul\":1783:2202   */\n    tag_11:\n        /* \"#utility.yul\":1949:1953   */\n      0x00\n        /* \"#utility.yul\":1987:1989   */\n      0x20\n        /* \"#utility.yul\":1976:1985   */\n      dup3\n        /* \"#utility.yul\":1972:1990   */\n      add\n        /* \"#utility.yul\":1964:1990   */\n      swap1\n      pop\n        /* \"#utility.yul\":2036:2045   */\n      dup2\n        /* \"#utility.yul\":2030:2034   */\n      dup2\n        /* \"#utility.yul\":2026:2046   */\n      sub\n        /* \"#utility.yul\":2022:2023   */\n      0x00\n        /* \"#utility.yul\":2011:2020   */\n      dup4\n        /* \"#utility.yul\":2007:2024   */\n      add\n        /* \"#utility.yul\":2000:2047   */\n      mstore\n        /* \"#utility.yul\":2064:2195   */\n      tag_44\n        /* \"#utility.yul\":2190:2194   */\n      dup2\n        /* \"#utility.yul\":2064:2195   */\n      tag_25\n      jump\t// in\n    tag_44:\n        /* \"#utility.yul\":2056:2195   */\n      swap1\n      pop\n        /* \"#utility.yul\":1783:2202   */\n      swap2\n      swap1\n      pop\n      jump\t// out\n        /* \"#utility.yul\":2208:2388   */\n    tag_26:\n        /* \"#utility.yul\":2256:2333   */\n      0x4e487b7100000000000000000000000000000000000000000000000000000000\n        /* \"#utility.yul\":2253:2254   */\n      0x00\n        /* \"#utility.yul\":2246:2334   */\n      mstore\n        /* \"#utility.yul\":2353:2357   */\n      0x22\n        /* \"#utility.yul\":2350:2351   */\n      0x04\n        /* \"#utility.yul\":2343:2358   */\n      mstore\n        /* \"#utility.yul\":2377:2381   */\n      0x24\n        /* \"#utility.yul\":2374:2375   */\n      0x00\n        /* \"#utility.yul\":2367:2382   */\n      revert\n        /* \"#utility.yul\":2394:2714   */\n    tag_14:\n        /* \"#utility.yul\":2438:2444   */\n      0x00\n        /* \"#utility.yul\":2475:2476   */\n      0x02\n        /* \"#utility.yul\":2469:2473   */\n      dup3\n        /* \"#utility.yul\":2465:2477   */\n      div\n        /* \"#utility.yul\":2455:2477   */\n      swap1\n      pop\n        /* \"#utility.yul\":2522:2523   */\n      0x01\n        /* \"#utility.yul\":2516:2520   */\n      dup3\n        /* \"#utility.yul\":2512:2524   */\n      and\n        /* \"#utility.yul\":2543:2561   */\n      dup1\n        /* \"#utility.yul\":2533:2614   */\n      tag_47\n      jumpi\n        /* \"#utility.yul\":2599:2603   */\n      0x7f\n        /* \"#utility.yul\":2591:2597   */\n      dup3\n        /* \"#utility.yul\":2587:2604   */\n      and\n        /* \"#utility.yul\":2577:2604   */\n      swap2\n      pop\n        /* \"#utility.yul\":2533:2614   */\n    tag_47:\n        /* \"#utility.yul\":2661:2663   */\n      0x20\n        /* \"#utility.yul\":2653:2659   */\n      dup3\n        /* \"#utility.yul\":2650:2664   */\n      lt\n        /* \"#utility.yul\":2630:2648   */\n      dup2\n        /* \"#utility.yul\":2627:2665   */\n      sub\n        /* \"#utility.yul\":2624:2708   */\n      tag_48\n      jumpi\n        /* \"#utility.yul\":2680:2698   */\n      tag_49\n      tag_26\n      jump\t// in\n    tag_49:\n        /* \"#utility.yul\":2624:2708   */\n    tag_48:\n        /* \"#utility.yul\":2445:2714   */\n      pop\n        /* \"#utility.yul\":2394:2714   */\n      swap2\n      swap1\n      pop\n      jump\t// out\n\n    auxdata: 0xa2646970667358221220819915a24ec03fb20d401e6cd1d78f6be88cb54a13239b05080a5c953b1bacd364736f6c634300081a0033\n}\n\nsub_1: assembly {\n        /* \"SolidityFromYT/05_MySecret.sol\":260:476  contract SecretVault {... */\n      mstore(0x40, 0x80)\n        /* \"SolidityFromYT/05_MySecret.sol\":310:378  constructor(string memory _secret) {... */\n      callvalue\n      dup1\n      iszero\n      tag_1\n      jumpi\n      0x00\n      dup1\n      revert\n    tag_1:\n      pop\n      mload(0x40)\n      sub(codesize, bytecodeSize)\n      dup1\n      bytecodeSize\n      dup4\n      codecopy\n      dup2\n      dup2\n      add\n      0x40\n      mstore\n      dup2\n      add\n      swap1\n      tag_2\n      swap2\n      swap1\n      tag_3\n      jump\t// in\n    tag_2:\n        /* \"SolidityFromYT/05_MySecret.sol\":363:370  _secret */\n      dup1\n        /* \"SolidityFromYT/05_MySecret.sol\":356:362  secret */\n      0x00\n        /* \"SolidityFromYT/05_MySecret.sol\":356:370  secret=_secret */\n      swap1\n      dup2\n      tag_6\n      swap2\n      swap1\n      tag_7\n      jump\t// in\n    tag_6:\n      pop\n        /* \"SolidityFromYT/05_MySecret.sol\":310:378  constructor(string memory _secret) {... */\n      pop\n        /* \"SolidityFromYT/05_MySecret.sol\":260:476  contract SecretVault {... */\n      jump(tag_8)\n        /* \"#utility.yul\":7:82   */\n    tag_9:\n        /* \"#utility.yul\":40:46   */\n      0x00\n        /* \"#utility.yul\":73:75   */\n      0x40\n        /* \"#utility.yul\":67:76   */\n      mload\n        /* \"#utility.yul\":57:76   */\n      swap1\n      pop\n        /* \"#utility.yul\":7:82   */\n      swap1\n      jump\t// out\n        /* \"#utility.yul\":88:205   */\n    tag_10:\n        /* \"#utility.yul\":197:198   */\n      0x00\n        /* \"#utility.yul\":194:195   */\n      dup1\n        /* \"#utility.yul\":187:199   */\n      revert\n        /* \"#utility.yul\":211:328   */\n    tag_11:\n        /* \"#utility.yul\":320:321   */\n      0x00\n        /* \"#utility.yul\":317:318   */\n      dup1\n        /* \"#utility.yul\":310:322   */\n      revert\n        /* \"#utility.yul\":334:451   */\n    tag_12:\n        /* \"#utility.yul\":443:444   */\n      0x00\n        /* \"#utility.yul\":440:441   */\n      dup1\n        /* \"#utility.yul\":433:445   */\n      revert\n        /* \"#utility.yul\":457:574   */\n    tag_13:\n        /* \"#utility.yul\":566:567   */\n      0x00\n        /* \"#utility.yul\":563:564   */\n      dup1\n        /* \"#utility.yul\":556:568   */\n      revert\n        /* \"#utility.yul\":580:682   */\n    tag_14:\n        /* \"#utility.yul\":621:627   */\n      0x00\n        /* \"#utility.yul\":672:674   */\n      0x1f\n        /* \"#utility.yul\":668:675   */\n      not\n        /* \"#utility.yul\":663:665   */\n      0x1f\n        /* \"#utility.yul\":656:661   */\n      dup4\n        /* \"#utility.yul\":652:666   */\n      add\n        /* \"#utility.yul\":648:676   */\n      and\n        /* \"#utility.yul\":638:676   */\n      swap1\n      pop\n        /* \"#utility.yul\":580:682   */\n      swap2\n      swap1\n      pop\n      jump\t// out\n        /* \"#utility.yul\":688:868   */\n    tag_15:\n        /* \"#utility.yul\":736:813   */\n      0x4e487b7100000000000000000000000000000000000000000000000000000000\n        /* \"#utility.yul\":733:734   */\n      0x00\n        /* \"#utility.yul\":726:814   */\n      mstore\n        /* \"#utility.yul\":833:837   */\n      0x41\n        /* \"#utility.yul\":830:831   */\n      0x04\n        /* \"#utility.yul\":823:838   */\n      mstore\n        /* \"#utility.yul\":857:861   */\n      0x24\n        /* \"#utility.yul\":854:855   */\n      0x00\n        /* \"#utility.yul\":847:862   */\n      revert\n        /* \"#utility.yul\":874:1155   */\n    tag_16:\n        /* \"#utility.yul\":957:984   */\n      tag_50\n        /* \"#utility.yul\":979:983   */\n      dup3\n        /* \"#utility.yul\":957:984   */\n      tag_14\n      jump\t// in\n    tag_50:\n        /* \"#utility.yul\":949:955   */\n      dup2\n        /* \"#utility.yul\":945:985   */\n      add\n        /* \"#utility.yul\":1087:1093   */\n      dup2\n        /* \"#utility.yul\":1075:1085   */\n      dup2\n        /* \"#utility.yul\":1072:1094   */\n      lt\n        /* \"#utility.yul\":1051:1069   */\n      0xffffffffffffffff\n        /* \"#utility.yul\":1039:1049   */\n      dup3\n        /* \"#utility.yul\":1036:1070   */\n      gt\n        /* \"#utility.yul\":1033:1095   */\n      or\n        /* \"#utility.yul\":1030:1118   */\n      iszero\n      tag_51\n      jumpi\n        /* \"#utility.yul\":1098:1116   */\n      tag_52\n      tag_15\n      jump\t// in\n    tag_52:\n        /* \"#utility.yul\":1030:1118   */\n    tag_51:\n        /* \"#utility.yul\":1138:1148   */\n      dup1\n        /* \"#utility.yul\":1134:1136   */\n      0x40\n        /* \"#utility.yul\":1127:1149   */\n      mstore\n        /* \"#utility.yul\":917:1155   */\n      pop\n        /* \"#utility.yul\":874:1155   */\n      pop\n      pop\n      jump\t// out\n        /* \"#utility.yul\":1161:1290   */\n    tag_17:\n        /* \"#utility.yul\":1195:1201   */\n      0x00\n        /* \"#utility.yul\":1222:1242   */\n      tag_54\n      tag_9\n      jump\t// in\n    tag_54:\n        /* \"#utility.yul\":1212:1242   */\n      swap1\n      pop\n        /* \"#utility.yul\":1251:1284   */\n      tag_55\n        /* \"#utility.yul\":1279:1283   */\n      dup3\n        /* \"#utility.yul\":1271:1277   */\n      dup3\n        /* \"#utility.yul\":1251:1284   */\n      tag_16\n      jump\t// in\n    tag_55:\n        /* \"#utility.yul\":1161:1290   */\n      swap2\n      swap1\n      pop\n      jump\t// out\n        /* \"#utility.yul\":1296:1604   */\n    tag_18:\n        /* \"#utility.yul\":1358:1362   */\n      0x00\n        /* \"#utility.yul\":1448:1466   */\n      0xffffffffffffffff\n        /* \"#utility.yul\":1440:1446   */\n      dup3\n        /* \"#utility.yul\":1437:1467   */\n      gt\n        /* \"#utility.yul\":1434:1490   */\n      iszero\n      tag_57\n      jumpi\n        /* \"#utility.yul\":1470:1488   */\n      tag_58\n      tag_15\n      jump\t// in\n    tag_58:\n        /* \"#utility.yul\":1434:1490   */\n    tag_57:\n        /* \"#utility.yul\":1508:1537   */\n      tag_59\n        /* \"#utility.yul\":1530:1536   */\n      dup3\n        /* \"#utility.yul\":1508:1537   */\n      tag_14\n      jump\t// in\n    tag_59:\n        /* \"#utility.yul\":1500:1537   */\n      swap1\n      pop\n        /* \"#utility.yul\":1592:1596   */\n      0x20\n        /* \"#utility.yul\":1586:1590   */\n      dup2\n        /* \"#utility.yul\":1582:1597   */\n      add\n        /* \"#utility.yul\":1574:1597   */\n      swap1\n      pop\n        /* \"#utility.yul\":1296:1604   */\n      swap2\n      swap1\n      pop\n      jump\t// out\n        /* \"#utility.yul\":1610:1749   */\n    tag_19:\n        /* \"#utility.yul\":1699:1705   */\n      dup3\n        /* \"#utility.yul\":1694:1697   */\n      dup2\n        /* \"#utility.yul\":1689:1692   */\n      dup4\n        /* \"#utility.yul\":1683:1706   */\n      mcopy\n        /* \"#utility.yul\":1740:1741   */\n      0x00\n        /* \"#utility.yul\":1731:1737   */\n      dup4\n        /* \"#utility.yul\":1726:1729   */\n      dup4\n        /* \"#utility.yul\":1722:1738   */\n      add\n        /* \"#utility.yul\":1715:1742   */\n      mstore\n        /* \"#utility.yul\":1610:1749   */\n      pop\n      pop\n      pop\n      jump\t// out\n        /* \"#utility.yul\":1755:2189   */\n    tag_20:\n        /* \"#utility.yul\":1844:1849   */\n      0x00\n        /* \"#utility.yul\":1869:1935   */\n      tag_62\n        /* \"#utility.yul\":1885:1934   */\n      tag_63\n        /* \"#utility.yul\":1927:1933   */\n      dup5\n        /* \"#utility.yul\":1885:1934   */\n      tag_18\n      jump\t// in\n    tag_63:\n        /* \"#utility.yul\":1869:1935   */\n      tag_17\n      jump\t// in\n    tag_62:\n        /* \"#utility.yul\":1860:1935   */\n      swap1\n      pop\n        /* \"#utility.yul\":1958:1964   */\n      dup3\n        /* \"#utility.yul\":1951:1956   */\n      dup2\n        /* \"#utility.yul\":1944:1965   */\n      mstore\n        /* \"#utility.yul\":1996:2000   */\n      0x20\n        /* \"#utility.yul\":1989:1994   */\n      dup2\n        /* \"#utility.yul\":1985:2001   */\n      add\n        /* \"#utility.yul\":2034:2037   */\n      dup5\n        /* \"#utility.yul\":2025:2031   */\n      dup5\n        /* \"#utility.yul\":2020:2023   */\n      dup5\n        /* \"#utility.yul\":2016:2032   */\n      add\n        /* \"#utility.yul\":2013:2038   */\n      gt\n        /* \"#utility.yul\":2010:2122   */\n      iszero\n      tag_64\n      jumpi\n        /* \"#utility.yul\":2041:2120   */\n      tag_65\n      tag_13\n      jump\t// in\n    tag_65:\n        /* \"#utility.yul\":2010:2122   */\n    tag_64:\n        /* \"#utility.yul\":2131:2183   */\n      tag_66\n        /* \"#utility.yul\":2176:2182   */\n      dup5\n        /* \"#utility.yul\":2171:2174   */\n      dup3\n        /* \"#utility.yul\":2166:2169   */\n      dup6\n        /* \"#utility.yul\":2131:2183   */\n      tag_19\n      jump\t// in\n    tag_66:\n        /* \"#utility.yul\":1850:2189   */\n      pop\n        /* \"#utility.yul\":1755:2189   */\n      swap4\n      swap3\n      pop\n      pop\n      pop\n      jump\t// out\n        /* \"#utility.yul\":2209:2564   */\n    tag_21:\n        /* \"#utility.yul\":2276:2281   */\n      0x00\n        /* \"#utility.yul\":2325:2328   */\n      dup3\n        /* \"#utility.yul\":2318:2322   */\n      0x1f\n        /* \"#utility.yul\":2310:2316   */\n      dup4\n        /* \"#utility.yul\":2306:2323   */\n      add\n        /* \"#utility.yul\":2302:2329   */\n      slt\n        /* \"#utility.yul\":2292:2414   */\n      tag_68\n      jumpi\n        /* \"#utility.yul\":2333:2412   */\n      tag_69\n      tag_12\n      jump\t// in\n    tag_69:\n        /* \"#utility.yul\":2292:2414   */\n    tag_68:\n        /* \"#utility.yul\":2443:2449   */\n      dup2\n        /* \"#utility.yul\":2437:2450   */\n      mload\n        /* \"#utility.yul\":2468:2558   */\n      tag_70\n        /* \"#utility.yul\":2554:2557   */\n      dup5\n        /* \"#utility.yul\":2546:2552   */\n      dup3\n        /* \"#utility.yul\":2539:2543   */\n      0x20\n        /* \"#utility.yul\":2531:2537   */\n      dup7\n        /* \"#utility.yul\":2527:2544   */\n      add\n        /* \"#utility.yul\":2468:2558   */\n      tag_20\n      jump\t// in\n    tag_70:\n        /* \"#utility.yul\":2459:2558   */\n      swap2\n      pop\n        /* \"#utility.yul\":2282:2564   */\n      pop\n        /* \"#utility.yul\":2209:2564   */\n      swap3\n      swap2\n      pop\n      pop\n      jump\t// out\n        /* \"#utility.yul\":2570:3094   */\n    tag_3:\n        /* \"#utility.yul\":2650:2656   */\n      0x00\n        /* \"#utility.yul\":2699:2701   */\n      0x20\n        /* \"#utility.yul\":2687:2696   */\n      dup3\n        /* \"#utility.yul\":2678:2685   */\n      dup5\n        /* \"#utility.yul\":2674:2697   */\n      sub\n        /* \"#utility.yul\":2670:2702   */\n      slt\n        /* \"#utility.yul\":2667:2786   */\n      iszero\n      tag_72\n      jumpi\n        /* \"#utility.yul\":2705:2784   */\n      tag_73\n      tag_10\n      jump\t// in\n    tag_73:\n        /* \"#utility.yul\":2667:2786   */\n    tag_72:\n        /* \"#utility.yul\":2846:2847   */\n      0x00\n        /* \"#utility.yul\":2835:2844   */\n      dup3\n        /* \"#utility.yul\":2831:2848   */\n      add\n        /* \"#utility.yul\":2825:2849   */\n      mload\n        /* \"#utility.yul\":2876:2894   */\n      0xffffffffffffffff\n        /* \"#utility.yul\":2868:2874   */\n      dup2\n        /* \"#utility.yul\":2865:2895   */\n      gt\n        /* \"#utility.yul\":2862:2979   */\n      iszero\n      tag_74\n      jumpi\n        /* \"#utility.yul\":2898:2977   */\n      tag_75\n      tag_11\n      jump\t// in\n    tag_75:\n        /* \"#utility.yul\":2862:2979   */\n    tag_74:\n        /* \"#utility.yul\":3003:3077   */\n      tag_76\n        /* \"#utility.yul\":3069:3076   */\n      dup5\n        /* \"#utility.yul\":3060:3066   */\n      dup3\n        /* \"#utility.yul\":3049:3058   */\n      dup6\n        /* \"#utility.yul\":3045:3067   */\n      add\n        /* \"#utility.yul\":3003:3077   */\n      tag_21\n      jump\t// in\n    tag_76:\n        /* \"#utility.yul\":2993:3077   */\n      swap2\n      pop\n        /* \"#utility.yul\":2796:3087   */\n      pop\n        /* \"#utility.yul\":2570:3094   */\n      swap3\n      swap2\n      pop\n      pop\n      jump\t// out\n        /* \"#utility.yul\":3100:3199   */\n    tag_22:\n        /* \"#utility.yul\":3152:3158   */\n      0x00\n        /* \"#utility.yul\":3186:3191   */\n      dup2\n        /* \"#utility.yul\":3180:3192   */\n      mload\n        /* \"#utility.yul\":3170:3192   */\n      swap1\n      pop\n        /* \"#utility.yul\":3100:3199   */\n      swap2\n      swap1\n      pop\n      jump\t// out\n        /* \"#utility.yul\":3205:3385   */\n    tag_23:\n        /* \"#utility.yul\":3253:3330   */\n      0x4e487b7100000000000000000000000000000000000000000000000000000000\n        /* \"#utility.yul\":3250:3251   */\n      0x00\n        /* \"#utility.yul\":3243:3331   */\n      mstore\n        /* \"#utility.yul\":3350:3354   */\n      0x22\n        /* \"#utility.yul\":3347:3348   */\n      0x04\n        /* \"#utility.yul\":3340:3355   */\n      mstore\n        /* \"#utility.yul\":3374:3378   */\n      0x24\n        /* \"#utility.yul\":3371:3372   */\n      0x00\n        /* \"#utility.yul\":3364:3379   */\n      revert\n        /* \"#utility.yul\":3391:3711   */\n    tag_24:\n        /* \"#utility.yul\":3435:3441   */\n      0x00\n        /* \"#utility.yul\":3472:3473   */\n      0x02\n        /* \"#utility.yul\":3466:3470   */\n      dup3\n        /* \"#utility.yul\":3462:3474   */\n      div\n        /* \"#utility.yul\":3452:3474   */\n      swap1\n      pop\n        /* \"#utility.yul\":3519:3520   */\n      0x01\n        /* \"#utility.yul\":3513:3517   */\n      dup3\n        /* \"#utility.yul\":3509:3521   */\n      and\n        /* \"#utility.yul\":3540:3558   */\n      dup1\n        /* \"#utility.yul\":3530:3611   */\n      tag_80\n      jumpi\n        /* \"#utility.yul\":3596:3600   */\n      0x7f\n        /* \"#utility.yul\":3588:3594   */\n      dup3\n        /* \"#utility.yul\":3584:3601   */\n      and\n        /* \"#utility.yul\":3574:3601   */\n      swap2\n      pop\n        /* \"#utility.yul\":3530:3611   */\n    tag_80:\n        /* \"#utility.yul\":3658:3660   */\n      0x20\n        /* \"#utility.yul\":3650:3656   */\n      dup3\n        /* \"#utility.yul\":3647:3661   */\n      lt\n        /* \"#utility.yul\":3627:3645   */\n      dup2\n        /* \"#utility.yul\":3624:3662   */\n      sub\n        /* \"#utility.yul\":3621:3705   */\n      tag_81\n      jumpi\n        /* \"#utility.yul\":3677:3695   */\n      tag_82\n      tag_23\n      jump\t// in\n    tag_82:\n        /* \"#utility.yul\":3621:3705   */\n    tag_81:\n        /* \"#utility.yul\":3442:3711   */\n      pop\n        /* \"#utility.yul\":3391:3711   */\n      swap2\n      swap1\n      pop\n      jump\t// out\n        /* \"#utility.yul\":3717:3858   */\n    tag_25:\n        /* \"#utility.yul\":3766:3770   */\n      0x00\n        /* \"#utility.yul\":3789:3792   */\n      dup2\n        /* \"#utility.yul\":3781:3792   */\n      swap1\n      pop\n        /* \"#utility.yul\":3812:3815   */\n      dup2\n        /* \"#utility.yul\":3809:3810   */\n      0x00\n        /* \"#utility.yul\":3802:3816   */\n      mstore\n        /* \"#utility.yul\":3846:3850   */\n      0x20\n        /* \"#utility.yul\":3843:3844   */\n      0x00\n        /* \"#utility.yul\":3833:3851   */\n      keccak256\n        /* \"#utility.yul\":3825:3851   */\n      swap1\n      pop\n        /* \"#utility.yul\":3717:3858   */\n      swap2\n      swap1\n      pop\n      jump\t// out\n        /* \"#utility.yul\":3864:3957   */\n    tag_26:\n        /* \"#utility.yul\":3901:3907   */\n      0x00\n        /* \"#utility.yul\":3948:3950   */\n      0x20\n        /* \"#utility.yul\":3943:3945   */\n      0x1f\n        /* \"#utility.yul\":3936:3941   */\n      dup4\n        /* \"#utility.yul\":3932:3946   */\n      add\n        /* \"#utility.yul\":3928:3951   */\n      div\n        /* \"#utility.yul\":3918:3951   */\n      swap1\n      pop\n        /* \"#utility.yul\":3864:3957   */\n      swap2\n      swap1\n      pop\n      jump\t// out\n        /* \"#utility.yul\":3963:4070   */\n    tag_27:\n        /* \"#utility.yul\":4007:4015   */\n      0x00\n        /* \"#utility.yul\":4057:4062   */\n      dup3\n        /* \"#utility.yul\":4051:4055   */\n      dup3\n        /* \"#utility.yul\":4047:4063   */\n      shl\n        /* \"#utility.yul\":4026:4063   */\n      swap1\n      pop\n        /* \"#utility.yul\":3963:4070   */\n      swap3\n      swap2\n      pop\n      pop\n      jump\t// out\n        /* \"#utility.yul\":4076:4469   */\n    tag_28:\n        /* \"#utility.yul\":4145:4151   */\n      0x00\n        /* \"#utility.yul\":4195:4196   */\n      0x08\n        /* \"#utility.yul\":4183:4193   */\n      dup4\n        /* \"#utility.yul\":4179:4197   */\n      mul\n        /* \"#utility.yul\":4218:4315   */\n      tag_87\n        /* \"#utility.yul\":4248:4314   */\n      0xffffffffffffffffffffffffffffffffffffffffffffffffffffffffffffffff\n        /* \"#utility.yul\":4237:4246   */\n      dup3\n        /* \"#utility.yul\":4218:4315   */\n      tag_27\n      jump\t// in\n    tag_87:\n        /* \"#utility.yul\":4336:4375   */\n      tag_88\n        /* \"#utility.yul\":4366:4374   */\n      dup7\n        /* \"#utility.yul\":4355:4364   */\n      dup4\n        /* \"#utility.yul\":4336:4375   */\n      tag_27\n      jump\t// in\n    tag_88:\n        /* \"#utility.yul\":4324:4375   */\n      swap6\n      pop\n        /* \"#utility.yul\":4408:4412   */\n      dup1\n        /* \"#utility.yul\":4404:4413   */\n      not\n        /* \"#utility.yul\":4397:4402   */\n      dup5\n        /* \"#utility.yul\":4393:4414   */\n      and\n        /* \"#utility.yul\":4384:4414   */\n      swap4\n      pop\n        /* \"#utility.yul\":4457:4461   */\n      dup1\n        /* \"#utility.yul\":4447:4455   */\n      dup7\n        /* \"#utility.yul\":4443:4462   */\n      and\n        /* \"#utility.yul\":4436:4441   */\n      dup5\n        /* \"#utility.yul\":4433:4463   */\n      or\n        /* \"#utility.yul\":4423:4463   */\n      swap3\n      pop\n        /* \"#utility.yul\":4152:4469   */\n      pop\n      pop\n        /* \"#utility.yul\":4076:4469   */\n      swap4\n      swap3\n      pop\n      pop\n      pop\n      jump\t// out\n        /* \"#utility.yul\":4475:4552   */\n    tag_29:\n        /* \"#utility.yul\":4512:4519   */\n      0x00\n        /* \"#utility.yul\":4541:4546   */\n      dup2\n        /* \"#utility.yul\":4530:4546   */\n      swap1\n      pop\n        /* \"#utility.yul\":4475:4552   */\n      swap2\n      swap1\n      pop\n      jump\t// out\n        /* \"#utility.yul\":4558:4618   */\n    tag_30:\n        /* \"#utility.yul\":4586:4589   */\n      0x00\n        /* \"#utility.yul\":4607:4612   */\n      dup2\n        /* \"#utility.yul\":4600:4612   */\n      swap1\n      pop\n        /* \"#utility.yul\":4558:4618   */\n      swap2\n      swap1\n      pop\n      jump\t// out\n        /* \"#utility.yul\":4624:4766   */\n    tag_31:\n        /* \"#utility.yul\":4674:4683   */\n      0x00\n        /* \"#utility.yul\":4707:4760   */\n      tag_92\n        /* \"#utility.yul\":4725:4759   */\n      tag_93\n        /* \"#utility.yul\":4734:4758   */\n      tag_94\n        /* \"#utility.yul\":4752:4757   */\n      dup5\n        /* \"#utility.yul\":4734:4758   */\n      tag_29\n      jump\t// in\n    tag_94:\n        /* \"#utility.yul\":4725:4759   */\n      tag_30\n      jump\t// in\n    tag_93:\n        /* \"#utility.yul\":4707:4760   */\n      tag_29\n      jump\t// in\n    tag_92:\n        /* \"#utility.yul\":4694:4760   */\n      swap1\n      pop\n        /* \"#utility.yul\":4624:4766   */\n      swap2\n      swap1\n      pop\n      jump\t// out\n        /* \"#utility.yul\":4772:4847   */\n    tag_32:\n        /* \"#utility.yul\":4815:4818   */\n      0x00\n        /* \"#utility.yul\":4836:4841   */\n      dup2\n        /* \"#utility.yul\":4829:4841   */\n      swap1\n      pop\n        /* \"#utility.yul\":4772:4847   */\n      swap2\n      swap1\n      pop\n      jump\t// out\n        /* \"#utility.yul\":4853:5122   */\n    tag_33:\n        /* \"#utility.yul\":4963:5002   */\n      tag_97\n        /* \"#utility.yul\":4994:5001   */\n      dup4\n        /* \"#utility.yul\":4963:5002   */\n      tag_31\n      jump\t// in\n    tag_97:\n        /* \"#utility.yul\":5024:5115   */\n      tag_98\n        /* \"#utility.yul\":5073:5114   */\n      tag_99\n        /* \"#utility.yul\":5097:5113   */\n      dup3\n        /* \"#utility.yul\":5073:5114   */\n      tag_32\n      jump\t// in\n    tag_99:\n        /* \"#utility.yul\":5065:5071   */\n      dup5\n        /* \"#utility.yul\":5058:5062   */\n      dup5\n        /* \"#utility.yul\":5052:5063   */\n      sload\n        /* \"#utility.yul\":5024:5115   */\n      tag_28\n      jump\t// in\n    tag_98:\n        /* \"#utility.yul\":5018:5022   */\n      dup3\n        /* \"#utility.yul\":5011:5116   */\n      sstore\n        /* \"#utility.yul\":4929:5122   */\n      pop\n        /* \"#utility.yul\":4853:5122   */\n      pop\n      pop\n      pop\n      jump\t// out\n        /* \"#utility.yul\":5128:5201   */\n    tag_34:\n        /* \"#utility.yul\":5173:5176   */\n      0x00\n        /* \"#utility.yul\":5128:5201   */\n      swap1\n      jump\t// out\n        /* \"#utility.yul\":5207:5396   */\n    tag_35:\n        /* \"#utility.yul\":5284:5316   */\n      tag_102\n      tag_34\n      jump\t// in\n    tag_102:\n        /* \"#utility.yul\":5325:5390   */\n      tag_103\n        /* \"#utility.yul\":5383:5389   */\n      dup2\n        /* \"#utility.yul\":5375:5381   */\n      dup5\n        /* \"#utility.yul\":5369:5373   */\n      dup5\n        /* \"#utility.yul\":5325:5390   */\n      tag_33\n      jump\t// in\n    tag_103:\n        /* \"#utility.yul\":5260:5396   */\n      pop\n        /* \"#utility.yul\":5207:5396   */\n      pop\n      pop\n      jump\t// out\n        /* \"#utility.yul\":5402:5588   */\n    tag_36:\n        /* \"#utility.yul\":5462:5582   */\n    tag_105:\n        /* \"#utility.yul\":5479:5482   */\n      dup2\n        /* \"#utility.yul\":5472:5477   */\n      dup2\n        /* \"#utility.yul\":5469:5483   */\n      lt\n        /* \"#utility.yul\":5462:5582   */\n      iszero\n      tag_107\n      jumpi\n        /* \"#utility.yul\":5533:5572   */\n      tag_108\n        /* \"#utility.yul\":5570:5571   */\n      0x00\n        /* \"#utility.yul\":5563:5568   */\n      dup3\n        /* \"#utility.yul\":5533:5572   */\n      tag_35\n      jump\t// in\n    tag_108:\n        /* \"#utility.yul\":5506:5507   */\n      0x01\n        /* \"#utility.yul\":5499:5504   */\n      dup2\n        /* \"#utility.yul\":5495:5508   */\n      add\n        /* \"#utility.yul\":5486:5508   */\n      swap1\n      pop\n        /* \"#utility.yul\":5462:5582   */\n      jump(tag_105)\n    tag_107:\n        /* \"#utility.yul\":5402:5588   */\n      pop\n      pop\n      jump\t// out\n        /* \"#utility.yul\":5594:6137   */\n    tag_37:\n        /* \"#utility.yul\":5695:5697   */\n      0x1f\n        /* \"#utility.yul\":5690:5693   */\n      dup3\n        /* \"#utility.yul\":5687:5698   */\n      gt\n        /* \"#utility.yul\":5684:6130   */\n      iszero\n      tag_110\n      jumpi\n        /* \"#utility.yul\":5729:5767   */\n      tag_111\n        /* \"#utility.yul\":5761:5766   */\n      dup2\n        /* \"#utility.yul\":5729:5767   */\n      tag_25\n      jump\t// in\n    tag_111:\n        /* \"#utility.yul\":5813:5842   */\n      tag_112\n        /* \"#utility.yul\":5831:5841   */\n      dup5\n        /* \"#utility.yul\":5813:5842   */\n      tag_26\n      jump\t// in\n    tag_112:\n        /* \"#utility.yul\":5803:5811   */\n      dup2\n        /* \"#utility.yul\":5799:5843   */\n      add\n        /* \"#utility.yul\":5996:5998   */\n      0x20\n        /* \"#utility.yul\":5984:5994   */\n      dup6\n        /* \"#utility.yul\":5981:5999   */\n      lt\n        /* \"#utility.yul\":5978:6027   */\n      iszero\n      tag_113\n      jumpi\n        /* \"#utility.yul\":6017:6025   */\n      dup2\n        /* \"#utility.yul\":6002:6025   */\n      swap1\n      pop\n        /* \"#utility.yul\":5978:6027   */\n    tag_113:\n        /* \"#utility.yul\":6040:6120   */\n      tag_114\n        /* \"#utility.yul\":6096:6118   */\n      tag_115\n        /* \"#utility.yul\":6114:6117   */\n      dup6\n        /* \"#utility.yul\":6096:6118   */\n      tag_26\n      jump\t// in\n    tag_115:\n        /* \"#utility.yul\":6086:6094   */\n      dup4\n        /* \"#utility.yul\":6082:6119   */\n      add\n        /* \"#utility.yul\":6069:6080   */\n      dup3\n        /* \"#utility.yul\":6040:6120   */\n      tag_36\n      jump\t// in\n    tag_114:\n        /* \"#utility.yul\":5699:6130   */\n      pop\n      pop\n        /* \"#utility.yul\":5684:6130   */\n    tag_110:\n        /* \"#utility.yul\":5594:6137   */\n      pop\n      pop\n      pop\n      jump\t// out\n        /* \"#utility.yul\":6143:6260   */\n    tag_38:\n        /* \"#utility.yul\":6197:6205   */\n      0x00\n        /* \"#utility.yul\":6247:6252   */\n      dup3\n        /* \"#utility.yul\":6241:6245   */\n      dup3\n        /* \"#utility.yul\":6237:6253   */\n      shr\n        /* \"#utility.yul\":6216:6253   */\n      swap1\n      pop\n        /* \"#utility.yul\":6143:6260   */\n      swap3\n      swap2\n      pop\n      pop\n      jump\t// out\n        /* \"#utility.yul\":6266:6435   */\n    tag_39:\n        /* \"#utility.yul\":6310:6316   */\n      0x00\n        /* \"#utility.yul\":6343:6394   */\n      tag_118\n        /* \"#utility.yul\":6391:6392   */\n      0x00\n        /* \"#utility.yul\":6387:6393   */\n      not\n        /* \"#utility.yul\":6379:6384   */\n      dup5\n        /* \"#utility.yul\":6376:6377   */\n      0x08\n        /* \"#utility.yul\":6372:6385   */\n      mul\n        /* \"#utility.yul\":6343:6394   */\n      tag_38\n      jump\t// in\n    tag_118:\n        /* \"#utility.yul\":6339:6395   */\n      not\n        /* \"#utility.yul\":6424:6428   */\n      dup1\n        /* \"#utility.yul\":6418:6422   */\n      dup4\n        /* \"#utility.yul\":6414:6429   */\n      and\n        /* \"#utility.yul\":6404:6429   */\n      swap2\n      pop\n        /* \"#utility.yul\":6317:6435   */\n      pop\n        /* \"#utility.yul\":6266:6435   */\n      swap3\n      swap2\n      pop\n      pop\n      jump\t// out\n        /* \"#utility.yul\":6440:6735   */\n    tag_40:\n        /* \"#utility.yul\":6516:6520   */\n      0x00\n        /* \"#utility.yul\":6662:6691   */\n      tag_120\n        /* \"#utility.yul\":6687:6690   */\n      dup4\n        /* \"#utility.yul\":6681:6685   */\n      dup4\n        /* \"#utility.yul\":6662:6691   */\n      tag_39\n      jump\t// in\n    tag_120:\n        /* \"#utility.yul\":6654:6691   */\n      swap2\n      pop\n        /* \"#utility.yul\":6724:6727   */\n      dup3\n        /* \"#utility.yul\":6721:6722   */\n      0x02\n        /* \"#utility.yul\":6717:6728   */\n      mul\n        /* \"#utility.yul\":6711:6715   */\n      dup3\n        /* \"#utility.yul\":6708:6729   */\n      or\n        /* \"#utility.yul\":6700:6729   */\n      swap1\n      pop\n        /* \"#utility.yul\":6440:6735   */\n      swap3\n      swap2\n      pop\n      pop\n      jump\t// out\n        /* \"#utility.yul\":6740:8135   */\n    tag_7:\n        /* \"#utility.yul\":6857:6894   */\n      tag_122\n        /* \"#utility.yul\":6890:6893   */\n      dup3\n        /* \"#utility.yul\":6857:6894   */\n      tag_22\n      jump\t// in\n    tag_122:\n        /* \"#utility.yul\":6959:6977   */\n      0xffffffffffffffff\n        /* \"#utility.yul\":6951:6957   */\n      dup2\n        /* \"#utility.yul\":6948:6978   */\n      gt\n        /* \"#utility.yul\":6945:7001   */\n      iszero\n      tag_123\n      jumpi\n        /* \"#utility.yul\":6981:6999   */\n      tag_124\n      tag_15\n      jump\t// in\n    tag_124:\n        /* \"#utility.yul\":6945:7001   */\n    tag_123:\n        /* \"#utility.yul\":7025:7063   */\n      tag_125\n        /* \"#utility.yul\":7057:7061   */\n      dup3\n        /* \"#utility.yul\":7051:7062   */\n      sload\n        /* \"#utility.yul\":7025:7063   */\n      tag_24\n      jump\t// in\n    tag_125:\n        /* \"#utility.yul\":7110:7177   */\n      tag_126\n        /* \"#utility.yul\":7170:7176   */\n      dup3\n        /* \"#utility.yul\":7162:7168   */\n      dup3\n        /* \"#utility.yul\":7156:7160   */\n      dup6\n        /* \"#utility.yul\":7110:7177   */\n      tag_37\n      jump\t// in\n    tag_126:\n        /* \"#utility.yul\":7204:7205   */\n      0x00\n        /* \"#utility.yul\":7228:7232   */\n      0x20\n        /* \"#utility.yul\":7215:7232   */\n      swap1\n      pop\n        /* \"#utility.yul\":7260:7262   */\n      0x1f\n        /* \"#utility.yul\":7252:7258   */\n      dup4\n        /* \"#utility.yul\":7249:7263   */\n      gt\n        /* \"#utility.yul\":7277:7278   */\n      0x01\n        /* \"#utility.yul\":7272:7890   */\n      dup2\n      eq\n      tag_128\n      jumpi\n        /* \"#utility.yul\":7934:7935   */\n      0x00\n        /* \"#utility.yul\":7951:7957   */\n      dup5\n        /* \"#utility.yul\":7948:8025   */\n      iszero\n      tag_129\n      jumpi\n        /* \"#utility.yul\":8000:8009   */\n      dup3\n        /* \"#utility.yul\":7995:7998   */\n      dup8\n        /* \"#utility.yul\":7991:8010   */\n      add\n        /* \"#utility.yul\":7985:8011   */\n      mload\n        /* \"#utility.yul\":7976:8011   */\n      swap1\n      pop\n        /* \"#utility.yul\":7948:8025   */\n    tag_129:\n        /* \"#utility.yul\":8051:8118   */\n      tag_130\n        /* \"#utility.yul\":8111:8117   */\n      dup6\n        /* \"#utility.yul\":8104:8109   */\n      dup3\n        /* \"#utility.yul\":8051:8118   */\n      tag_40\n      jump\t// in\n    tag_130:\n        /* \"#utility.yul\":8045:8049   */\n      dup7\n        /* \"#utility.yul\":8038:8119   */\n      sstore\n        /* \"#utility.yul\":7907:8129   */\n      pop\n        /* \"#utility.yul\":7242:8129   */\n      jump(tag_127)\n        /* \"#utility.yul\":7272:7890   */\n    tag_128:\n        /* \"#utility.yul\":7324:7328   */\n      0x1f\n        /* \"#utility.yul\":7320:7329   */\n      not\n        /* \"#utility.yul\":7312:7318   */\n      dup5\n        /* \"#utility.yul\":7308:7330   */\n      and\n        /* \"#utility.yul\":7358:7395   */\n      tag_131\n        /* \"#utility.yul\":7390:7394   */\n      dup7\n        /* \"#utility.yul\":7358:7395   */\n      tag_25\n      jump\t// in\n    tag_131:\n        /* \"#utility.yul\":7417:7418   */\n      0x00\n        /* \"#utility.yul\":7431:7639   */\n    tag_132:\n        /* \"#utility.yul\":7445:7452   */\n      dup3\n        /* \"#utility.yul\":7442:7443   */\n      dup2\n        /* \"#utility.yul\":7439:7453   */\n      lt\n        /* \"#utility.yul\":7431:7639   */\n      iszero\n      tag_134\n      jumpi\n        /* \"#utility.yul\":7524:7533   */\n      dup5\n        /* \"#utility.yul\":7519:7522   */\n      dup10\n        /* \"#utility.yul\":7515:7534   */\n      add\n        /* \"#utility.yul\":7509:7535   */\n      mload\n        /* \"#utility.yul\":7501:7507   */\n      dup3\n        /* \"#utility.yul\":7494:7536   */\n      sstore\n        /* \"#utility.yul\":7575:7576   */\n      0x01\n        /* \"#utility.yul\":7567:7573   */\n      dup3\n        /* \"#utility.yul\":7563:7577   */\n      add\n        /* \"#utility.yul\":7553:7577   */\n      swap2\n      pop\n        /* \"#utility.yul\":7622:7624   */\n      0x20\n        /* \"#utility.yul\":7611:7620   */\n      dup6\n        /* \"#utility.yul\":7607:7625   */\n      add\n        /* \"#utility.yul\":7594:7625   */\n      swap5\n      pop\n        /* \"#utility.yul\":7468:7472   */\n      0x20\n        /* \"#utility.yul\":7465:7466   */\n      dup2\n        /* \"#utility.yul\":7461:7473   */\n      add\n        /* \"#utility.yul\":7456:7473   */\n      swap1\n      pop\n        /* \"#utility.yul\":7431:7639   */\n      jump(tag_132)\n    tag_134:\n        /* \"#utility.yul\":7667:7673   */\n      dup7\n        /* \"#utility.yul\":7658:7665   */\n      dup4\n        /* \"#utility.yul\":7655:7674   */\n      lt\n        /* \"#utility.yul\":7652:7831   */\n      iszero\n      tag_135\n      jumpi\n        /* \"#utility.yul\":7725:7734   */\n      dup5\n        /* \"#utility.yul\":7720:7723   */\n      dup10\n        /* \"#utility.yul\":7716:7735   */\n      add\n        /* \"#utility.yul\":7710:7736   */\n      mload\n        /* \"#utility.yul\":7768:7816   */\n      tag_136\n        /* \"#utility.yul\":7810:7814   */\n      0x1f\n        /* \"#utility.yul\":7802:7808   */\n      dup10\n        /* \"#utility.yul\":7798:7815   */\n      and\n        /* \"#utility.yul\":7787:7796   */\n      dup3\n        /* \"#utility.yul\":7768:7816   */\n      tag_39\n      jump\t// in\n    tag_136:\n        /* \"#utility.yul\":7760:7766   */\n      dup4\n        /* \"#utility.yul\":7753:7817   */\n      sstore\n        /* \"#utility.yul\":7675:7831   */\n      pop\n        /* \"#utility.yul\":7652:7831   */\n    tag_135:\n        /* \"#utility.yul\":7877:7878   */\n      0x01\n        /* \"#utility.yul\":7873:7874   */\n      0x02\n        /* \"#utility.yul\":7865:7871   */\n      dup9\n        /* \"#utility.yul\":7861:7875   */\n      mul\n        /* \"#utility.yul\":7857:7879   */\n      add\n        /* \"#utility.yul\":7851:7855   */\n      dup9\n        /* \"#utility.yul\":7844:7880   */\n      sstore\n        /* \"#utility.yul\":7279:7890   */\n      pop\n      pop\n      pop\n        /* \"#utility.yul\":7242:8129   */\n    tag_127:\n      pop\n        /* \"#utility.yul\":6832:8135   */\n      pop\n      pop\n      pop\n        /* \"#utility.yul\":6740:8135   */\n      pop\n      pop\n      jump\t// out\n        /* \"SolidityFromYT/05_MySecret.sol\":260:476  contract SecretVault {... */\n    tag_8:\n      dataSize(sub_0)\n      dup1\n      dataOffset(sub_0)\n      0x00\n      codecopy\n      0x00\n      return\n    stop\n\n    sub_0: assembly {\n            /* \"SolidityFromYT/05_MySecret.sol\":260:476  contract SecretVault {... */\n          mstore(0x40, 0x80)\n          callvalue\n          dup1\n          iszero\n          tag_1\n          jumpi\n          0x00\n          dup1\n          revert\n        tag_1:\n          pop\n          jumpi(tag_2, lt(calldatasize, 0x04))\n          shr(0xe0, calldataload(0x00))\n          dup1\n          0x5b9fdc30\n          eq\n          tag_3\n          jumpi\n        tag_2:\n          0x00\n          dup1\n          revert\n            /* \"SolidityFromYT/05_MySecret.sol\":386:473  function getSecret() public view returns(string memory){... */\n        tag_3:\n          tag_4\n          tag_5\n          jump\t// in\n        tag_4:\n          mload(0x40)\n          tag_6\n          swap2\n          swap1\n          tag_7\n          jump\t// in\n        tag_6:\n          mload(0x40)\n          dup1\n          swap2\n          sub\n          swap1\n          return\n        tag_5:\n            /* \"SolidityFromYT/05_MySecret.sol\":427:440  string memory */\n          0x60\n            /* \"SolidityFromYT/05_MySecret.sol\":459:465  secret */\n          0x00\n            /* \"SolidityFromYT/05_MySecret.sol\":452:465  return secret */\n          dup1\n          sload\n          tag_9\n          swap1\n          tag_10\n          jump\t// in\n        tag_9:\n          dup1\n          0x1f\n          add\n          0x20\n          dup1\n          swap2\n          div\n          mul\n          0x20\n          add\n          mload(0x40)\n          swap1\n          dup2\n          add\n          0x40\n          mstore\n          dup1\n          swap3\n          swap2\n          swap1\n          dup2\n          dup2\n          mstore\n          0x20\n          add\n          dup3\n          dup1\n          sload\n          tag_11\n          swap1\n          tag_10\n          jump\t// in\n        tag_11:\n          dup1\n          iszero\n          tag_12\n          jumpi\n          dup1\n          0x1f\n          lt\n          tag_13\n          jumpi\n          0x0100\n          dup1\n          dup4\n          sload\n          div\n          mul\n          dup4\n          mstore\n          swap2\n          0x20\n          add\n          swap2\n          jump(tag_12)\n        tag_13:\n          dup3\n          add\n          swap2\n          swap1\n          0x00\n          mstore\n          keccak256(0x00, 0x20)\n          swap1\n        tag_14:\n          dup2\n          sload\n          dup2\n          mstore\n          swap1\n          0x01\n          add\n          swap1\n          0x20\n          add\n          dup1\n          dup4\n          gt\n          tag_14\n          jumpi\n          dup3\n          swap1\n          sub\n          0x1f\n          and\n          dup3\n          add\n          swap2\n        tag_12:\n          pop\n          pop\n          pop\n          pop\n          pop\n          swap1\n          pop\n            /* \"SolidityFromYT/05_MySecret.sol\":386:473  function getSecret() public view returns(string memory){... */\n          swap1\n          jump\t// out\n            /* \"#utility.yul\":7:106   */\n        tag_15:\n            /* \"#utility.yul\":59:65   */\n          0x00\n            /* \"#utility.yul\":93:98   */\n          dup2\n            /* \"#utility.yul\":87:99   */\n          mload\n            /* \"#utility.yul\":77:99   */\n          swap1\n          pop\n            /* \"#utility.yul\":7:106   */\n          swap2\n          swap1\n          pop\n          jump\t// out\n            /* \"#utility.yul\":112:281   */\n        tag_16:\n            /* \"#utility.yul\":196:207   */\n          0x00\n            /* \"#utility.yul\":230:236   */\n          dup3\n            /* \"#utility.yul\":225:228   */\n          dup3\n            /* \"#utility.yul\":218:237   */\n          mstore\n            /* \"#utility.yul\":270:274   */\n          0x20\n            /* \"#utility.yul\":265:268   */\n          dup3\n            /* \"#utility.yul\":261:275   */\n          add\n            /* \"#utility.yul\":246:275   */\n          swap1\n          pop\n            /* \"#utility.yul\":112:281   */\n          swap3\n          swap2\n          pop\n          pop\n          jump\t// out\n            /* \"#utility.yul\":287:426   */\n        tag_17:\n            /* \"#utility.yul\":376:382   */\n          dup3\n            /* \"#utility.yul\":371:374   */\n          dup2\n            /* \"#utility.yul\":366:369   */\n          dup4\n            /* \"#utility.yul\":360:383   */\n          mcopy\n            /* \"#utility.yul\":417:418   */\n          0x00\n            /* \"#utility.yul\":408:414   */\n          dup4\n            /* \"#utility.yul\":403:406   */\n          dup4\n            /* \"#utility.yul\":399:415   */\n          add\n            /* \"#utility.yul\":392:419   */\n          mstore\n            /* \"#utility.yul\":287:426   */\n          pop\n          pop\n          pop\n          jump\t// out\n            /* \"#utility.yul\":432:534   */\n        tag_18:\n            /* \"#utility.yul\":473:479   */\n          0x00\n            /* \"#utility.yul\":524:526   */\n          0x1f\n            /* \"#utility.yul\":520:527   */\n          not\n            /* \"#utility.yul\":515:517   */\n          0x1f\n            /* \"#utility.yul\":508:513   */\n          dup4\n            /* \"#utility.yul\":504:518   */\n          add\n            /* \"#utility.yul\":500:528   */\n          and\n            /* \"#utility.yul\":490:528   */\n          swap1\n          pop\n            /* \"#utility.yul\":432:534   */\n          swap2\n          swap1\n          pop\n          jump\t// out\n            /* \"#utility.yul\":540:917   */\n        tag_19:\n            /* \"#utility.yul\":628:631   */\n          0x00\n            /* \"#utility.yul\":656:695   */\n          tag_27\n            /* \"#utility.yul\":689:694   */\n          dup3\n            /* \"#utility.yul\":656:695   */\n          tag_15\n          jump\t// in\n        tag_27:\n            /* \"#utility.yul\":711:782   */\n          tag_28\n            /* \"#utility.yul\":775:781   */\n          dup2\n            /* \"#utility.yul\":770:773   */\n          dup6\n            /* \"#utility.yul\":711:782   */\n          tag_16\n          jump\t// in\n        tag_28:\n            /* \"#utility.yul\":704:782   */\n          swap4\n          pop\n            /* \"#utility.yul\":791:856   */\n          tag_29\n            /* \"#utility.yul\":849:855   */\n          dup2\n            /* \"#utility.yul\":844:847   */\n          dup6\n            /* \"#utility.yul\":837:841   */\n          0x20\n            /* \"#utility.yul\":830:835   */\n          dup7\n            /* \"#utility.yul\":826:842   */\n          add\n            /* \"#utility.yul\":791:856   */\n          tag_17\n          jump\t// in\n        tag_29:\n            /* \"#utility.yul\":881:910   */\n          tag_30\n            /* \"#utility.yul\":903:909   */\n          dup2\n            /* \"#utility.yul\":881:910   */\n          tag_18\n          jump\t// in\n        tag_30:\n            /* \"#utility.yul\":876:879   */\n          dup5\n            /* \"#utility.yul\":872:911   */\n          add\n            /* \"#utility.yul\":865:911   */\n          swap2\n          pop\n            /* \"#utility.yul\":632:917   */\n          pop\n            /* \"#utility.yul\":540:917   */\n          swap3\n          swap2\n          pop\n          pop\n          jump\t// out\n            /* \"#utility.yul\":923:1236   */\n        tag_7:\n            /* \"#utility.yul\":1036:1040   */\n          0x00\n            /* \"#utility.yul\":1074:1076   */\n          0x20\n            /* \"#utility.yul\":1063:1072   */\n          dup3\n            /* \"#utility.yul\":1059:1077   */\n          add\n            /* \"#utility.yul\":1051:1077   */\n          swap1\n          pop\n            /* \"#utility.yul\":1123:1132   */\n          dup2\n            /* \"#utility.yul\":1117:1121   */\n          dup2\n            /* \"#utility.yul\":1113:1133   */\n          sub\n            /* \"#utility.yul\":1109:1110   */\n          0x00\n            /* \"#utility.yul\":1098:1107   */\n          dup4\n            /* \"#utility.yul\":1094:1111   */\n          add\n            /* \"#utility.yul\":1087:1134   */\n          mstore\n            /* \"#utility.yul\":1151:1229   */\n          tag_32\n            /* \"#utility.yul\":1224:1228   */\n          dup2\n            /* \"#utility.yul\":1215:1221   */\n          dup5\n            /* \"#utility.yul\":1151:1229   */\n          tag_19\n          jump\t// in\n        tag_32:\n            /* \"#utility.yul\":1143:1229   */\n          swap1\n          pop\n            /* \"#utility.yul\":923:1236   */\n          swap3\n          swap2\n          pop\n          pop\n          jump\t// out\n            /* \"#utility.yul\":1242:1422   */\n        tag_20:\n            /* \"#utility.yul\":1290:1367   */\n          0x4e487b7100000000000000000000000000000000000000000000000000000000\n            /* \"#utility.yul\":1287:1288   */\n          0x00\n            /* \"#utility.yul\":1280:1368   */\n          mstore\n            /* \"#utility.yul\":1387:1391   */\n          0x22\n            /* \"#utility.yul\":1384:1385   */\n          0x04\n            /* \"#utility.yul\":1377:1392   */\n          mstore\n            /* \"#utility.yul\":1411:1415   */\n          0x24\n            /* \"#utility.yul\":1408:1409   */\n          0x00\n            /* \"#utility.yul\":1401:1416   */\n          revert\n            /* \"#utility.yul\":1428:1748   */\n        tag_10:\n            /* \"#utility.yul\":1472:1478   */\n          0x00\n            /* \"#utility.yul\":1509:1510   */\n          0x02\n            /* \"#utility.yul\":1503:1507   */\n          dup3\n            /* \"#utility.yul\":1499:1511   */\n          div\n            /* \"#utility.yul\":1489:1511   */\n          swap1\n          pop\n            /* \"#utility.yul\":1556:1557   */\n          0x01\n            /* \"#utility.yul\":1550:1554   */\n          dup3\n            /* \"#utility.yul\":1546:1558   */\n          and\n            /* \"#utility.yul\":1577:1595   */\n          dup1\n            /* \"#utility.yul\":1567:1648   */\n          tag_35\n          jumpi\n            /* \"#utility.yul\":1633:1637   */\n          0x7f\n            /* \"#utility.yul\":1625:1631   */\n          dup3\n            /* \"#utility.yul\":1621:1638   */\n          and\n            /* \"#utility.yul\":1611:1638   */\n          swap2\n          pop\n            /* \"#utility.yul\":1567:1648   */\n        tag_35:\n            /* \"#utility.yul\":1695:1697   */\n          0x20\n            /* \"#utility.yul\":1687:1693   */\n          dup3\n            /* \"#utility.yul\":1684:1698   */\n          lt\n            /* \"#utility.yul\":1664:1682   */\n          dup2\n            /* \"#utility.yul\":1661:1699   */\n          sub\n            /* \"#utility.yul\":1658:1742   */\n          tag_36\n          jumpi\n            /* \"#utility.yul\":1714:1732   */\n          tag_37\n          tag_20\n          jump\t// in\n        tag_37:\n            /* \"#utility.yul\":1658:1742   */\n        tag_36:\n            /* \"#utility.yul\":1479:1748   */\n          pop\n            /* \"#utility.yul\":1428:1748   */\n          swap2\n          swap1\n          pop\n          jump\t// out\n\n        auxdata: 0xa2646970667358221220dd57742f59e46a015901f33cf6f2c4bbc72fec1746ebac16079c1d07f303fc6664736f6c634300081a0033\n    }\n}\n",
				"bytecode": {
					"linkReferences": {},
					"object": "608060405234801561000f575f80fd5b50604051610fcf380380610fcf83398181016040528101906100319190610284565b335f806101000a81548173ffffffffffffffffffffffffffffffffffffffff021916908373ffffffffffffffffffffffffffffffffffffffff1602179055505f8160405161007e9061012a565b610088919061031d565b604051809103905ff0801580156100a1573d5f803e3d5ffd5b5090508073ffffffffffffffffffffffffffffffffffffffff16635b9fdc306040518163ffffffff1660e01b81526004015f60405180830381865afa1580156100ec573d5f803e3d5ffd5b505050506040513d5f823e3d601f19601f820116820180604052508101906101149190610284565b600190816101229190610540565b50505061060f565b6106c08061090f83390190565b5f604051905090565b5f80fd5b5f80fd5b5f80fd5b5f80fd5b5f601f19601f8301169050919050565b7f4e487b71000000000000000000000000000000000000000000000000000000005f52604160045260245ffd5b61019682610150565b810181811067ffffffffffffffff821117156101b5576101b4610160565b5b80604052505050565b5f6101c7610137565b90506101d3828261018d565b919050565b5f67ffffffffffffffff8211156101f2576101f1610160565b5b6101fb82610150565b9050602081019050919050565b8281835e5f83830152505050565b5f610228610223846101d8565b6101be565b9050828152602081018484840111156102445761024361014c565b5b61024f848285610208565b509392505050565b5f82601f83011261026b5761026a610148565b5b815161027b848260208601610216565b91505092915050565b5f6020828403121561029957610298610140565b5b5f82015167ffffffffffffffff8111156102b6576102b5610144565b5b6102c284828501610257565b91505092915050565b5f81519050919050565b5f82825260208201905092915050565b5f6102ef826102cb565b6102f981856102d5565b9350610309818560208601610208565b61031281610150565b840191505092915050565b5f6020820190508181035f83015261033581846102e5565b905092915050565b7f4e487b71000000000000000000000000000000000000000000000000000000005f52602260045260245ffd5b5f600282049050600182168061038157607f821691505b6020821081036103945761039361033d565b5b50919050565b5f819050815f5260205f209050919050565b5f6020601f8301049050919050565b5f82821b905092915050565b5f600883026103f67fffffffffffffffffffffffffffffffffffffffffffffffffffffffffffffffff826103bb565b61040086836103bb565b95508019841693508086168417925050509392505050565b5f819050919050565b5f819050919050565b5f61044461043f61043a84610418565b610421565b610418565b9050919050565b5f819050919050565b61045d8361042a565b6104716104698261044b565b8484546103c7565b825550505050565b5f90565b610485610479565b610490818484610454565b505050565b5b818110156104b3576104a85f8261047d565b600181019050610496565b5050565b601f8211156104f8576104c98161039a565b6104d2846103ac565b810160208510156104e1578190505b6104f56104ed856103ac565b830182610495565b50505b505050565b5f82821c905092915050565b5f6105185f19846008026104fd565b1980831691505092915050565b5f6105308383610509565b9150826002028217905092915050565b610549826102cb565b67ffffffffffffffff81111561056257610561610160565b5b61056c825461036a565b6105778282856104b7565b5f60209050601f8311600181146105a8575f8415610596578287015190505b6105a08582610525565b865550610607565b601f1984166105b68661039a565b5f5b828110156105dd578489015182556001820191506020850194506020810190506105b8565b868310156105fa57848901516105f6601f891682610509565b8355505b6001600288020188555050505b505050505050565b6102f38061061c5f395ff3fe608060405234801561000f575f80fd5b5060043610610029575f3560e01c80635b9fdc301461002d575b5f80fd5b61003561004b565b60405161004291906101d8565b60405180910390f35b60603373ffffffffffffffffffffffffffffffffffffffff165f8054906101000a900473ffffffffffffffffffffffffffffffffffffffff1673ffffffffffffffffffffffffffffffffffffffff16146100da576040517f08c379a00000000000000000000000000000000000000000000000000000000081526004016100d190610242565b60405180910390fd5b600180546100e79061028d565b80601f01602080910402602001604051908101604052809291908181526020018280546101139061028d565b801561015e5780601f106101355761010080835404028352916020019161015e565b820191905f5260205f20905b81548152906001019060200180831161014157829003601f168201915b5050505050905090565b5f81519050919050565b5f82825260208201905092915050565b8281835e5f83830152505050565b5f601f19601f8301169050919050565b5f6101aa82610168565b6101b48185610172565b93506101c4818560208601610182565b6101cd81610190565b840191505092915050565b5f6020820190508181035f8301526101f081846101a0565b905092915050565b7f6d757374206265206f6e776572000000000000000000000000000000000000005f82015250565b5f61022c600d83610172565b9150610237826101f8565b602082019050919050565b5f6020820190508181035f83015261025981610220565b9050919050565b7f4e487b71000000000000000000000000000000000000000000000000000000005f52602260045260245ffd5b5f60028204905060018216806102a457607f821691505b6020821081036102b7576102b6610260565b5b5091905056fea2646970667358221220819915a24ec03fb20d401e6cd1d78f6be88cb54a13239b05080a5c953b1bacd364736f6c634300081a0033608060405234801561000f575f80fd5b506040516106c03803806106c083398181016040528101906100319190610193565b805f908161003f91906103e7565b50506104b6565b5f604051905090565b5f80fd5b5f80fd5b5f80fd5b5f80fd5b5f601f19601f8301169050919050565b7f4e487b71000000000000000000000000000000000000000000000000000000005f52604160045260245ffd5b6100a58261005f565b810181811067ffffffffffffffff821117156100c4576100c361006f565b5b80604052505050565b5f6100d6610046565b90506100e2828261009c565b919050565b5f67ffffffffffffffff8211156101015761010061006f565b5b61010a8261005f565b9050602081019050919050565b8281835e5f83830152505050565b5f610137610132846100e7565b6100cd565b9050828152602081018484840111156101535761015261005b565b5b61015e848285610117565b509392505050565b5f82601f83011261017a57610179610057565b5b815161018a848260208601610125565b91505092915050565b5f602082840312156101a8576101a761004f565b5b5f82015167ffffffffffffffff8111156101c5576101c4610053565b5b6101d184828501610166565b91505092915050565b5f81519050919050565b7f4e487b71000000000000000000000000000000000000000000000000000000005f52602260045260245ffd5b5f600282049050600182168061022857607f821691505b60208210810361023b5761023a6101e4565b5b50919050565b5f819050815f5260205f209050919050565b5f6020601f8301049050919050565b5f82821b905092915050565b5f6008830261029d7fffffffffffffffffffffffffffffffffffffffffffffffffffffffffffffffff82610262565b6102a78683610262565b95508019841693508086168417925050509392505050565b5f819050919050565b5f819050919050565b5f6102eb6102e66102e1846102bf565b6102c8565b6102bf565b9050919050565b5f819050919050565b610304836102d1565b610318610310826102f2565b84845461026e565b825550505050565b5f90565b61032c610320565b6103378184846102fb565b505050565b5b8181101561035a5761034f5f82610324565b60018101905061033d565b5050565b601f82111561039f5761037081610241565b61037984610253565b81016020851015610388578190505b61039c61039485610253565b83018261033c565b50505b505050565b5f82821c905092915050565b5f6103bf5f19846008026103a4565b1980831691505092915050565b5f6103d783836103b0565b9150826002028217905092915050565b6103f0826101da565b67ffffffffffffffff8111156104095761040861006f565b5b6104138254610211565b61041e82828561035e565b5f60209050601f83116001811461044f575f841561043d578287015190505b61044785826103cc565b8655506104ae565b601f19841661045d86610241565b5f5b828110156104845784890151825560018201915060208501945060208101905061045f565b868310156104a1578489015161049d601f8916826103b0565b8355505b6001600288020188555050505b505050505050565b6101fd806104c35f395ff3fe608060405234801561000f575f80fd5b5060043610610029575f3560e01c80635b9fdc301461002d575b5f80fd5b61003561004b565b604051610042919061014a565b60405180910390f35b60605f805461005990610197565b80601f016020809104026020016040519081016040528092919081815260200182805461008590610197565b80156100d05780601f106100a7576101008083540402835291602001916100d0565b820191905f5260205f20905b8154815290600101906020018083116100b357829003601f168201915b5050505050905090565b5f81519050919050565b5f82825260208201905092915050565b8281835e5f83830152505050565b5f601f19601f8301169050919050565b5f61011c826100da565b61012681856100e4565b93506101368185602086016100f4565b61013f81610102565b840191505092915050565b5f6020820190508181035f8301526101628184610112565b905092915050565b7f4e487b71000000000000000000000000000000000000000000000000000000005f52602260045260245ffd5b5f60028204905060018216806101ae57607f821691505b6020821081036101c1576101c061016a565b5b5091905056fea2646970667358221220dd57742f59e46a015901f33cf6f2c4bbc72fec1746ebac16079c1d07f303fc6664736f6c634300081a0033",
					"opcodes": "PUSH1 0x80 PUSH1 0x40 MSTORE CALLVALUE DUP1 ISZERO PUSH2 0xF JUMPI PUSH0 DUP1 REVERT JUMPDEST POP PUSH1 0x40 MLOAD PUSH2 0xFCF CODESIZE SUB DUP1 PUSH2 0xFCF DUP4 CODECOPY DUP2 DUP2 ADD PUSH1 0x40 MSTORE DUP2 ADD SWAP1 PUSH2 0x31 SWAP2 SWAP1 PUSH2 0x284 JUMP JUMPDEST CALLER PUSH0 DUP1 PUSH2 0x100 EXP DUP2 SLOAD DUP2 PUSH20 0xFFFFFFFFFFFFFFFFFFFFFFFFFFFFFFFFFFFFFFFF MUL NOT AND SWAP1 DUP4 PUSH20 0xFFFFFFFFFFFFFFFFFFFFFFFFFFFFFFFFFFFFFFFF AND MUL OR SWAP1 SSTORE POP PUSH0 DUP2 PUSH1 0x40 MLOAD PUSH2 0x7E SWAP1 PUSH2 0x12A JUMP JUMPDEST PUSH2 0x88 SWAP2 SWAP1 PUSH2 0x31D JUMP JUMPDEST PUSH1 0x40 MLOAD DUP1 SWAP2 SUB SWAP1 PUSH0 CREATE DUP1 ISZERO DUP1 ISZERO PUSH2 0xA1 JUMPI RETURNDATASIZE PUSH0 DUP1 RETURNDATACOPY RETURNDATASIZE PUSH0 REVERT JUMPDEST POP SWAP1 POP DUP1 PUSH20 0xFFFFFFFFFFFFFFFFFFFFFFFFFFFFFFFFFFFFFFFF AND PUSH4 0x5B9FDC30 PUSH1 0x40 MLOAD DUP2 PUSH4 0xFFFFFFFF AND PUSH1 0xE0 SHL DUP2 MSTORE PUSH1 0x4 ADD PUSH0 PUSH1 0x40 MLOAD DUP1 DUP4 SUB DUP2 DUP7 GAS STATICCALL ISZERO DUP1 ISZERO PUSH2 0xEC JUMPI RETURNDATASIZE PUSH0 DUP1 RETURNDATACOPY RETURNDATASIZE PUSH0 REVERT JUMPDEST POP POP POP POP PUSH1 0x40 MLOAD RETURNDATASIZE PUSH0 DUP3 RETURNDATACOPY RETURNDATASIZE PUSH1 0x1F NOT PUSH1 0x1F DUP3 ADD AND DUP3 ADD DUP1 PUSH1 0x40 MSTORE POP DUP2 ADD SWAP1 PUSH2 0x114 SWAP2 SWAP1 PUSH2 0x284 JUMP JUMPDEST PUSH1 0x1 SWAP1 DUP2 PUSH2 0x122 SWAP2 SWAP1 PUSH2 0x540 JUMP JUMPDEST POP POP POP PUSH2 0x60F JUMP JUMPDEST PUSH2 0x6C0 DUP1 PUSH2 0x90F DUP4 CODECOPY ADD SWAP1 JUMP JUMPDEST PUSH0 PUSH1 0x40 MLOAD SWAP1 POP SWAP1 JUMP JUMPDEST PUSH0 DUP1 REVERT JUMPDEST PUSH0 DUP1 REVERT JUMPDEST PUSH0 DUP1 REVERT JUMPDEST PUSH0 DUP1 REVERT JUMPDEST PUSH0 PUSH1 0x1F NOT PUSH1 0x1F DUP4 ADD AND SWAP1 POP SWAP2 SWAP1 POP JUMP JUMPDEST PUSH32 0x4E487B7100000000000000000000000000000000000000000000000000000000 PUSH0 MSTORE PUSH1 0x41 PUSH1 0x4 MSTORE PUSH1 0x24 PUSH0 REVERT JUMPDEST PUSH2 0x196 DUP3 PUSH2 0x150 JUMP JUMPDEST DUP2 ADD DUP2 DUP2 LT PUSH8 0xFFFFFFFFFFFFFFFF DUP3 GT OR ISZERO PUSH2 0x1B5 JUMPI PUSH2 0x1B4 PUSH2 0x160 JUMP JUMPDEST JUMPDEST DUP1 PUSH1 0x40 MSTORE POP POP POP JUMP JUMPDEST PUSH0 PUSH2 0x1C7 PUSH2 0x137 JUMP JUMPDEST SWAP1 POP PUSH2 0x1D3 DUP3 DUP3 PUSH2 0x18D JUMP JUMPDEST SWAP2 SWAP1 POP JUMP JUMPDEST PUSH0 PUSH8 0xFFFFFFFFFFFFFFFF DUP3 GT ISZERO PUSH2 0x1F2 JUMPI PUSH2 0x1F1 PUSH2 0x160 JUMP JUMPDEST JUMPDEST PUSH2 0x1FB DUP3 PUSH2 0x150 JUMP JUMPDEST SWAP1 POP PUSH1 0x20 DUP2 ADD SWAP1 POP SWAP2 SWAP1 POP JUMP JUMPDEST DUP3 DUP2 DUP4 MCOPY PUSH0 DUP4 DUP4 ADD MSTORE POP POP POP JUMP JUMPDEST PUSH0 PUSH2 0x228 PUSH2 0x223 DUP5 PUSH2 0x1D8 JUMP JUMPDEST PUSH2 0x1BE JUMP JUMPDEST SWAP1 POP DUP3 DUP2 MSTORE PUSH1 0x20 DUP2 ADD DUP5 DUP5 DUP5 ADD GT ISZERO PUSH2 0x244 JUMPI PUSH2 0x243 PUSH2 0x14C JUMP JUMPDEST JUMPDEST PUSH2 0x24F DUP5 DUP3 DUP6 PUSH2 0x208 JUMP JUMPDEST POP SWAP4 SWAP3 POP POP POP JUMP JUMPDEST PUSH0 DUP3 PUSH1 0x1F DUP4 ADD SLT PUSH2 0x26B JUMPI PUSH2 0x26A PUSH2 0x148 JUMP JUMPDEST JUMPDEST DUP2 MLOAD PUSH2 0x27B DUP5 DUP3 PUSH1 0x20 DUP7 ADD PUSH2 0x216 JUMP JUMPDEST SWAP2 POP POP SWAP3 SWAP2 POP POP JUMP JUMPDEST PUSH0 PUSH1 0x20 DUP3 DUP5 SUB SLT ISZERO PUSH2 0x299 JUMPI PUSH2 0x298 PUSH2 0x140 JUMP JUMPDEST JUMPDEST PUSH0 DUP3 ADD MLOAD PUSH8 0xFFFFFFFFFFFFFFFF DUP2 GT ISZERO PUSH2 0x2B6 JUMPI PUSH2 0x2B5 PUSH2 0x144 JUMP JUMPDEST JUMPDEST PUSH2 0x2C2 DUP5 DUP3 DUP6 ADD PUSH2 0x257 JUMP JUMPDEST SWAP2 POP POP SWAP3 SWAP2 POP POP JUMP JUMPDEST PUSH0 DUP2 MLOAD SWAP1 POP SWAP2 SWAP1 POP JUMP JUMPDEST PUSH0 DUP3 DUP3 MSTORE PUSH1 0x20 DUP3 ADD SWAP1 POP SWAP3 SWAP2 POP POP JUMP JUMPDEST PUSH0 PUSH2 0x2EF DUP3 PUSH2 0x2CB JUMP JUMPDEST PUSH2 0x2F9 DUP2 DUP6 PUSH2 0x2D5 JUMP JUMPDEST SWAP4 POP PUSH2 0x309 DUP2 DUP6 PUSH1 0x20 DUP7 ADD PUSH2 0x208 JUMP JUMPDEST PUSH2 0x312 DUP2 PUSH2 0x150 JUMP JUMPDEST DUP5 ADD SWAP2 POP POP SWAP3 SWAP2 POP POP JUMP JUMPDEST PUSH0 PUSH1 0x20 DUP3 ADD SWAP1 POP DUP2 DUP2 SUB PUSH0 DUP4 ADD MSTORE PUSH2 0x335 DUP2 DUP5 PUSH2 0x2E5 JUMP JUMPDEST SWAP1 POP SWAP3 SWAP2 POP POP JUMP JUMPDEST PUSH32 0x4E487B7100000000000000000000000000000000000000000000000000000000 PUSH0 MSTORE PUSH1 0x22 PUSH1 0x4 MSTORE PUSH1 0x24 PUSH0 REVERT JUMPDEST PUSH0 PUSH1 0x2 DUP3 DIV SWAP1 POP PUSH1 0x1 DUP3 AND DUP1 PUSH2 0x381 JUMPI PUSH1 0x7F DUP3 AND SWAP2 POP JUMPDEST PUSH1 0x20 DUP3 LT DUP2 SUB PUSH2 0x394 JUMPI PUSH2 0x393 PUSH2 0x33D JUMP JUMPDEST JUMPDEST POP SWAP2 SWAP1 POP JUMP JUMPDEST PUSH0 DUP2 SWAP1 POP DUP2 PUSH0 MSTORE PUSH1 0x20 PUSH0 KECCAK256 SWAP1 POP SWAP2 SWAP1 POP JUMP JUMPDEST PUSH0 PUSH1 0x20 PUSH1 0x1F DUP4 ADD DIV SWAP1 POP SWAP2 SWAP1 POP JUMP JUMPDEST PUSH0 DUP3 DUP3 SHL SWAP1 POP SWAP3 SWAP2 POP POP JUMP JUMPDEST PUSH0 PUSH1 0x8 DUP4 MUL PUSH2 0x3F6 PUSH32 0xFFFFFFFFFFFFFFFFFFFFFFFFFFFFFFFFFFFFFFFFFFFFFFFFFFFFFFFFFFFFFFFF DUP3 PUSH2 0x3BB JUMP JUMPDEST PUSH2 0x400 DUP7 DUP4 PUSH2 0x3BB JUMP JUMPDEST SWAP6 POP DUP1 NOT DUP5 AND SWAP4 POP DUP1 DUP7 AND DUP5 OR SWAP3 POP POP POP SWAP4 SWAP3 POP POP POP JUMP JUMPDEST PUSH0 DUP2 SWAP1 POP SWAP2 SWAP1 POP JUMP JUMPDEST PUSH0 DUP2 SWAP1 POP SWAP2 SWAP1 POP JUMP JUMPDEST PUSH0 PUSH2 0x444 PUSH2 0x43F PUSH2 0x43A DUP5 PUSH2 0x418 JUMP JUMPDEST PUSH2 0x421 JUMP JUMPDEST PUSH2 0x418 JUMP JUMPDEST SWAP1 POP SWAP2 SWAP1 POP JUMP JUMPDEST PUSH0 DUP2 SWAP1 POP SWAP2 SWAP1 POP JUMP JUMPDEST PUSH2 0x45D DUP4 PUSH2 0x42A JUMP JUMPDEST PUSH2 0x471 PUSH2 0x469 DUP3 PUSH2 0x44B JUMP JUMPDEST DUP5 DUP5 SLOAD PUSH2 0x3C7 JUMP JUMPDEST DUP3 SSTORE POP POP POP POP JUMP JUMPDEST PUSH0 SWAP1 JUMP JUMPDEST PUSH2 0x485 PUSH2 0x479 JUMP JUMPDEST PUSH2 0x490 DUP2 DUP5 DUP5 PUSH2 0x454 JUMP JUMPDEST POP POP POP JUMP JUMPDEST JUMPDEST DUP2 DUP2 LT ISZERO PUSH2 0x4B3 JUMPI PUSH2 0x4A8 PUSH0 DUP3 PUSH2 0x47D JUMP JUMPDEST PUSH1 0x1 DUP2 ADD SWAP1 POP PUSH2 0x496 JUMP JUMPDEST POP POP JUMP JUMPDEST PUSH1 0x1F DUP3 GT ISZERO PUSH2 0x4F8 JUMPI PUSH2 0x4C9 DUP2 PUSH2 0x39A JUMP JUMPDEST PUSH2 0x4D2 DUP5 PUSH2 0x3AC JUMP JUMPDEST DUP2 ADD PUSH1 0x20 DUP6 LT ISZERO PUSH2 0x4E1 JUMPI DUP2 SWAP1 POP JUMPDEST PUSH2 0x4F5 PUSH2 0x4ED DUP6 PUSH2 0x3AC JUMP JUMPDEST DUP4 ADD DUP3 PUSH2 0x495 JUMP JUMPDEST POP POP JUMPDEST POP POP POP JUMP JUMPDEST PUSH0 DUP3 DUP3 SHR SWAP1 POP SWAP3 SWAP2 POP POP JUMP JUMPDEST PUSH0 PUSH2 0x518 PUSH0 NOT DUP5 PUSH1 0x8 MUL PUSH2 0x4FD JUMP JUMPDEST NOT DUP1 DUP4 AND SWAP2 POP POP SWAP3 SWAP2 POP POP JUMP JUMPDEST PUSH0 PUSH2 0x530 DUP4 DUP4 PUSH2 0x509 JUMP JUMPDEST SWAP2 POP DUP3 PUSH1 0x2 MUL DUP3 OR SWAP1 POP SWAP3 SWAP2 POP POP JUMP JUMPDEST PUSH2 0x549 DUP3 PUSH2 0x2CB JUMP JUMPDEST PUSH8 0xFFFFFFFFFFFFFFFF DUP2 GT ISZERO PUSH2 0x562 JUMPI PUSH2 0x561 PUSH2 0x160 JUMP JUMPDEST JUMPDEST PUSH2 0x56C DUP3 SLOAD PUSH2 0x36A JUMP JUMPDEST PUSH2 0x577 DUP3 DUP3 DUP6 PUSH2 0x4B7 JUMP JUMPDEST PUSH0 PUSH1 0x20 SWAP1 POP PUSH1 0x1F DUP4 GT PUSH1 0x1 DUP2 EQ PUSH2 0x5A8 JUMPI PUSH0 DUP5 ISZERO PUSH2 0x596 JUMPI DUP3 DUP8 ADD MLOAD SWAP1 POP JUMPDEST PUSH2 0x5A0 DUP6 DUP3 PUSH2 0x525 JUMP JUMPDEST DUP7 SSTORE POP PUSH2 0x607 JUMP JUMPDEST PUSH1 0x1F NOT DUP5 AND PUSH2 0x5B6 DUP7 PUSH2 0x39A JUMP JUMPDEST PUSH0 JUMPDEST DUP3 DUP2 LT ISZERO PUSH2 0x5DD JUMPI DUP5 DUP10 ADD MLOAD DUP3 SSTORE PUSH1 0x1 DUP3 ADD SWAP2 POP PUSH1 0x20 DUP6 ADD SWAP5 POP PUSH1 0x20 DUP2 ADD SWAP1 POP PUSH2 0x5B8 JUMP JUMPDEST DUP7 DUP4 LT ISZERO PUSH2 0x5FA JUMPI DUP5 DUP10 ADD MLOAD PUSH2 0x5F6 PUSH1 0x1F DUP10 AND DUP3 PUSH2 0x509 JUMP JUMPDEST DUP4 SSTORE POP JUMPDEST PUSH1 0x1 PUSH1 0x2 DUP9 MUL ADD DUP9 SSTORE POP POP POP JUMPDEST POP POP POP POP POP POP JUMP JUMPDEST PUSH2 0x2F3 DUP1 PUSH2 0x61C PUSH0 CODECOPY PUSH0 RETURN INVALID PUSH1 0x80 PUSH1 0x40 MSTORE CALLVALUE DUP1 ISZERO PUSH2 0xF JUMPI PUSH0 DUP1 REVERT JUMPDEST POP PUSH1 0x4 CALLDATASIZE LT PUSH2 0x29 JUMPI PUSH0 CALLDATALOAD PUSH1 0xE0 SHR DUP1 PUSH4 0x5B9FDC30 EQ PUSH2 0x2D JUMPI JUMPDEST PUSH0 DUP1 REVERT JUMPDEST PUSH2 0x35 PUSH2 0x4B JUMP JUMPDEST PUSH1 0x40 MLOAD PUSH2 0x42 SWAP2 SWAP1 PUSH2 0x1D8 JUMP JUMPDEST PUSH1 0x40 MLOAD DUP1 SWAP2 SUB SWAP1 RETURN JUMPDEST PUSH1 0x60 CALLER PUSH20 0xFFFFFFFFFFFFFFFFFFFFFFFFFFFFFFFFFFFFFFFF AND PUSH0 DUP1 SLOAD SWAP1 PUSH2 0x100 EXP SWAP1 DIV PUSH20 0xFFFFFFFFFFFFFFFFFFFFFFFFFFFFFFFFFFFFFFFF AND PUSH20 0xFFFFFFFFFFFFFFFFFFFFFFFFFFFFFFFFFFFFFFFF AND EQ PUSH2 0xDA JUMPI PUSH1 0x40 MLOAD PUSH32 0x8C379A000000000000000000000000000000000000000000000000000000000 DUP2 MSTORE PUSH1 0x4 ADD PUSH2 0xD1 SWAP1 PUSH2 0x242 JUMP JUMPDEST PUSH1 0x40 MLOAD DUP1 SWAP2 SUB SWAP1 REVERT JUMPDEST PUSH1 0x1 DUP1 SLOAD PUSH2 0xE7 SWAP1 PUSH2 0x28D JUMP JUMPDEST DUP1 PUSH1 0x1F ADD PUSH1 0x20 DUP1 SWAP2 DIV MUL PUSH1 0x20 ADD PUSH1 0x40 MLOAD SWAP1 DUP2 ADD PUSH1 0x40 MSTORE DUP1 SWAP3 SWAP2 SWAP1 DUP2 DUP2 MSTORE PUSH1 0x20 ADD DUP3 DUP1 SLOAD PUSH2 0x113 SWAP1 PUSH2 0x28D JUMP JUMPDEST DUP1 ISZERO PUSH2 0x15E JUMPI DUP1 PUSH1 0x1F LT PUSH2 0x135 JUMPI PUSH2 0x100 DUP1 DUP4 SLOAD DIV MUL DUP4 MSTORE SWAP2 PUSH1 0x20 ADD SWAP2 PUSH2 0x15E JUMP JUMPDEST DUP3 ADD SWAP2 SWAP1 PUSH0 MSTORE PUSH1 0x20 PUSH0 KECCAK256 SWAP1 JUMPDEST DUP2 SLOAD DUP2 MSTORE SWAP1 PUSH1 0x1 ADD SWAP1 PUSH1 0x20 ADD DUP1 DUP4 GT PUSH2 0x141 JUMPI DUP3 SWAP1 SUB PUSH1 0x1F AND DUP3 ADD SWAP2 JUMPDEST POP POP POP POP POP SWAP1 POP SWAP1 JUMP JUMPDEST PUSH0 DUP2 MLOAD SWAP1 POP SWAP2 SWAP1 POP JUMP JUMPDEST PUSH0 DUP3 DUP3 MSTORE PUSH1 0x20 DUP3 ADD SWAP1 POP SWAP3 SWAP2 POP POP JUMP JUMPDEST DUP3 DUP2 DUP4 MCOPY PUSH0 DUP4 DUP4 ADD MSTORE POP POP POP JUMP JUMPDEST PUSH0 PUSH1 0x1F NOT PUSH1 0x1F DUP4 ADD AND SWAP1 POP SWAP2 SWAP1 POP JUMP JUMPDEST PUSH0 PUSH2 0x1AA DUP3 PUSH2 0x168 JUMP JUMPDEST PUSH2 0x1B4 DUP2 DUP6 PUSH2 0x172 JUMP JUMPDEST SWAP4 POP PUSH2 0x1C4 DUP2 DUP6 PUSH1 0x20 DUP7 ADD PUSH2 0x182 JUMP JUMPDEST PUSH2 0x1CD DUP2 PUSH2 0x190 JUMP JUMPDEST DUP5 ADD SWAP2 POP POP SWAP3 SWAP2 POP POP JUMP JUMPDEST PUSH0 PUSH1 0x20 DUP3 ADD SWAP1 POP DUP2 DUP2 SUB PUSH0 DUP4 ADD MSTORE PUSH2 0x1F0 DUP2 DUP5 PUSH2 0x1A0 JUMP JUMPDEST SWAP1 POP SWAP3 SWAP2 POP POP JUMP JUMPDEST PUSH32 0x6D757374206265206F6E77657200000000000000000000000000000000000000 PUSH0 DUP3 ADD MSTORE POP JUMP JUMPDEST PUSH0 PUSH2 0x22C PUSH1 0xD DUP4 PUSH2 0x172 JUMP JUMPDEST SWAP2 POP PUSH2 0x237 DUP3 PUSH2 0x1F8 JUMP JUMPDEST PUSH1 0x20 DUP3 ADD SWAP1 POP SWAP2 SWAP1 POP JUMP JUMPDEST PUSH0 PUSH1 0x20 DUP3 ADD SWAP1 POP DUP2 DUP2 SUB PUSH0 DUP4 ADD MSTORE PUSH2 0x259 DUP2 PUSH2 0x220 JUMP JUMPDEST SWAP1 POP SWAP2 SWAP1 POP JUMP JUMPDEST PUSH32 0x4E487B7100000000000000000000000000000000000000000000000000000000 PUSH0 MSTORE PUSH1 0x22 PUSH1 0x4 MSTORE PUSH1 0x24 PUSH0 REVERT JUMPDEST PUSH0 PUSH1 0x2 DUP3 DIV SWAP1 POP PUSH1 0x1 DUP3 AND DUP1 PUSH2 0x2A4 JUMPI PUSH1 0x7F DUP3 AND SWAP2 POP JUMPDEST PUSH1 0x20 DUP3 LT DUP2 SUB PUSH2 0x2B7 JUMPI PUSH2 0x2B6 PUSH2 0x260 JUMP JUMPDEST JUMPDEST POP SWAP2 SWAP1 POP JUMP INVALID LOG2 PUSH5 0x6970667358 0x22 SLT KECCAK256 DUP2 SWAP10 ISZERO LOG2 0x4E 0xC0 EXTCODEHASH 0xB2 0xD BLOCKHASH 0x1E PUSH13 0xD1D78F6BE88CB54A13239B0508 EXP TLOAD SWAP6 EXTCODESIZE SHL 0xAC 0xD3 PUSH5 0x736F6C6343 STOP ADDMOD BYTE STOP CALLER PUSH1 0x80 PUSH1 0x40 MSTORE CALLVALUE DUP1 ISZERO PUSH2 0xF JUMPI PUSH0 DUP1 REVERT JUMPDEST POP PUSH1 0x40 MLOAD PUSH2 0x6C0 CODESIZE SUB DUP1 PUSH2 0x6C0 DUP4 CODECOPY DUP2 DUP2 ADD PUSH1 0x40 MSTORE DUP2 ADD SWAP1 PUSH2 0x31 SWAP2 SWAP1 PUSH2 0x193 JUMP JUMPDEST DUP1 PUSH0 SWAP1 DUP2 PUSH2 0x3F SWAP2 SWAP1 PUSH2 0x3E7 JUMP JUMPDEST POP POP PUSH2 0x4B6 JUMP JUMPDEST PUSH0 PUSH1 0x40 MLOAD SWAP1 POP SWAP1 JUMP JUMPDEST PUSH0 DUP1 REVERT JUMPDEST PUSH0 DUP1 REVERT JUMPDEST PUSH0 DUP1 REVERT JUMPDEST PUSH0 DUP1 REVERT JUMPDEST PUSH0 PUSH1 0x1F NOT PUSH1 0x1F DUP4 ADD AND SWAP1 POP SWAP2 SWAP1 POP JUMP JUMPDEST PUSH32 0x4E487B7100000000000000000000000000000000000000000000000000000000 PUSH0 MSTORE PUSH1 0x41 PUSH1 0x4 MSTORE PUSH1 0x24 PUSH0 REVERT JUMPDEST PUSH2 0xA5 DUP3 PUSH2 0x5F JUMP JUMPDEST DUP2 ADD DUP2 DUP2 LT PUSH8 0xFFFFFFFFFFFFFFFF DUP3 GT OR ISZERO PUSH2 0xC4 JUMPI PUSH2 0xC3 PUSH2 0x6F JUMP JUMPDEST JUMPDEST DUP1 PUSH1 0x40 MSTORE POP POP POP JUMP JUMPDEST PUSH0 PUSH2 0xD6 PUSH2 0x46 JUMP JUMPDEST SWAP1 POP PUSH2 0xE2 DUP3 DUP3 PUSH2 0x9C JUMP JUMPDEST SWAP2 SWAP1 POP JUMP JUMPDEST PUSH0 PUSH8 0xFFFFFFFFFFFFFFFF DUP3 GT ISZERO PUSH2 0x101 JUMPI PUSH2 0x100 PUSH2 0x6F JUMP JUMPDEST JUMPDEST PUSH2 0x10A DUP3 PUSH2 0x5F JUMP JUMPDEST SWAP1 POP PUSH1 0x20 DUP2 ADD SWAP1 POP SWAP2 SWAP1 POP JUMP JUMPDEST DUP3 DUP2 DUP4 MCOPY PUSH0 DUP4 DUP4 ADD MSTORE POP POP POP JUMP JUMPDEST PUSH0 PUSH2 0x137 PUSH2 0x132 DUP5 PUSH2 0xE7 JUMP JUMPDEST PUSH2 0xCD JUMP JUMPDEST SWAP1 POP DUP3 DUP2 MSTORE PUSH1 0x20 DUP2 ADD DUP5 DUP5 DUP5 ADD GT ISZERO PUSH2 0x153 JUMPI PUSH2 0x152 PUSH2 0x5B JUMP JUMPDEST JUMPDEST PUSH2 0x15E DUP5 DUP3 DUP6 PUSH2 0x117 JUMP JUMPDEST POP SWAP4 SWAP3 POP POP POP JUMP JUMPDEST PUSH0 DUP3 PUSH1 0x1F DUP4 ADD SLT PUSH2 0x17A JUMPI PUSH2 0x179 PUSH2 0x57 JUMP JUMPDEST JUMPDEST DUP2 MLOAD PUSH2 0x18A DUP5 DUP3 PUSH1 0x20 DUP7 ADD PUSH2 0x125 JUMP JUMPDEST SWAP2 POP POP SWAP3 SWAP2 POP POP JUMP JUMPDEST PUSH0 PUSH1 0x20 DUP3 DUP5 SUB SLT ISZERO PUSH2 0x1A8 JUMPI PUSH2 0x1A7 PUSH2 0x4F JUMP JUMPDEST JUMPDEST PUSH0 DUP3 ADD MLOAD PUSH8 0xFFFFFFFFFFFFFFFF DUP2 GT ISZERO PUSH2 0x1C5 JUMPI PUSH2 0x1C4 PUSH2 0x53 JUMP JUMPDEST JUMPDEST PUSH2 0x1D1 DUP5 DUP3 DUP6 ADD PUSH2 0x166 JUMP JUMPDEST SWAP2 POP POP SWAP3 SWAP2 POP POP JUMP JUMPDEST PUSH0 DUP2 MLOAD SWAP1 POP SWAP2 SWAP1 POP JUMP JUMPDEST PUSH32 0x4E487B7100000000000000000000000000000000000000000000000000000000 PUSH0 MSTORE PUSH1 0x22 PUSH1 0x4 MSTORE PUSH1 0x24 PUSH0 REVERT JUMPDEST PUSH0 PUSH1 0x2 DUP3 DIV SWAP1 POP PUSH1 0x1 DUP3 AND DUP1 PUSH2 0x228 JUMPI PUSH1 0x7F DUP3 AND SWAP2 POP JUMPDEST PUSH1 0x20 DUP3 LT DUP2 SUB PUSH2 0x23B JUMPI PUSH2 0x23A PUSH2 0x1E4 JUMP JUMPDEST JUMPDEST POP SWAP2 SWAP1 POP JUMP JUMPDEST PUSH0 DUP2 SWAP1 POP DUP2 PUSH0 MSTORE PUSH1 0x20 PUSH0 KECCAK256 SWAP1 POP SWAP2 SWAP1 POP JUMP JUMPDEST PUSH0 PUSH1 0x20 PUSH1 0x1F DUP4 ADD DIV SWAP1 POP SWAP2 SWAP1 POP JUMP JUMPDEST PUSH0 DUP3 DUP3 SHL SWAP1 POP SWAP3 SWAP2 POP POP JUMP JUMPDEST PUSH0 PUSH1 0x8 DUP4 MUL PUSH2 0x29D PUSH32 0xFFFFFFFFFFFFFFFFFFFFFFFFFFFFFFFFFFFFFFFFFFFFFFFFFFFFFFFFFFFFFFFF DUP3 PUSH2 0x262 JUMP JUMPDEST PUSH2 0x2A7 DUP7 DUP4 PUSH2 0x262 JUMP JUMPDEST SWAP6 POP DUP1 NOT DUP5 AND SWAP4 POP DUP1 DUP7 AND DUP5 OR SWAP3 POP POP POP SWAP4 SWAP3 POP POP POP JUMP JUMPDEST PUSH0 DUP2 SWAP1 POP SWAP2 SWAP1 POP JUMP JUMPDEST PUSH0 DUP2 SWAP1 POP SWAP2 SWAP1 POP JUMP JUMPDEST PUSH0 PUSH2 0x2EB PUSH2 0x2E6 PUSH2 0x2E1 DUP5 PUSH2 0x2BF JUMP JUMPDEST PUSH2 0x2C8 JUMP JUMPDEST PUSH2 0x2BF JUMP JUMPDEST SWAP1 POP SWAP2 SWAP1 POP JUMP JUMPDEST PUSH0 DUP2 SWAP1 POP SWAP2 SWAP1 POP JUMP JUMPDEST PUSH2 0x304 DUP4 PUSH2 0x2D1 JUMP JUMPDEST PUSH2 0x318 PUSH2 0x310 DUP3 PUSH2 0x2F2 JUMP JUMPDEST DUP5 DUP5 SLOAD PUSH2 0x26E JUMP JUMPDEST DUP3 SSTORE POP POP POP POP JUMP JUMPDEST PUSH0 SWAP1 JUMP JUMPDEST PUSH2 0x32C PUSH2 0x320 JUMP JUMPDEST PUSH2 0x337 DUP2 DUP5 DUP5 PUSH2 0x2FB JUMP JUMPDEST POP POP POP JUMP JUMPDEST JUMPDEST DUP2 DUP2 LT ISZERO PUSH2 0x35A JUMPI PUSH2 0x34F PUSH0 DUP3 PUSH2 0x324 JUMP JUMPDEST PUSH1 0x1 DUP2 ADD SWAP1 POP PUSH2 0x33D JUMP JUMPDEST POP POP JUMP JUMPDEST PUSH1 0x1F DUP3 GT ISZERO PUSH2 0x39F JUMPI PUSH2 0x370 DUP2 PUSH2 0x241 JUMP JUMPDEST PUSH2 0x379 DUP5 PUSH2 0x253 JUMP JUMPDEST DUP2 ADD PUSH1 0x20 DUP6 LT ISZERO PUSH2 0x388 JUMPI DUP2 SWAP1 POP JUMPDEST PUSH2 0x39C PUSH2 0x394 DUP6 PUSH2 0x253 JUMP JUMPDEST DUP4 ADD DUP3 PUSH2 0x33C JUMP JUMPDEST POP POP JUMPDEST POP POP POP JUMP JUMPDEST PUSH0 DUP3 DUP3 SHR SWAP1 POP SWAP3 SWAP2 POP POP JUMP JUMPDEST PUSH0 PUSH2 0x3BF PUSH0 NOT DUP5 PUSH1 0x8 MUL PUSH2 0x3A4 JUMP JUMPDEST NOT DUP1 DUP4 AND SWAP2 POP POP SWAP3 SWAP2 POP POP JUMP JUMPDEST PUSH0 PUSH2 0x3D7 DUP4 DUP4 PUSH2 0x3B0 JUMP JUMPDEST SWAP2 POP DUP3 PUSH1 0x2 MUL DUP3 OR SWAP1 POP SWAP3 SWAP2 POP POP JUMP JUMPDEST PUSH2 0x3F0 DUP3 PUSH2 0x1DA JUMP JUMPDEST PUSH8 0xFFFFFFFFFFFFFFFF DUP2 GT ISZERO PUSH2 0x409 JUMPI PUSH2 0x408 PUSH2 0x6F JUMP JUMPDEST JUMPDEST PUSH2 0x413 DUP3 SLOAD PUSH2 0x211 JUMP JUMPDEST PUSH2 0x41E DUP3 DUP3 DUP6 PUSH2 0x35E JUMP JUMPDEST PUSH0 PUSH1 0x20 SWAP1 POP PUSH1 0x1F DUP4 GT PUSH1 0x1 DUP2 EQ PUSH2 0x44F JUMPI PUSH0 DUP5 ISZERO PUSH2 0x43D JUMPI DUP3 DUP8 ADD MLOAD SWAP1 POP JUMPDEST PUSH2 0x447 DUP6 DUP3 PUSH2 0x3CC JUMP JUMPDEST DUP7 SSTORE POP PUSH2 0x4AE JUMP JUMPDEST PUSH1 0x1F NOT DUP5 AND PUSH2 0x45D DUP7 PUSH2 0x241 JUMP JUMPDEST PUSH0 JUMPDEST DUP3 DUP2 LT ISZERO PUSH2 0x484 JUMPI DUP5 DUP10 ADD MLOAD DUP3 SSTORE PUSH1 0x1 DUP3 ADD SWAP2 POP PUSH1 0x20 DUP6 ADD SWAP5 POP PUSH1 0x20 DUP2 ADD SWAP1 POP PUSH2 0x45F JUMP JUMPDEST DUP7 DUP4 LT ISZERO PUSH2 0x4A1 JUMPI DUP5 DUP10 ADD MLOAD PUSH2 0x49D PUSH1 0x1F DUP10 AND DUP3 PUSH2 0x3B0 JUMP JUMPDEST DUP4 SSTORE POP JUMPDEST PUSH1 0x1 PUSH1 0x2 DUP9 MUL ADD DUP9 SSTORE POP POP POP JUMPDEST POP POP POP POP POP POP JUMP JUMPDEST PUSH2 0x1FD DUP1 PUSH2 0x4C3 PUSH0 CODECOPY PUSH0 RETURN INVALID PUSH1 0x80 PUSH1 0x40 MSTORE CALLVALUE DUP1 ISZERO PUSH2 0xF JUMPI PUSH0 DUP1 REVERT JUMPDEST POP PUSH1 0x4 CALLDATASIZE LT PUSH2 0x29 JUMPI PUSH0 CALLDATALOAD PUSH1 0xE0 SHR DUP1 PUSH4 0x5B9FDC30 EQ PUSH2 0x2D JUMPI JUMPDEST PUSH0 DUP1 REVERT JUMPDEST PUSH2 0x35 PUSH2 0x4B JUMP JUMPDEST PUSH1 0x40 MLOAD PUSH2 0x42 SWAP2 SWAP1 PUSH2 0x14A JUMP JUMPDEST PUSH1 0x40 MLOAD DUP1 SWAP2 SUB SWAP1 RETURN JUMPDEST PUSH1 0x60 PUSH0 DUP1 SLOAD PUSH2 0x59 SWAP1 PUSH2 0x197 JUMP JUMPDEST DUP1 PUSH1 0x1F ADD PUSH1 0x20 DUP1 SWAP2 DIV MUL PUSH1 0x20 ADD PUSH1 0x40 MLOAD SWAP1 DUP2 ADD PUSH1 0x40 MSTORE DUP1 SWAP3 SWAP2 SWAP1 DUP2 DUP2 MSTORE PUSH1 0x20 ADD DUP3 DUP1 SLOAD PUSH2 0x85 SWAP1 PUSH2 0x197 JUMP JUMPDEST DUP1 ISZERO PUSH2 0xD0 JUMPI DUP1 PUSH1 0x1F LT PUSH2 0xA7 JUMPI PUSH2 0x100 DUP1 DUP4 SLOAD DIV MUL DUP4 MSTORE SWAP2 PUSH1 0x20 ADD SWAP2 PUSH2 0xD0 JUMP JUMPDEST DUP3 ADD SWAP2 SWAP1 PUSH0 MSTORE PUSH1 0x20 PUSH0 KECCAK256 SWAP1 JUMPDEST DUP2 SLOAD DUP2 MSTORE SWAP1 PUSH1 0x1 ADD SWAP1 PUSH1 0x20 ADD DUP1 DUP4 GT PUSH2 0xB3 JUMPI DUP3 SWAP1 SUB PUSH1 0x1F AND DUP3 ADD SWAP2 JUMPDEST POP POP POP POP POP SWAP1 POP SWAP1 JUMP JUMPDEST PUSH0 DUP2 MLOAD SWAP1 POP SWAP2 SWAP1 POP JUMP JUMPDEST PUSH0 DUP3 DUP3 MSTORE PUSH1 0x20 DUP3 ADD SWAP1 POP SWAP3 SWAP2 POP POP JUMP JUMPDEST DUP3 DUP2 DUP4 MCOPY PUSH0 DUP4 DUP4 ADD MSTORE POP POP POP JUMP JUMPDEST PUSH0 PUSH1 0x1F NOT PUSH1 0x1F DUP4 ADD AND SWAP1 POP SWAP2 SWAP1 POP JUMP JUMPDEST PUSH0 PUSH2 0x11C DUP3 PUSH2 0xDA JUMP JUMPDEST PUSH2 0x126 DUP2 DUP6 PUSH2 0xE4 JUMP JUMPDEST SWAP4 POP PUSH2 0x136 DUP2 DUP6 PUSH1 0x20 DUP7 ADD PUSH2 0xF4 JUMP JUMPDEST PUSH2 0x13F DUP2 PUSH2 0x102 JUMP JUMPDEST DUP5 ADD SWAP2 POP POP SWAP3 SWAP2 POP POP JUMP JUMPDEST PUSH0 PUSH1 0x20 DUP3 ADD SWAP1 POP DUP2 DUP2 SUB PUSH0 DUP4 ADD MSTORE PUSH2 0x162 DUP2 DUP5 PUSH2 0x112 JUMP JUMPDEST SWAP1 POP SWAP3 SWAP2 POP POP JUMP JUMPDEST PUSH32 0x4E487B7100000000000000000000000000000000000000000000000000000000 PUSH0 MSTORE PUSH1 0x22 PUSH1 0x4 MSTORE PUSH1 0x24 PUSH0 REVERT JUMPDEST PUSH0 PUSH1 0x2 DUP3 DIV SWAP1 POP PUSH1 0x1 DUP3 AND DUP1 PUSH2 0x1AE JUMPI PUSH1 0x7F DUP3 AND SWAP2 POP JUMPDEST PUSH1 0x20 DUP3 LT DUP2 SUB PUSH2 0x1C1 JUMPI PUSH2 0x1C0 PUSH2 0x16A JUMP JUMPDEST JUMPDEST POP SWAP2 SWAP1 POP JUMP INVALID LOG2 PUSH5 0x6970667358 0x22 SLT KECCAK256 0xDD JUMPI PUSH21 0x2F59E46A015901F33CF6F2C4BBC72FEC1746EBAC16 SMOD SWAP13 SAR SMOD RETURN SUB 0xFC PUSH7 0x64736F6C634300 ADDMOD BYTE STOP CALLER "
				},
				"gasEstimates": {
					"creation": {
						"codeDepositCost": "151000",
						"executionCost": "infinite",
						"totalCost": "infinite"
					},
					"external": {
						"getSecret()": "infinite"
					}
				},
				"methodIdentifiers": {
					"getSecret()": "5b9fdc30"
				}
			},
			"storageLayout": {
				"storage": [
					{
						"astId": 3,
						"contract": "SolidityFromYT/05_MySecret.sol:MySecret",
						"label": "owner",
						"offset": 0,
						"slot": "0",
						"type": "t_address"
					},
					{
						"astId": 50,
						"contract": "SolidityFromYT/05_MySecret.sol:MySecret",
						"label": "s",
						"offset": 0,
						"slot": "1",
						"type": "t_string_storage"
					}
				],
				"types": {
					"t_address": {
						"encoding": "inplace",
						"label": "address",
						"numberOfBytes": "20"
					},
					"t_string_storage": {
						"encoding": "bytes",
						"label": "string",
						"numberOfBytes": "32"
					}
				}
			},
			"userdoc": {
				"kind": "user",
				"methods": {},
				"version": 1
			}
		}
	}
}