{
	"data": {
		"bytecode": {
			"linkReferences": {},
			"object": "6080604052348015600e575f80fd5b506101f68061001c5f395ff3fe608060405234801561000f575f80fd5b5060043610610029575f3560e01c80630b95d2281461002d575b5f80fd5b610047600480360381019061004291906100cc565b61005d565b6040516100549190610106565b60405180910390f35b5f6002821061008b5761007b600183610076919061014c565b61005d565b82610086919061017f565b61008e565b60015b9050919050565b5f80fd5b5f819050919050565b6100ab81610099565b81146100b5575f80fd5b50565b5f813590506100c6816100a2565b92915050565b5f602082840312156100e1576100e0610095565b5b5f6100ee848285016100b8565b91505092915050565b61010081610099565b82525050565b5f6020820190506101195f8301846100f7565b92915050565b7f4e487b71000000000000000000000000000000000000000000000000000000005f52601160045260245ffd5b5f61015682610099565b915061016183610099565b92508282039050818111156101795761017861011f565b5b92915050565b5f61018982610099565b915061019483610099565b92508282026101a281610099565b915082820484148315176101b9576101b861011f565b5b509291505056fea2646970667358221220efd09897f42178d2b7413715c9f0f559647820fdea94ea0d5f5425a79614b9b864736f6c634300081a0033",
			"opcodes": "PUSH1 0x80 PUSH1 0x40 MSTORE CALLVALUE DUP1 ISZERO PUSH1 0xE JUMPI PUSH0 DUP1 REVERT JUMPDEST POP PUSH2 0x1F6 DUP1 PUSH2 0x1C PUSH0 CODECOPY PUSH0 RETURN INVALID PUSH1 0x80 PUSH1 0x40 MSTORE CALLVALUE DUP1 ISZERO PUSH2 0xF JUMPI PUSH0 DUP1 REVERT JUMPDEST POP PUSH1 0x4 CALLDATASIZE LT PUSH2 0x29 JUMPI PUSH0 CALLDATALOAD PUSH1 0xE0 SHR DUP1 PUSH4 0xB95D228 EQ PUSH2 0x2D JUMPI JUMPDEST PUSH0 DUP1 REVERT JUMPDEST PUSH2 0x47 PUSH1 0x4 DUP1 CALLDATASIZE SUB DUP2 ADD SWAP1 PUSH2 0x42 SWAP2 SWAP1 PUSH2 0xCC JUMP JUMPDEST PUSH2 0x5D JUMP JUMPDEST PUSH1 0x40 MLOAD PUSH2 0x54 SWAP2 SWAP1 PUSH2 0x106 JUMP JUMPDEST PUSH1 0x40 MLOAD DUP1 SWAP2 SUB SWAP1 RETURN JUMPDEST PUSH0 PUSH1 0x2 DUP3 LT PUSH2 0x8B JUMPI PUSH2 0x7B PUSH1 0x1 DUP4 PUSH2 0x76 SWAP2 SWAP1 PUSH2 0x14C JUMP JUMPDEST PUSH2 0x5D JUMP JUMPDEST DUP3 PUSH2 0x86 SWAP2 SWAP1 PUSH2 0x17F JUMP JUMPDEST PUSH2 0x8E JUMP JUMPDEST PUSH1 0x1 JUMPDEST SWAP1 POP SWAP2 SWAP1 POP JUMP JUMPDEST PUSH0 DUP1 REVERT JUMPDEST PUSH0 DUP2 SWAP1 POP SWAP2 SWAP1 POP JUMP JUMPDEST PUSH2 0xAB DUP2 PUSH2 0x99 JUMP JUMPDEST DUP2 EQ PUSH2 0xB5 JUMPI PUSH0 DUP1 REVERT JUMPDEST POP JUMP JUMPDEST PUSH0 DUP2 CALLDATALOAD SWAP1 POP PUSH2 0xC6 DUP2 PUSH2 0xA2 JUMP JUMPDEST SWAP3 SWAP2 POP POP JUMP JUMPDEST PUSH0 PUSH1 0x20 DUP3 DUP5 SUB SLT ISZERO PUSH2 0xE1 JUMPI PUSH2 0xE0 PUSH2 0x95 JUMP JUMPDEST JUMPDEST PUSH0 PUSH2 0xEE DUP5 DUP3 DUP6 ADD PUSH2 0xB8 JUMP JUMPDEST SWAP2 POP POP SWAP3 SWAP2 POP POP JUMP JUMPDEST PUSH2 0x100 DUP2 PUSH2 0x99 JUMP JUMPDEST DUP3 MSTORE POP POP JUMP JUMPDEST PUSH0 PUSH1 0x20 DUP3 ADD SWAP1 POP PUSH2 0x119 PUSH0 DUP4 ADD DUP5 PUSH2 0xF7 JUMP JUMPDEST SWAP3 SWAP2 POP POP JUMP JUMPDEST PUSH32 0x4E487B7100000000000000000000000000000000000000000000000000000000 PUSH0 MSTORE PUSH1 0x11 PUSH1 0x4 MSTORE PUSH1 0x24 PUSH0 REVERT JUMPDEST PUSH0 PUSH2 0x156 DUP3 PUSH2 0x99 JUMP JUMPDEST SWAP2 POP PUSH2 0x161 DUP4 PUSH2 0x99 JUMP JUMPDEST SWAP3 POP DUP3 DUP3 SUB SWAP1 POP DUP2 DUP2 GT ISZERO PUSH2 0x179 JUMPI PUSH2 0x178 PUSH2 0x11F JUMP JUMPDEST JUMPDEST SWAP3 SWAP2 POP POP JUMP JUMPDEST PUSH0 PUSH2 0x189 DUP3 PUSH2 0x99 JUMP JUMPDEST SWAP2 POP PUSH2 0x194 DUP4 PUSH2 0x99 JUMP JUMPDEST SWAP3 POP DUP3 DUP3 MUL PUSH2 0x1A2 DUP2 PUSH2 0x99 JUMP JUMPDEST SWAP2 POP DUP3 DUP3 DIV DUP5 EQ DUP4 ISZERO OR PUSH2 0x1B9 JUMPI PUSH2 0x1B8 PUSH2 0x11F JUMP JUMPDEST JUMPDEST POP SWAP3 SWAP2 POP POP JUMP INVALID LOG2 PUSH5 0x6970667358 0x22 SLT KECCAK256 0xEF 0xD0 SWAP9 SWAP8 DELEGATECALL 0x21 PUSH25 0xD2B7413715C9F0F559647820FDEA94EA0D5F5425A79614B9B8 PUSH5 0x736F6C6343 STOP ADDMOD BYTE STOP CALLER "
		},
		"gasEstimates": {
			"creation": {
				"codeDepositCost": "100400",
				"executionCost": "145",
				"totalCost": "100545"
			},
			"external": {
				"fact(uint256)": "infinite"
			}
		},
		"methodIdentifiers": {
			"fact(uint256)": "0b95d228"
		}
	},
	"abi": [
		{
			"inputs": [
				{
					"internalType": "uint256",
					"name": "_x",
					"type": "uint256"
				}
			],
			"name": "fact",
			"outputs": [
				{
					"internalType": "uint256",
					"name": "",
					"type": "uint256"
				}
			],
			"stateMutability": "pure",
			"type": "function"
		}
	]
}