{
	"046/simpleInterest.sol": {
		"SimpleInterest": {
			"abi": [
				{
					"inputs": [],
					"name": "calculateSI",
					"outputs": [],
					"stateMutability": "nonpayable",
					"type": "function"
				},
				{
					"inputs": [],
					"name": "getSI",
					"outputs": [
						{
							"internalType": "uint256",
							"name": "",
							"type": "uint256"
						}
					],
					"stateMutability": "view",
					"type": "function"
				},
				{
					"inputs": [
						{
							"internalType": "uint256",
							"name": "_p",
							"type": "uint256"
						},
						{
							"internalType": "uint256",
							"name": "_t",
							"type": "uint256"
						},
						{
							"internalType": "uint256",
							"name": "_r",
							"type": "uint256"
						}
					],
					"name": "setValue",
					"outputs": [],
					"stateMutability": "nonpayable",
					"type": "function"
				}
			],
			"devdoc": {
				"kind": "dev",
				"methods": {},
				"version": 1
			},
			"evm": {
				"assembly": "    /* \"046/simpleInterest.sol\":68:432  contract SimpleInterest {... */\n  mstore(0x40, 0x80)\n  callvalue\n  dup1\n  iszero\n  tag_1\n  jumpi\n  0x00\n  dup1\n  revert\ntag_1:\n  pop\n  dataSize(sub_0)\n  dup1\n  dataOffset(sub_0)\n  0x00\n  codecopy\n  0x00\n  return\nstop\n\nsub_0: assembly {\n        /* \"046/simpleInterest.sol\":68:432  contract SimpleInterest {... */\n      mstore(0x40, 0x80)\n      callvalue\n      dup1\n      iszero\n      tag_1\n      jumpi\n      0x00\n      dup1\n      revert\n    tag_1:\n      pop\n      jumpi(tag_2, lt(calldatasize, 0x04))\n      shr(0xe0, calldataload(0x00))\n      dup1\n      0x5386bf7a\n      eq\n      tag_3\n      jumpi\n      dup1\n      0x9ad78b7d\n      eq\n      tag_4\n      jumpi\n      dup1\n      0xeb63eadd\n      eq\n      tag_5\n      jumpi\n    tag_2:\n      0x00\n      dup1\n      revert\n        /* \"046/simpleInterest.sol\":285:347  function calculateSI() public{... */\n    tag_3:\n      tag_6\n      tag_7\n      jump\t// in\n    tag_6:\n      stop\n        /* \"046/simpleInterest.sol\":355:429  function getSI() public view returns(uint256) {... */\n    tag_4:\n      tag_8\n      tag_9\n      jump\t// in\n    tag_8:\n      mload(0x40)\n      tag_10\n      swap2\n      swap1\n      tag_11\n      jump\t// in\n    tag_10:\n      mload(0x40)\n      dup1\n      swap2\n      sub\n      swap1\n      return\n        /* \"046/simpleInterest.sol\":166:277  function setValue(uint256 _p,uint256 _t,uint256 _r) public{... */\n    tag_5:\n      tag_12\n      0x04\n      dup1\n      calldatasize\n      sub\n      dup2\n      add\n      swap1\n      tag_13\n      swap2\n      swap1\n      tag_14\n      jump\t// in\n    tag_13:\n      tag_15\n      jump\t// in\n    tag_12:\n      stop\n        /* \"046/simpleInterest.sol\":285:347  function calculateSI() public{... */\n    tag_7:\n        /* \"046/simpleInterest.sol\":336:339  100 */\n      0x64\n        /* \"046/simpleInterest.sol\":333:334  r */\n      sload(0x02)\n        /* \"046/simpleInterest.sol\":331:332  t */\n      sload(0x01)\n        /* \"046/simpleInterest.sol\":329:330  p */\n      sload(0x00)\n        /* \"046/simpleInterest.sol\":329:332  p*t */\n      tag_17\n      swap2\n      swap1\n      tag_18\n      jump\t// in\n    tag_17:\n        /* \"046/simpleInterest.sol\":329:334  p*t*r */\n      tag_19\n      swap2\n      swap1\n      tag_18\n      jump\t// in\n    tag_19:\n        /* \"046/simpleInterest.sol\":328:339  (p*t*r)/100 */\n      tag_20\n      swap2\n      swap1\n      tag_21\n      jump\t// in\n    tag_20:\n        /* \"046/simpleInterest.sol\":325:327  SI */\n      0x03\n        /* \"046/simpleInterest.sol\":325:339  SI=(p*t*r)/100 */\n      dup2\n      swap1\n      sstore\n      pop\n        /* \"046/simpleInterest.sol\":285:347  function calculateSI() public{... */\n      jump\t// out\n        /* \"046/simpleInterest.sol\":355:429  function getSI() public view returns(uint256) {... */\n    tag_9:\n        /* \"046/simpleInterest.sol\":392:399  uint256 */\n      0x00\n        /* \"046/simpleInterest.sol\":419:421  SI */\n      sload(0x03)\n        /* \"046/simpleInterest.sol\":412:421  return SI */\n      swap1\n      pop\n        /* \"046/simpleInterest.sol\":355:429  function getSI() public view returns(uint256) {... */\n      swap1\n      jump\t// out\n        /* \"046/simpleInterest.sol\":166:277  function setValue(uint256 _p,uint256 _t,uint256 _r) public{... */\n    tag_15:\n        /* \"046/simpleInterest.sol\":237:239  _p */\n      dup3\n        /* \"046/simpleInterest.sol\":235:236  p */\n      0x00\n        /* \"046/simpleInterest.sol\":235:239  p=_p */\n      dup2\n      swap1\n      sstore\n      pop\n        /* \"046/simpleInterest.sol\":252:254  _t */\n      dup2\n        /* \"046/simpleInterest.sol\":250:251  t */\n      0x01\n        /* \"046/simpleInterest.sol\":250:254  t=_t */\n      dup2\n      swap1\n      sstore\n      pop\n        /* \"046/simpleInterest.sol\":267:269  _r */\n      dup1\n        /* \"046/simpleInterest.sol\":265:266  r */\n      0x02\n        /* \"046/simpleInterest.sol\":265:269  r=_r */\n      dup2\n      swap1\n      sstore\n      pop\n        /* \"046/simpleInterest.sol\":166:277  function setValue(uint256 _p,uint256 _t,uint256 _r) public{... */\n      pop\n      pop\n      pop\n      jump\t// out\n        /* \"#utility.yul\":7:84   */\n    tag_24:\n        /* \"#utility.yul\":44:51   */\n      0x00\n        /* \"#utility.yul\":73:78   */\n      dup2\n        /* \"#utility.yul\":62:78   */\n      swap1\n      pop\n        /* \"#utility.yul\":7:84   */\n      swap2\n      swap1\n      pop\n      jump\t// out\n        /* \"#utility.yul\":90:208   */\n    tag_25:\n        /* \"#utility.yul\":177:201   */\n      tag_36\n        /* \"#utility.yul\":195:200   */\n      dup2\n        /* \"#utility.yul\":177:201   */\n      tag_24\n      jump\t// in\n    tag_36:\n        /* \"#utility.yul\":172:175   */\n      dup3\n        /* \"#utility.yul\":165:202   */\n      mstore\n        /* \"#utility.yul\":90:208   */\n      pop\n      pop\n      jump\t// out\n        /* \"#utility.yul\":214:436   */\n    tag_11:\n        /* \"#utility.yul\":307:311   */\n      0x00\n        /* \"#utility.yul\":345:347   */\n      0x20\n        /* \"#utility.yul\":334:343   */\n      dup3\n        /* \"#utility.yul\":330:348   */\n      add\n        /* \"#utility.yul\":322:348   */\n      swap1\n      pop\n        /* \"#utility.yul\":358:429   */\n      tag_38\n        /* \"#utility.yul\":426:427   */\n      0x00\n        /* \"#utility.yul\":415:424   */\n      dup4\n        /* \"#utility.yul\":411:428   */\n      add\n        /* \"#utility.yul\":402:408   */\n      dup5\n        /* \"#utility.yul\":358:429   */\n      tag_25\n      jump\t// in\n    tag_38:\n        /* \"#utility.yul\":214:436   */\n      swap3\n      swap2\n      pop\n      pop\n      jump\t// out\n        /* \"#utility.yul\":523:640   */\n    tag_27:\n        /* \"#utility.yul\":632:633   */\n      0x00\n        /* \"#utility.yul\":629:630   */\n      dup1\n        /* \"#utility.yul\":622:634   */\n      revert\n        /* \"#utility.yul\":769:891   */\n    tag_29:\n        /* \"#utility.yul\":842:866   */\n      tag_43\n        /* \"#utility.yul\":860:865   */\n      dup2\n        /* \"#utility.yul\":842:866   */\n      tag_24\n      jump\t// in\n    tag_43:\n        /* \"#utility.yul\":835:840   */\n      dup2\n        /* \"#utility.yul\":832:867   */\n      eq\n        /* \"#utility.yul\":822:885   */\n      tag_44\n      jumpi\n        /* \"#utility.yul\":881:882   */\n      0x00\n        /* \"#utility.yul\":878:879   */\n      dup1\n        /* \"#utility.yul\":871:883   */\n      revert\n        /* \"#utility.yul\":822:885   */\n    tag_44:\n        /* \"#utility.yul\":769:891   */\n      pop\n      jump\t// out\n        /* \"#utility.yul\":897:1036   */\n    tag_30:\n        /* \"#utility.yul\":943:948   */\n      0x00\n        /* \"#utility.yul\":981:987   */\n      dup2\n        /* \"#utility.yul\":968:988   */\n      calldataload\n        /* \"#utility.yul\":959:988   */\n      swap1\n      pop\n        /* \"#utility.yul\":997:1030   */\n      tag_46\n        /* \"#utility.yul\":1024:1029   */\n      dup2\n        /* \"#utility.yul\":997:1030   */\n      tag_29\n      jump\t// in\n    tag_46:\n        /* \"#utility.yul\":897:1036   */\n      swap3\n      swap2\n      pop\n      pop\n      jump\t// out\n        /* \"#utility.yul\":1042:1661   */\n    tag_14:\n        /* \"#utility.yul\":1119:1125   */\n      0x00\n        /* \"#utility.yul\":1127:1133   */\n      dup1\n        /* \"#utility.yul\":1135:1141   */\n      0x00\n        /* \"#utility.yul\":1184:1186   */\n      0x60\n        /* \"#utility.yul\":1172:1181   */\n      dup5\n        /* \"#utility.yul\":1163:1170   */\n      dup7\n        /* \"#utility.yul\":1159:1182   */\n      sub\n        /* \"#utility.yul\":1155:1187   */\n      slt\n        /* \"#utility.yul\":1152:1271   */\n      iszero\n      tag_48\n      jumpi\n        /* \"#utility.yul\":1190:1269   */\n      tag_49\n      tag_27\n      jump\t// in\n    tag_49:\n        /* \"#utility.yul\":1152:1271   */\n    tag_48:\n        /* \"#utility.yul\":1310:1311   */\n      0x00\n        /* \"#utility.yul\":1335:1388   */\n      tag_50\n        /* \"#utility.yul\":1380:1387   */\n      dup7\n        /* \"#utility.yul\":1371:1377   */\n      dup3\n        /* \"#utility.yul\":1360:1369   */\n      dup8\n        /* \"#utility.yul\":1356:1378   */\n      add\n        /* \"#utility.yul\":1335:1388   */\n      tag_30\n      jump\t// in\n    tag_50:\n        /* \"#utility.yul\":1325:1388   */\n      swap4\n      pop\n        /* \"#utility.yul\":1281:1398   */\n      pop\n        /* \"#utility.yul\":1437:1439   */\n      0x20\n        /* \"#utility.yul\":1463:1516   */\n      tag_51\n        /* \"#utility.yul\":1508:1515   */\n      dup7\n        /* \"#utility.yul\":1499:1505   */\n      dup3\n        /* \"#utility.yul\":1488:1497   */\n      dup8\n        /* \"#utility.yul\":1484:1506   */\n      add\n        /* \"#utility.yul\":1463:1516   */\n      tag_30\n      jump\t// in\n    tag_51:\n        /* \"#utility.yul\":1453:1516   */\n      swap3\n      pop\n        /* \"#utility.yul\":1408:1526   */\n      pop\n        /* \"#utility.yul\":1565:1567   */\n      0x40\n        /* \"#utility.yul\":1591:1644   */\n      tag_52\n        /* \"#utility.yul\":1636:1643   */\n      dup7\n        /* \"#utility.yul\":1627:1633   */\n      dup3\n        /* \"#utility.yul\":1616:1625   */\n      dup8\n        /* \"#utility.yul\":1612:1634   */\n      add\n        /* \"#utility.yul\":1591:1644   */\n      tag_30\n      jump\t// in\n    tag_52:\n        /* \"#utility.yul\":1581:1644   */\n      swap2\n      pop\n        /* \"#utility.yul\":1536:1654   */\n      pop\n        /* \"#utility.yul\":1042:1661   */\n      swap3\n      pop\n      swap3\n      pop\n      swap3\n      jump\t// out\n        /* \"#utility.yul\":1667:1847   */\n    tag_31:\n        /* \"#utility.yul\":1715:1792   */\n      0x4e487b7100000000000000000000000000000000000000000000000000000000\n        /* \"#utility.yul\":1712:1713   */\n      0x00\n        /* \"#utility.yul\":1705:1793   */\n      mstore\n        /* \"#utility.yul\":1812:1816   */\n      0x11\n        /* \"#utility.yul\":1809:1810   */\n      0x04\n        /* \"#utility.yul\":1802:1817   */\n      mstore\n        /* \"#utility.yul\":1836:1840   */\n      0x24\n        /* \"#utility.yul\":1833:1834   */\n      0x00\n        /* \"#utility.yul\":1826:1841   */\n      revert\n        /* \"#utility.yul\":1853:2263   */\n    tag_18:\n        /* \"#utility.yul\":1893:1900   */\n      0x00\n        /* \"#utility.yul\":1916:1936   */\n      tag_55\n        /* \"#utility.yul\":1934:1935   */\n      dup3\n        /* \"#utility.yul\":1916:1936   */\n      tag_24\n      jump\t// in\n    tag_55:\n        /* \"#utility.yul\":1911:1936   */\n      swap2\n      pop\n        /* \"#utility.yul\":1950:1970   */\n      tag_56\n        /* \"#utility.yul\":1968:1969   */\n      dup4\n        /* \"#utility.yul\":1950:1970   */\n      tag_24\n      jump\t// in\n    tag_56:\n        /* \"#utility.yul\":1945:1970   */\n      swap3\n      pop\n        /* \"#utility.yul\":2005:2006   */\n      dup3\n        /* \"#utility.yul\":2002:2003   */\n      dup3\n        /* \"#utility.yul\":1998:2007   */\n      mul\n        /* \"#utility.yul\":2027:2057   */\n      tag_57\n        /* \"#utility.yul\":2045:2056   */\n      dup2\n        /* \"#utility.yul\":2027:2057   */\n      tag_24\n      jump\t// in\n    tag_57:\n        /* \"#utility.yul\":2016:2057   */\n      swap2\n      pop\n        /* \"#utility.yul\":2206:2207   */\n      dup3\n        /* \"#utility.yul\":2197:2204   */\n      dup3\n        /* \"#utility.yul\":2193:2208   */\n      div\n        /* \"#utility.yul\":2190:2191   */\n      dup5\n        /* \"#utility.yul\":2187:2209   */\n      eq\n        /* \"#utility.yul\":2167:2168   */\n      dup4\n        /* \"#utility.yul\":2160:2169   */\n      iszero\n        /* \"#utility.yul\":2140:2223   */\n      or\n        /* \"#utility.yul\":2117:2256   */\n      tag_58\n      jumpi\n        /* \"#utility.yul\":2236:2254   */\n      tag_59\n      tag_31\n      jump\t// in\n    tag_59:\n        /* \"#utility.yul\":2117:2256   */\n    tag_58:\n        /* \"#utility.yul\":1901:2263   */\n      pop\n        /* \"#utility.yul\":1853:2263   */\n      swap3\n      swap2\n      pop\n      pop\n      jump\t// out\n        /* \"#utility.yul\":2269:2449   */\n    tag_32:\n        /* \"#utility.yul\":2317:2394   */\n      0x4e487b7100000000000000000000000000000000000000000000000000000000\n        /* \"#utility.yul\":2314:2315   */\n      0x00\n        /* \"#utility.yul\":2307:2395   */\n      mstore\n        /* \"#utility.yul\":2414:2418   */\n      0x12\n        /* \"#utility.yul\":2411:2412   */\n      0x04\n        /* \"#utility.yul\":2404:2419   */\n      mstore\n        /* \"#utility.yul\":2438:2442   */\n      0x24\n        /* \"#utility.yul\":2435:2436   */\n      0x00\n        /* \"#utility.yul\":2428:2443   */\n      revert\n        /* \"#utility.yul\":2455:2640   */\n    tag_21:\n        /* \"#utility.yul\":2495:2496   */\n      0x00\n        /* \"#utility.yul\":2512:2532   */\n      tag_62\n        /* \"#utility.yul\":2530:2531   */\n      dup3\n        /* \"#utility.yul\":2512:2532   */\n      tag_24\n      jump\t// in\n    tag_62:\n        /* \"#utility.yul\":2507:2532   */\n      swap2\n      pop\n        /* \"#utility.yul\":2546:2566   */\n      tag_63\n        /* \"#utility.yul\":2564:2565   */\n      dup4\n        /* \"#utility.yul\":2546:2566   */\n      tag_24\n      jump\t// in\n    tag_63:\n        /* \"#utility.yul\":2541:2566   */\n      swap3\n      pop\n        /* \"#utility.yul\":2585:2586   */\n      dup3\n        /* \"#utility.yul\":2575:2610   */\n      tag_64\n      jumpi\n        /* \"#utility.yul\":2590:2608   */\n      tag_65\n      tag_32\n      jump\t// in\n    tag_65:\n        /* \"#utility.yul\":2575:2610   */\n    tag_64:\n        /* \"#utility.yul\":2632:2633   */\n      dup3\n        /* \"#utility.yul\":2629:2630   */\n      dup3\n        /* \"#utility.yul\":2625:2634   */\n      div\n        /* \"#utility.yul\":2620:2634   */\n      swap1\n      pop\n        /* \"#utility.yul\":2455:2640   */\n      swap3\n      swap2\n      pop\n      pop\n      jump\t// out\n\n    auxdata: 0xa2646970667358221220792adeea1907fb00db54225eb211d1df1df7d1a4f20bdb50a10a1b8146eb2bb264736f6c634300081a0033\n}\n",
				"bytecode": {
					"linkReferences": {},
					"object": "6080604052348015600e575f80fd5b506102898061001c5f395ff3fe608060405234801561000f575f80fd5b506004361061003f575f3560e01c80635386bf7a146100435780639ad78b7d1461004d578063eb63eadd1461006b575b5f80fd5b61004b610087565b005b6100556100b7565b60405161006291906100f1565b60405180910390f35b61008560048036038101906100809190610138565b6100c0565b005b60646002546001545f5461009b91906101b5565b6100a591906101b5565b6100af9190610223565b600381905550565b5f600354905090565b825f819055508160018190555080600281905550505050565b5f819050919050565b6100eb816100d9565b82525050565b5f6020820190506101045f8301846100e2565b92915050565b5f80fd5b610117816100d9565b8114610121575f80fd5b50565b5f813590506101328161010e565b92915050565b5f805f6060848603121561014f5761014e61010a565b5b5f61015c86828701610124565b935050602061016d86828701610124565b925050604061017e86828701610124565b9150509250925092565b7f4e487b71000000000000000000000000000000000000000000000000000000005f52601160045260245ffd5b5f6101bf826100d9565b91506101ca836100d9565b92508282026101d8816100d9565b915082820484148315176101ef576101ee610188565b5b5092915050565b7f4e487b71000000000000000000000000000000000000000000000000000000005f52601260045260245ffd5b5f61022d826100d9565b9150610238836100d9565b925082610248576102476101f6565b5b82820490509291505056fea2646970667358221220792adeea1907fb00db54225eb211d1df1df7d1a4f20bdb50a10a1b8146eb2bb264736f6c634300081a0033",
					"opcodes": "PUSH1 0x80 PUSH1 0x40 MSTORE CALLVALUE DUP1 ISZERO PUSH1 0xE JUMPI PUSH0 DUP1 REVERT JUMPDEST POP PUSH2 0x289 DUP1 PUSH2 0x1C PUSH0 CODECOPY PUSH0 RETURN INVALID PUSH1 0x80 PUSH1 0x40 MSTORE CALLVALUE DUP1 ISZERO PUSH2 0xF JUMPI PUSH0 DUP1 REVERT JUMPDEST POP PUSH1 0x4 CALLDATASIZE LT PUSH2 0x3F JUMPI PUSH0 CALLDATALOAD PUSH1 0xE0 SHR DUP1 PUSH4 0x5386BF7A EQ PUSH2 0x43 JUMPI DUP1 PUSH4 0x9AD78B7D EQ PUSH2 0x4D JUMPI DUP1 PUSH4 0xEB63EADD EQ PUSH2 0x6B JUMPI JUMPDEST PUSH0 DUP1 REVERT JUMPDEST PUSH2 0x4B PUSH2 0x87 JUMP JUMPDEST STOP JUMPDEST PUSH2 0x55 PUSH2 0xB7 JUMP JUMPDEST PUSH1 0x40 MLOAD PUSH2 0x62 SWAP2 SWAP1 PUSH2 0xF1 JUMP JUMPDEST PUSH1 0x40 MLOAD DUP1 SWAP2 SUB SWAP1 RETURN JUMPDEST PUSH2 0x85 PUSH1 0x4 DUP1 CALLDATASIZE SUB DUP2 ADD SWAP1 PUSH2 0x80 SWAP2 SWAP1 PUSH2 0x138 JUMP JUMPDEST PUSH2 0xC0 JUMP JUMPDEST STOP JUMPDEST PUSH1 0x64 PUSH1 0x2 SLOAD PUSH1 0x1 SLOAD PUSH0 SLOAD PUSH2 0x9B SWAP2 SWAP1 PUSH2 0x1B5 JUMP JUMPDEST PUSH2 0xA5 SWAP2 SWAP1 PUSH2 0x1B5 JUMP JUMPDEST PUSH2 0xAF SWAP2 SWAP1 PUSH2 0x223 JUMP JUMPDEST PUSH1 0x3 DUP2 SWAP1 SSTORE POP JUMP JUMPDEST PUSH0 PUSH1 0x3 SLOAD SWAP1 POP SWAP1 JUMP JUMPDEST DUP3 PUSH0 DUP2 SWAP1 SSTORE POP DUP2 PUSH1 0x1 DUP2 SWAP1 SSTORE POP DUP1 PUSH1 0x2 DUP2 SWAP1 SSTORE POP POP POP POP JUMP JUMPDEST PUSH0 DUP2 SWAP1 POP SWAP2 SWAP1 POP JUMP JUMPDEST PUSH2 0xEB DUP2 PUSH2 0xD9 JUMP JUMPDEST DUP3 MSTORE POP POP JUMP JUMPDEST PUSH0 PUSH1 0x20 DUP3 ADD SWAP1 POP PUSH2 0x104 PUSH0 DUP4 ADD DUP5 PUSH2 0xE2 JUMP JUMPDEST SWAP3 SWAP2 POP POP JUMP JUMPDEST PUSH0 DUP1 REVERT JUMPDEST PUSH2 0x117 DUP2 PUSH2 0xD9 JUMP JUMPDEST DUP2 EQ PUSH2 0x121 JUMPI PUSH0 DUP1 REVERT JUMPDEST POP JUMP JUMPDEST PUSH0 DUP2 CALLDATALOAD SWAP1 POP PUSH2 0x132 DUP2 PUSH2 0x10E JUMP JUMPDEST SWAP3 SWAP2 POP POP JUMP JUMPDEST PUSH0 DUP1 PUSH0 PUSH1 0x60 DUP5 DUP7 SUB SLT ISZERO PUSH2 0x14F JUMPI PUSH2 0x14E PUSH2 0x10A JUMP JUMPDEST JUMPDEST PUSH0 PUSH2 0x15C DUP7 DUP3 DUP8 ADD PUSH2 0x124 JUMP JUMPDEST SWAP4 POP POP PUSH1 0x20 PUSH2 0x16D DUP7 DUP3 DUP8 ADD PUSH2 0x124 JUMP JUMPDEST SWAP3 POP POP PUSH1 0x40 PUSH2 0x17E DUP7 DUP3 DUP8 ADD PUSH2 0x124 JUMP JUMPDEST SWAP2 POP POP SWAP3 POP SWAP3 POP SWAP3 JUMP JUMPDEST PUSH32 0x4E487B7100000000000000000000000000000000000000000000000000000000 PUSH0 MSTORE PUSH1 0x11 PUSH1 0x4 MSTORE PUSH1 0x24 PUSH0 REVERT JUMPDEST PUSH0 PUSH2 0x1BF DUP3 PUSH2 0xD9 JUMP JUMPDEST SWAP2 POP PUSH2 0x1CA DUP4 PUSH2 0xD9 JUMP JUMPDEST SWAP3 POP DUP3 DUP3 MUL PUSH2 0x1D8 DUP2 PUSH2 0xD9 JUMP JUMPDEST SWAP2 POP DUP3 DUP3 DIV DUP5 EQ DUP4 ISZERO OR PUSH2 0x1EF JUMPI PUSH2 0x1EE PUSH2 0x188 JUMP JUMPDEST JUMPDEST POP SWAP3 SWAP2 POP POP JUMP JUMPDEST PUSH32 0x4E487B7100000000000000000000000000000000000000000000000000000000 PUSH0 MSTORE PUSH1 0x12 PUSH1 0x4 MSTORE PUSH1 0x24 PUSH0 REVERT JUMPDEST PUSH0 PUSH2 0x22D DUP3 PUSH2 0xD9 JUMP JUMPDEST SWAP2 POP PUSH2 0x238 DUP4 PUSH2 0xD9 JUMP JUMPDEST SWAP3 POP DUP3 PUSH2 0x248 JUMPI PUSH2 0x247 PUSH2 0x1F6 JUMP JUMPDEST JUMPDEST DUP3 DUP3 DIV SWAP1 POP SWAP3 SWAP2 POP POP JUMP INVALID LOG2 PUSH5 0x6970667358 0x22 SLT KECCAK256 PUSH26 0x2ADEEA1907FB00DB54225EB211D1DF1DF7D1A4F20BDB50A10A1B DUP2 CHAINID 0xEB 0x2B 0xB2 PUSH5 0x736F6C6343 STOP ADDMOD BYTE STOP CALLER "
				},
				"gasEstimates": {
					"creation": {
						"codeDepositCost": "129800",
						"executionCost": "175",
						"totalCost": "129975"
					},
					"external": {
						"calculateSI()": "infinite",
						"getSI()": "2432",
						"setValue(uint256,uint256,uint256)": "infinite"
					}
				},
				"methodIdentifiers": {
					"calculateSI()": "5386bf7a",
					"getSI()": "9ad78b7d",
					"setValue(uint256,uint256,uint256)": "eb63eadd"
				}
			},
			"storageLayout": {
				"storage": [
					{
						"astId": 3,
						"contract": "046/simpleInterest.sol:SimpleInterest",
						"label": "p",
						"offset": 0,
						"slot": "0",
						"type": "t_uint256"
					},
					{
						"astId": 5,
						"contract": "046/simpleInterest.sol:SimpleInterest",
						"label": "t",
						"offset": 0,
						"slot": "1",
						"type": "t_uint256"
					},
					{
						"astId": 7,
						"contract": "046/simpleInterest.sol:SimpleInterest",
						"label": "r",
						"offset": 0,
						"slot": "2",
						"type": "t_uint256"
					},
					{
						"astId": 9,
						"contract": "046/simpleInterest.sol:SimpleInterest",
						"label": "SI",
						"offset": 0,
						"slot": "3",
						"type": "t_uint256"
					}
				],
				"types": {
					"t_uint256": {
						"encoding": "inplace",
						"label": "uint256",
						"numberOfBytes": "32"
					}
				}
			},
			"userdoc": {
				"kind": "user",
				"methods": {},
				"version": 1
			}
		}
	}
}