{
	"Class/first.sol": {
		"Swap": {
			"abi": [
				{
					"inputs": [],
					"name": "retrieve",
					"outputs": [
						{
							"internalType": "uint256",
							"name": "",
							"type": "uint256"
						},
						{
							"internalType": "uint256",
							"name": "",
							"type": "uint256"
						}
					],
					"stateMutability": "view",
					"type": "function"
				},
				{
					"inputs": [
						{
							"internalType": "uint256",
							"name": "",
							"type": "uint256"
						},
						{
							"internalType": "uint256",
							"name": "",
							"type": "uint256"
						}
					],
					"name": "store",
					"outputs": [],
					"stateMutability": "nonpayable",
					"type": "function"
				}
			],
			"devdoc": {
				"kind": "dev",
				"methods": {},
				"version": 1
			},
			"evm": {
				"assembly": "    /* \"Class/first.sol\":74:367  contract Swap {... */\n  mstore(0x40, 0x80)\n  callvalue\n  dup1\n  iszero\n  tag_1\n  jumpi\n  0x00\n  dup1\n  revert\ntag_1:\n  pop\n  dataSize(sub_0)\n  dup1\n  dataOffset(sub_0)\n  0x00\n  codecopy\n  0x00\n  return\nstop\n\nsub_0: assembly {\n        /* \"Class/first.sol\":74:367  contract Swap {... */\n      mstore(0x40, 0x80)\n      callvalue\n      dup1\n      iszero\n      tag_1\n      jumpi\n      0x00\n      dup1\n      revert\n    tag_1:\n      pop\n      jumpi(tag_2, lt(calldatasize, 0x04))\n      shr(0xe0, calldataload(0x00))\n      dup1\n      0x2e64cec1\n      eq\n      tag_3\n      jumpi\n      dup1\n      0x6ed28ed0\n      eq\n      tag_4\n      jumpi\n    tag_2:\n      0x00\n      dup1\n      revert\n        /* \"Class/first.sol\":269:362  function retrieve() public view returns(uint256,uint256){... */\n    tag_3:\n      tag_5\n      tag_6\n      jump\t// in\n    tag_5:\n      mload(0x40)\n      tag_7\n      swap3\n      swap2\n      swap1\n      tag_8\n      jump\t// in\n    tag_7:\n      mload(0x40)\n      dup1\n      swap2\n      sub\n      swap1\n      return\n        /* \"Class/first.sol\":135:261  function store(uint256 ,uint256 ) public {... */\n    tag_4:\n      tag_9\n      0x04\n      dup1\n      calldatasize\n      sub\n      dup2\n      add\n      swap1\n      tag_10\n      swap2\n      swap1\n      tag_11\n      jump\t// in\n    tag_10:\n      tag_12\n      jump\t// in\n    tag_9:\n      stop\n        /* \"Class/first.sol\":269:362  function retrieve() public view returns(uint256,uint256){... */\n    tag_6:\n        /* \"Class/first.sol\":309:316  uint256 */\n      0x00\n        /* \"Class/first.sol\":317:324  uint256 */\n      dup1\n        /* \"Class/first.sol\":344:348  num1 */\n      sload(0x00)\n        /* \"Class/first.sol\":349:353  num2 */\n      sload(0x01)\n        /* \"Class/first.sol\":336:354  return (num1,num2) */\n      swap2\n      pop\n      swap2\n      pop\n        /* \"Class/first.sol\":269:362  function retrieve() public view returns(uint256,uint256){... */\n      swap1\n      swap2\n      jump\t// out\n        /* \"Class/first.sol\":135:261  function store(uint256 ,uint256 ) public {... */\n    tag_12:\n        /* \"Class/first.sol\":197:201  num2 */\n      sload(0x01)\n        /* \"Class/first.sol\":192:196  num1 */\n      sload(0x00)\n        /* \"Class/first.sol\":192:201  num1+num2 */\n      tag_15\n      swap2\n      swap1\n      tag_16\n      jump\t// in\n    tag_15:\n        /* \"Class/first.sol\":187:191  num1 */\n      0x00\n        /* \"Class/first.sol\":187:201  num1=num1+num2 */\n      dup2\n      swap1\n      sstore\n      pop\n        /* \"Class/first.sol\":222:226  num2 */\n      sload(0x01)\n        /* \"Class/first.sol\":217:221  num1 */\n      sload(0x00)\n        /* \"Class/first.sol\":217:226  num1-num2 */\n      tag_17\n      swap2\n      swap1\n      tag_18\n      jump\t// in\n    tag_17:\n        /* \"Class/first.sol\":212:216  num2 */\n      0x01\n        /* \"Class/first.sol\":212:226  num2=num1-num2 */\n      dup2\n      swap1\n      sstore\n      pop\n        /* \"Class/first.sol\":247:251  num2 */\n      sload(0x01)\n        /* \"Class/first.sol\":242:246  num1 */\n      sload(0x00)\n        /* \"Class/first.sol\":242:251  num1-num2 */\n      tag_19\n      swap2\n      swap1\n      tag_18\n      jump\t// in\n    tag_19:\n        /* \"Class/first.sol\":237:241  num1 */\n      0x00\n        /* \"Class/first.sol\":237:251  num1=num1-num2 */\n      dup2\n      swap1\n      sstore\n      pop\n        /* \"Class/first.sol\":135:261  function store(uint256 ,uint256 ) public {... */\n      pop\n      pop\n      jump\t// out\n        /* \"#utility.yul\":7:84   */\n    tag_20:\n        /* \"#utility.yul\":44:51   */\n      0x00\n        /* \"#utility.yul\":73:78   */\n      dup2\n        /* \"#utility.yul\":62:78   */\n      swap1\n      pop\n        /* \"#utility.yul\":7:84   */\n      swap2\n      swap1\n      pop\n      jump\t// out\n        /* \"#utility.yul\":90:208   */\n    tag_21:\n        /* \"#utility.yul\":177:201   */\n      tag_31\n        /* \"#utility.yul\":195:200   */\n      dup2\n        /* \"#utility.yul\":177:201   */\n      tag_20\n      jump\t// in\n    tag_31:\n        /* \"#utility.yul\":172:175   */\n      dup3\n        /* \"#utility.yul\":165:202   */\n      mstore\n        /* \"#utility.yul\":90:208   */\n      pop\n      pop\n      jump\t// out\n        /* \"#utility.yul\":214:546   */\n    tag_8:\n        /* \"#utility.yul\":335:339   */\n      0x00\n        /* \"#utility.yul\":373:375   */\n      0x40\n        /* \"#utility.yul\":362:371   */\n      dup3\n        /* \"#utility.yul\":358:376   */\n      add\n        /* \"#utility.yul\":350:376   */\n      swap1\n      pop\n        /* \"#utility.yul\":386:457   */\n      tag_33\n        /* \"#utility.yul\":454:455   */\n      0x00\n        /* \"#utility.yul\":443:452   */\n      dup4\n        /* \"#utility.yul\":439:456   */\n      add\n        /* \"#utility.yul\":430:436   */\n      dup6\n        /* \"#utility.yul\":386:457   */\n      tag_21\n      jump\t// in\n    tag_33:\n        /* \"#utility.yul\":467:539   */\n      tag_34\n        /* \"#utility.yul\":535:537   */\n      0x20\n        /* \"#utility.yul\":524:533   */\n      dup4\n        /* \"#utility.yul\":520:538   */\n      add\n        /* \"#utility.yul\":511:517   */\n      dup5\n        /* \"#utility.yul\":467:539   */\n      tag_21\n      jump\t// in\n    tag_34:\n        /* \"#utility.yul\":214:546   */\n      swap4\n      swap3\n      pop\n      pop\n      pop\n      jump\t// out\n        /* \"#utility.yul\":633:750   */\n    tag_23:\n        /* \"#utility.yul\":742:743   */\n      0x00\n        /* \"#utility.yul\":739:740   */\n      dup1\n        /* \"#utility.yul\":732:744   */\n      revert\n        /* \"#utility.yul\":879:1001   */\n    tag_25:\n        /* \"#utility.yul\":952:976   */\n      tag_39\n        /* \"#utility.yul\":970:975   */\n      dup2\n        /* \"#utility.yul\":952:976   */\n      tag_20\n      jump\t// in\n    tag_39:\n        /* \"#utility.yul\":945:950   */\n      dup2\n        /* \"#utility.yul\":942:977   */\n      eq\n        /* \"#utility.yul\":932:995   */\n      tag_40\n      jumpi\n        /* \"#utility.yul\":991:992   */\n      0x00\n        /* \"#utility.yul\":988:989   */\n      dup1\n        /* \"#utility.yul\":981:993   */\n      revert\n        /* \"#utility.yul\":932:995   */\n    tag_40:\n        /* \"#utility.yul\":879:1001   */\n      pop\n      jump\t// out\n        /* \"#utility.yul\":1007:1146   */\n    tag_26:\n        /* \"#utility.yul\":1053:1058   */\n      0x00\n        /* \"#utility.yul\":1091:1097   */\n      dup2\n        /* \"#utility.yul\":1078:1098   */\n      calldataload\n        /* \"#utility.yul\":1069:1098   */\n      swap1\n      pop\n        /* \"#utility.yul\":1107:1140   */\n      tag_42\n        /* \"#utility.yul\":1134:1139   */\n      dup2\n        /* \"#utility.yul\":1107:1140   */\n      tag_25\n      jump\t// in\n    tag_42:\n        /* \"#utility.yul\":1007:1146   */\n      swap3\n      swap2\n      pop\n      pop\n      jump\t// out\n        /* \"#utility.yul\":1152:1626   */\n    tag_11:\n        /* \"#utility.yul\":1220:1226   */\n      0x00\n        /* \"#utility.yul\":1228:1234   */\n      dup1\n        /* \"#utility.yul\":1277:1279   */\n      0x40\n        /* \"#utility.yul\":1265:1274   */\n      dup4\n        /* \"#utility.yul\":1256:1263   */\n      dup6\n        /* \"#utility.yul\":1252:1275   */\n      sub\n        /* \"#utility.yul\":1248:1280   */\n      slt\n        /* \"#utility.yul\":1245:1364   */\n      iszero\n      tag_44\n      jumpi\n        /* \"#utility.yul\":1283:1362   */\n      tag_45\n      tag_23\n      jump\t// in\n    tag_45:\n        /* \"#utility.yul\":1245:1364   */\n    tag_44:\n        /* \"#utility.yul\":1403:1404   */\n      0x00\n        /* \"#utility.yul\":1428:1481   */\n      tag_46\n        /* \"#utility.yul\":1473:1480   */\n      dup6\n        /* \"#utility.yul\":1464:1470   */\n      dup3\n        /* \"#utility.yul\":1453:1462   */\n      dup7\n        /* \"#utility.yul\":1449:1471   */\n      add\n        /* \"#utility.yul\":1428:1481   */\n      tag_26\n      jump\t// in\n    tag_46:\n        /* \"#utility.yul\":1418:1481   */\n      swap3\n      pop\n        /* \"#utility.yul\":1374:1491   */\n      pop\n        /* \"#utility.yul\":1530:1532   */\n      0x20\n        /* \"#utility.yul\":1556:1609   */\n      tag_47\n        /* \"#utility.yul\":1601:1608   */\n      dup6\n        /* \"#utility.yul\":1592:1598   */\n      dup3\n        /* \"#utility.yul\":1581:1590   */\n      dup7\n        /* \"#utility.yul\":1577:1599   */\n      add\n        /* \"#utility.yul\":1556:1609   */\n      tag_26\n      jump\t// in\n    tag_47:\n        /* \"#utility.yul\":1546:1609   */\n      swap2\n      pop\n        /* \"#utility.yul\":1501:1619   */\n      pop\n        /* \"#utility.yul\":1152:1626   */\n      swap3\n      pop\n      swap3\n      swap1\n      pop\n      jump\t// out\n        /* \"#utility.yul\":1632:1812   */\n    tag_27:\n        /* \"#utility.yul\":1680:1757   */\n      0x4e487b7100000000000000000000000000000000000000000000000000000000\n        /* \"#utility.yul\":1677:1678   */\n      0x00\n        /* \"#utility.yul\":1670:1758   */\n      mstore\n        /* \"#utility.yul\":1777:1781   */\n      0x11\n        /* \"#utility.yul\":1774:1775   */\n      0x04\n        /* \"#utility.yul\":1767:1782   */\n      mstore\n        /* \"#utility.yul\":1801:1805   */\n      0x24\n        /* \"#utility.yul\":1798:1799   */\n      0x00\n        /* \"#utility.yul\":1791:1806   */\n      revert\n        /* \"#utility.yul\":1818:2009   */\n    tag_16:\n        /* \"#utility.yul\":1858:1861   */\n      0x00\n        /* \"#utility.yul\":1877:1897   */\n      tag_50\n        /* \"#utility.yul\":1895:1896   */\n      dup3\n        /* \"#utility.yul\":1877:1897   */\n      tag_20\n      jump\t// in\n    tag_50:\n        /* \"#utility.yul\":1872:1897   */\n      swap2\n      pop\n        /* \"#utility.yul\":1911:1931   */\n      tag_51\n        /* \"#utility.yul\":1929:1930   */\n      dup4\n        /* \"#utility.yul\":1911:1931   */\n      tag_20\n      jump\t// in\n    tag_51:\n        /* \"#utility.yul\":1906:1931   */\n      swap3\n      pop\n        /* \"#utility.yul\":1954:1955   */\n      dup3\n        /* \"#utility.yul\":1951:1952   */\n      dup3\n        /* \"#utility.yul\":1947:1956   */\n      add\n        /* \"#utility.yul\":1940:1956   */\n      swap1\n      pop\n        /* \"#utility.yul\":1975:1978   */\n      dup1\n        /* \"#utility.yul\":1972:1973   */\n      dup3\n        /* \"#utility.yul\":1969:1979   */\n      gt\n        /* \"#utility.yul\":1966:2002   */\n      iszero\n      tag_52\n      jumpi\n        /* \"#utility.yul\":1982:2000   */\n      tag_53\n      tag_27\n      jump\t// in\n    tag_53:\n        /* \"#utility.yul\":1966:2002   */\n    tag_52:\n        /* \"#utility.yul\":1818:2009   */\n      swap3\n      swap2\n      pop\n      pop\n      jump\t// out\n        /* \"#utility.yul\":2015:2209   */\n    tag_18:\n        /* \"#utility.yul\":2055:2059   */\n      0x00\n        /* \"#utility.yul\":2075:2095   */\n      tag_55\n        /* \"#utility.yul\":2093:2094   */\n      dup3\n        /* \"#utility.yul\":2075:2095   */\n      tag_20\n      jump\t// in\n    tag_55:\n        /* \"#utility.yul\":2070:2095   */\n      swap2\n      pop\n        /* \"#utility.yul\":2109:2129   */\n      tag_56\n        /* \"#utility.yul\":2127:2128   */\n      dup4\n        /* \"#utility.yul\":2109:2129   */\n      tag_20\n      jump\t// in\n    tag_56:\n        /* \"#utility.yul\":2104:2129   */\n      swap3\n      pop\n        /* \"#utility.yul\":2153:2154   */\n      dup3\n        /* \"#utility.yul\":2150:2151   */\n      dup3\n        /* \"#utility.yul\":2146:2155   */\n      sub\n        /* \"#utility.yul\":2138:2155   */\n      swap1\n      pop\n        /* \"#utility.yul\":2177:2178   */\n      dup2\n        /* \"#utility.yul\":2171:2175   */\n      dup2\n        /* \"#utility.yul\":2168:2179   */\n      gt\n        /* \"#utility.yul\":2165:2202   */\n      iszero\n      tag_57\n      jumpi\n        /* \"#utility.yul\":2182:2200   */\n      tag_58\n      tag_27\n      jump\t// in\n    tag_58:\n        /* \"#utility.yul\":2165:2202   */\n    tag_57:\n        /* \"#utility.yul\":2015:2209   */\n      swap3\n      swap2\n      pop\n      pop\n      jump\t// out\n\n    auxdata: 0xa2646970667358221220af853f00bf3e90ed73da238fa353e1208af84cecacb28c21964a0c2838a4d92464736f6c634300081a0033\n}\n",
				"bytecode": {
					"linkReferences": {},
					"object": "6080604052348015600e575f80fd5b506102378061001c5f395ff3fe608060405234801561000f575f80fd5b5060043610610034575f3560e01c80632e64cec1146100385780636ed28ed014610057575b5f80fd5b610040610073565b60405161004e9291906100db565b60405180910390f35b610071600480360381019061006c9190610130565b610082565b005b5f805f54600154915091509091565b6001545f54610091919061019b565b5f819055506001545f546100a591906101ce565b6001819055506001545f546100ba91906101ce565b5f819055505050565b5f819050919050565b6100d5816100c3565b82525050565b5f6040820190506100ee5f8301856100cc565b6100fb60208301846100cc565b9392505050565b5f80fd5b61010f816100c3565b8114610119575f80fd5b50565b5f8135905061012a81610106565b92915050565b5f806040838503121561014657610145610102565b5b5f6101538582860161011c565b92505060206101648582860161011c565b9150509250929050565b7f4e487b71000000000000000000000000000000000000000000000000000000005f52601160045260245ffd5b5f6101a5826100c3565b91506101b0836100c3565b92508282019050808211156101c8576101c761016e565b5b92915050565b5f6101d8826100c3565b91506101e3836100c3565b92508282039050818111156101fb576101fa61016e565b5b9291505056fea2646970667358221220af853f00bf3e90ed73da238fa353e1208af84cecacb28c21964a0c2838a4d92464736f6c634300081a0033",
					"opcodes": "PUSH1 0x80 PUSH1 0x40 MSTORE CALLVALUE DUP1 ISZERO PUSH1 0xE JUMPI PUSH0 DUP1 REVERT JUMPDEST POP PUSH2 0x237 DUP1 PUSH2 0x1C PUSH0 CODECOPY PUSH0 RETURN INVALID PUSH1 0x80 PUSH1 0x40 MSTORE CALLVALUE DUP1 ISZERO PUSH2 0xF JUMPI PUSH0 DUP1 REVERT JUMPDEST POP PUSH1 0x4 CALLDATASIZE LT PUSH2 0x34 JUMPI PUSH0 CALLDATALOAD PUSH1 0xE0 SHR DUP1 PUSH4 0x2E64CEC1 EQ PUSH2 0x38 JUMPI DUP1 PUSH4 0x6ED28ED0 EQ PUSH2 0x57 JUMPI JUMPDEST PUSH0 DUP1 REVERT JUMPDEST PUSH2 0x40 PUSH2 0x73 JUMP JUMPDEST PUSH1 0x40 MLOAD PUSH2 0x4E SWAP3 SWAP2 SWAP1 PUSH2 0xDB JUMP JUMPDEST PUSH1 0x40 MLOAD DUP1 SWAP2 SUB SWAP1 RETURN JUMPDEST PUSH2 0x71 PUSH1 0x4 DUP1 CALLDATASIZE SUB DUP2 ADD SWAP1 PUSH2 0x6C SWAP2 SWAP1 PUSH2 0x130 JUMP JUMPDEST PUSH2 0x82 JUMP JUMPDEST STOP JUMPDEST PUSH0 DUP1 PUSH0 SLOAD PUSH1 0x1 SLOAD SWAP2 POP SWAP2 POP SWAP1 SWAP2 JUMP JUMPDEST PUSH1 0x1 SLOAD PUSH0 SLOAD PUSH2 0x91 SWAP2 SWAP1 PUSH2 0x19B JUMP JUMPDEST PUSH0 DUP2 SWAP1 SSTORE POP PUSH1 0x1 SLOAD PUSH0 SLOAD PUSH2 0xA5 SWAP2 SWAP1 PUSH2 0x1CE JUMP JUMPDEST PUSH1 0x1 DUP2 SWAP1 SSTORE POP PUSH1 0x1 SLOAD PUSH0 SLOAD PUSH2 0xBA SWAP2 SWAP1 PUSH2 0x1CE JUMP JUMPDEST PUSH0 DUP2 SWAP1 SSTORE POP POP POP JUMP JUMPDEST PUSH0 DUP2 SWAP1 POP SWAP2 SWAP1 POP JUMP JUMPDEST PUSH2 0xD5 DUP2 PUSH2 0xC3 JUMP JUMPDEST DUP3 MSTORE POP POP JUMP JUMPDEST PUSH0 PUSH1 0x40 DUP3 ADD SWAP1 POP PUSH2 0xEE PUSH0 DUP4 ADD DUP6 PUSH2 0xCC JUMP JUMPDEST PUSH2 0xFB PUSH1 0x20 DUP4 ADD DUP5 PUSH2 0xCC JUMP JUMPDEST SWAP4 SWAP3 POP POP POP JUMP JUMPDEST PUSH0 DUP1 REVERT JUMPDEST PUSH2 0x10F DUP2 PUSH2 0xC3 JUMP JUMPDEST DUP2 EQ PUSH2 0x119 JUMPI PUSH0 DUP1 REVERT JUMPDEST POP JUMP JUMPDEST PUSH0 DUP2 CALLDATALOAD SWAP1 POP PUSH2 0x12A DUP2 PUSH2 0x106 JUMP JUMPDEST SWAP3 SWAP2 POP POP JUMP JUMPDEST PUSH0 DUP1 PUSH1 0x40 DUP4 DUP6 SUB SLT ISZERO PUSH2 0x146 JUMPI PUSH2 0x145 PUSH2 0x102 JUMP JUMPDEST JUMPDEST PUSH0 PUSH2 0x153 DUP6 DUP3 DUP7 ADD PUSH2 0x11C JUMP JUMPDEST SWAP3 POP POP PUSH1 0x20 PUSH2 0x164 DUP6 DUP3 DUP7 ADD PUSH2 0x11C JUMP JUMPDEST SWAP2 POP POP SWAP3 POP SWAP3 SWAP1 POP JUMP JUMPDEST PUSH32 0x4E487B7100000000000000000000000000000000000000000000000000000000 PUSH0 MSTORE PUSH1 0x11 PUSH1 0x4 MSTORE PUSH1 0x24 PUSH0 REVERT JUMPDEST PUSH0 PUSH2 0x1A5 DUP3 PUSH2 0xC3 JUMP JUMPDEST SWAP2 POP PUSH2 0x1B0 DUP4 PUSH2 0xC3 JUMP JUMPDEST SWAP3 POP DUP3 DUP3 ADD SWAP1 POP DUP1 DUP3 GT ISZERO PUSH2 0x1C8 JUMPI PUSH2 0x1C7 PUSH2 0x16E JUMP JUMPDEST JUMPDEST SWAP3 SWAP2 POP POP JUMP JUMPDEST PUSH0 PUSH2 0x1D8 DUP3 PUSH2 0xC3 JUMP JUMPDEST SWAP2 POP PUSH2 0x1E3 DUP4 PUSH2 0xC3 JUMP JUMPDEST SWAP3 POP DUP3 DUP3 SUB SWAP1 POP DUP2 DUP2 GT ISZERO PUSH2 0x1FB JUMPI PUSH2 0x1FA PUSH2 0x16E JUMP JUMPDEST JUMPDEST SWAP3 SWAP2 POP POP JUMP INVALID LOG2 PUSH5 0x6970667358 0x22 SLT KECCAK256 0xAF DUP6 EXTCODEHASH STOP 0xBF RETURNDATACOPY SWAP1 0xED PUSH20 0xDA238FA353E1208AF84CECACB28C21964A0C2838 LOG4 0xD9 0x24 PUSH5 0x736F6C6343 STOP ADDMOD BYTE STOP CALLER "
				},
				"gasEstimates": {
					"creation": {
						"codeDepositCost": "113400",
						"executionCost": "157",
						"totalCost": "113557"
					},
					"external": {
						"retrieve()": "infinite",
						"store(uint256,uint256)": "infinite"
					}
				},
				"methodIdentifiers": {
					"retrieve()": "2e64cec1",
					"store(uint256,uint256)": "6ed28ed0"
				}
			},
			"storageLayout": {
				"storage": [
					{
						"astId": 3,
						"contract": "Class/first.sol:Swap",
						"label": "num1",
						"offset": 0,
						"slot": "0",
						"type": "t_uint256"
					},
					{
						"astId": 5,
						"contract": "Class/first.sol:Swap",
						"label": "num2",
						"offset": 0,
						"slot": "1",
						"type": "t_uint256"
					}
				],
				"types": {
					"t_uint256": {
						"encoding": "inplace",
						"label": "uint256",
						"numberOfBytes": "32"
					}
				}
			},
			"userdoc": {
				"kind": "user",
				"methods": {},
				"version": 1
			}
		}
	}
}